:020000040800F2
:10000000803D002019750008F918010805750008E1
:10001000057500080575000805750008000000005A
:10002000000000000000000000000000E175000872
:10003000057500080000000089750008D5890008D2
:100040006577000865770008657700086577000820
:100050006577000865770008657700086577000810
:100060006577000865770008657700086577000800
:1000700065770008657700086577000865770008F0
:1000800065770008657700086577000865770008E0
:1000900065770008657700086577000865770008D0
:1000A00065770008657700086577000865770008C0
:1000B00065770008657700086577000865770008B0
:1000C00065770008657700086577000865770008A0
:1000D0006577000865770008657700086577000890
:1000E0006577000865770008657700086577000880
:1000F0006577000865770008657700086577000870
:10010000657700086577000865770008657700085F
:10011000657700086577000865770008657700084F
:10012000657700086577000865770008657700083F
:10013000657700086577000865770008657700082F
:10014000657700086577000865770008657700081F
:10015000657700086577000865770008657700080F
:1001600065770008657700086577000865770008FF
:1001700065770008657700086577000865770008EF
:080180006577000865770008AF
:1001C00090F800F06DE9024520F007016FF0000C97
:1001D00010F0070491F820F040F049804FF000043F
:1001E0006FF00700D1E9002391F840F000F108001A
:1001F00082FA4CF2A4FA8CF283FA4CF3A2FA8CF352
:100200004BBBD1E9022382FA4CF200F10800A4FAB8
:100210008CF283FA4CF3A2FA8CF3E3B9D1E904230C
:1002200082FA4CF200F10800A4FA8CF283FA4CF343
:10023000A2FA8CF37BB9D1E9062301F1200182FAFD
:100240004CF200F10800A4FA8CF283FA4CF3A2FA03
:100250008CF3002BC6D0002A04BF04301A4612BA11
:10026000B2FA82F2FDE8024500EBD2007047D1E914
:10027000002304F00305C4F100004FEAC50514F0A3
:10028000040F91F840F00CFA05F562EA05021CBF74
:1002900063EA050362464FF00004A9E7000000008E
:1002A000A2EB0300704700BF02780B78012A28BF39
:1002B0009A42F5D16DE9044540EA0104CDE90267AF
:1002C0006FF0000C4FEA447212B380EA010414F09C
:1002D000070F6AD100F0070420F0070004F00305BF
:1002E00021F007014FEAC505F0E8042314F0040FDC
:1002F000F1E804670CFA05F462EA040266EA04060F
:100300000AD063EA0403624667EA0407664603E02C
:10031000F0E80423F1E8046782FA4CF582EA060467
:10032000A4FA8CF46CBB83FA4CF583EA0705A5FAB2
:100330008CF595B950E9022351E9026782FA4CF530
:1003400082EA0604A4FA8CF483FA4CF583EA0705E2
:10035000A5FA8CF52543DBD09CB92DBAB5FA85F406
:1003600024F0070427FA04F1DDE9026723FA04F315
:1003700003F0FF0001F0FF01FDE80445A0EB0100E0
:10038000704724BAB4FA84F424F0070426FA04F17E
:10039000DDE9026722FA04F202F0FF0001F0FF013A
:1003A000FDE80445A0EB0100704714F0030F3CD1B9
:1003B00010F0030428D150F8082B51F8083B82FABA
:1003C0004CF582EA0305A5FA8CF55DB950F8042CCA
:1003D00051F8043C82FA4CF582EA0305A5FA8CF543
:1003E000002DE8D02DBAB5FA85F424F0070423FADD
:1003F00004F122FA04F202F0FF0001F0FF01FDE82F
:100400000445A0EB010070474FEAC40420F003004C
:1004100050F8082B21F0030151F8083B0CFA04F4C2
:1004200062EA040263EA0403C9E710F003041AD085
:10043000A1EB040120F00300E40750F8042B06D0E0
:100440000FD28B785FFAA2F4E41A06D12BB1CB78E5
:100450005FFAB2F4E41A00D11BB920465DF8104BE4
:10046000704701F1040150F8042BCC0721F003017F
:1004700051F8043B48D824D222F07F4482FA4CF54C
:1004800094EA1325A5FA8CF50AD165B951F8043B15
:1004900084EA0204B4EB036F0ED150F8042BEBE7AF
:1004A0004FEA132355E035F07F454DD10878FDE83C
:1004B0000445C0F1000070474FEA126203F0FF03E9
:1004C00047E002EA1C4482FA4CF594EA1345A5FA87
:1004D0008CF50AD165B951F8043B84EA0204B4EB07
:1004E000034F0CD150F8042BEBE74FEA134330E0F5
:1004F00015EA1C4528D10B884FEA124229E04FEA41
:10050000124203EA1C4324E002F0FF0482FA4CF595
:1005100094EA1365A5FA8CF50AD165B951F8043B44
:1005200084EA0204B4EB032F09D150F8042BEBE763
:100530004FEA13630DE015F0FF0F05D10B684FEA8A
:10054000122223F07F4304E04FF00000FDE8044551
:10055000704712BA1BBA82FA4CF482EA0304A4FA76
:100560008CF5B5FA85F402FA04F203FA04F34FEAC3
:100570001260FDE80445A0EB136070470000000026
:1005800001F0FF01102A2BDB10F0070F08D010F844
:10059000013B013A8B422DD010F0070F42B3F6D148
:1005A000F0B441EA012141EA014122F007047FF061
:1005B00000070023F0E80256083C85EA010586EAB8
:1005C000010685FA47F5A3FA87F586FA47F6A5FAF4
:1005D00087F68EB9EED1F0BC01F0FF0102F0070200
:1005E00032B110F8013B013A83EA010313B1F8D1AB
:1005F0000020704701387047002D06BF354603388C
:10060000073815F0010F07D1013015F4807F02BFC4
:10061000013015F4C03F0130F0BC0138704700BF15
:10062000844641EA000313F003036DD1403A41D3FD
:1006300051F8043B40F8043B51F8043B40F8043BBC
:1006400051F8043B40F8043B51F8043B40F8043BAC
:1006500051F8043B40F8043B51F8043B40F8043B9C
:1006600051F8043B40F8043B51F8043B40F8043B8C
:1006700051F8043B40F8043B51F8043B40F8043B7C
:1006800051F8043B40F8043B51F8043B40F8043B6C
:1006900051F8043B40F8043B51F8043B40F8043B5C
:1006A00051F8043B40F8043B51F8043B40F8043B4C
:1006B000403ABDD2303211D351F8043B40F8043BEC
:1006C00051F8043B40F8043B51F8043B40F8043B2C
:1006D00051F8043B40F8043B103AEDD20C3205D3FC
:1006E00051F8043B40F8043B043AF9D2043208D0F4
:1006F000D2071CBF11F8013B00F8013B01D30B8866
:1007000003806046704700BF082A13D38B078DD043
:1007100010F003038AD0C3F10403D21ADB071CBF15
:1007200011F8013B00F8013B80D331F8023B20F87F
:10073000023B7BE7043AD9D3013A11F8013B00F8B8
:10074000013BF9D20B7803704B7843708B78837040
:100750006046704781F0004102E000BF83F0004333
:1007600030B54FEA41044FEA430594EA050F08BF4C
:1007700090EA020F1FBF54EA000C55EA020C7FEA10
:10078000645C7FEA655C00F0E2804FEA5454D4EB8D
:100790005555B8BF6D420CDD2C4480EA020281EA57
:1007A000030382EA000083EA010180EA020281EA8F
:1007B0000303362D88BF30BD11F0004F4FEA0131E1
:1007C0004FF4801C4CEA113102D0404261EB4101F0
:1007D00013F0004F4FEA03334CEA133302D0524276
:1007E00063EB430394EA050F00F0A780A4F1010432
:1007F000D5F1200E0DDB02FA0EFC22FA05F280186C
:1008000041F1000103FA0EF2801843FA05F3594151
:100810000EE0A5F120050EF1200E012A03FA0EFCD0
:1008200028BF4CF0020C43FA05F3C01851EBE371FA
:1008300001F0004507D54FF0000EDCF1000C7EEB17
:1008400000006EEB0101B1F5801F1BD3B1F5001F55
:100850000CD349085FEA30004FEA3C0C04F1010474
:100860004FEA445212F5800F80F09A80BCF1004F9D
:1008700008BF5FEA500C50F1000041EB045141EA1F
:10088000050130BD5FEA4C0C404141EB0101013CE8
:1008900028BFB1F5801FE9D291F0000F04BF0146D7
:1008A0000020B1FA81F308BF2033A3F10B03B3F1A9
:1008B00020020CDA0C3208DD02F1140CC2F10C0239
:1008C00001FA0CF021FA02F10CE002F11402D8BF97
:1008D000C2F1200C01FA02F120FA0CFCDCBF41EA63
:1008E0000C019040E41AA2BF01EB0451294330BD32
:1008F0006FEA04041F3C1CDA0C340EDC04F114040F
:10090000C4F1200220FA04F001FA02F340EA0300E5
:1009100021FA04F345EA030130BDC4F10C04C4F12B
:10092000200220FA02F001FA04F340EA030029460B
:1009300030BD21FA04F0294630BD94F0000F83F455
:10094000801306BF81F480110134013D4EE77FEA38
:10095000645C18BF7FEA655C29D094EA050F08BF84
:1009600090EA020F05D054EA000C04BF1946104665
:1009700030BD91EA030F1EBF0021002030BD5FEAA9
:10098000545C05D14000494128BF41F0004130BDD1
:1009900014F580043CBF01F5801130BD01F0004525
:1009A00045F0FE4141F470014FF0000030BD7FEA98
:1009B000645C1ABF194610467FEA655C1CBF0B4693
:1009C000024650EA013406BF52EA033591EA030FAA
:1009D00041F4002130BD00BF90F0000F04BF0021A2
:1009E000704730B54FF4806404F132044FF00005D5
:1009F0004FF0000150E700BF90F0000F04BF00214E
:100A0000704730B54FF4806404F1320410F00045B3
:100A100048BF40424FF000013EE700BF42004FEAAE
:100A2000E2014FEA31014FEA02701FBF12F07F432B
:100A300093F07F4F81F06051704732F07F4208BFE2
:100A4000704793F07F4F04BF41F40021704730B5E9
:100A50004FF4607401F0004521F000411CE700BF35
:100A600050EA010208BF704730B54FF000050AE0B8
:100A700050EA010208BF704730B511F0004502D5B9
:100A8000404261EB41014FF4806404F132045FEABB
:100A9000915C3FF4D8AE4FF003025FEADC0C18BF64
:100AA00003325FEADC0C18BF033202EBDC02C2F156
:100AB000200300FA03FC20FA02F001FA03FE40EAE8
:100AC0000E0021FA02F11444BDE600BF70B54FF0EC
:100AD000FF0C4CF4E06C1CEA11541DBF1CEA1355CA
:100AE00094EA0C0F95EA0C0F00F0DEF82C4481EA32
:100AF000030621EA4C5123EA4C5350EA013518BF52
:100B000052EA033541F4801143F4801338D0A0FB3E
:100B100002CE4FF00005E1FB02E506F00042E0FBEB
:100B200003E54FF00006E1FB03569CF0000F18BFF1
:100B30004EF0010EA4F1FF04B6F5007F64F5407499
:100B400004D25FEA4E0E6D4146EB060642EAC6212C
:100B500041EA55514FEAC52040EA5E504FEACE2E99
:100B6000B4F1FD0C88BFBCF5E06F1ED8BEF1004F9C
:100B700008BF5FEA500E50F1000041EB045170BD18
:100B800006F0004646EA010140EA020081EA03015C
:100B9000B4EB5C04C2BFD4EB0C0541EA045170BD58
:100BA00041F480114FF0000E013C00F3AB8014F1D2
:100BB000360FDEBF002001F0004170BDC4F100041B
:100BC000203C35DA0C341BDC04F11404C4F120059C
:100BD00000FA05F320FA04F001FA05F240EA0200F7
:100BE00001F0004221F0004110EBD37021FA04F62D
:100BF00042EB06015EEA430E08BF20EAD37070BDE7
:100C0000C4F10C04C4F1200500FA04F320FA05F045
:100C100001FA04F240EA020001F0004110EBD37047
:100C200041F100015EEA430E08BF20EAD37070BDB7
:100C3000C4F1200500FA05F24EEA020E20FA04F390
:100C400001FA05F243EA020321FA04F001F000413F
:100C500021FA04F220EA020000EBD3705EEA430EB0
:100C600008BF20EAD37070BD94F0000F0FD101F0DF
:100C70000046400041EB010111F4801F08BF013C18
:100C8000F7D041EA060195F0000F18BF704703F056
:100C90000046520043EB030313F4801F08BF013DDD
:100CA000F7D043EA0603704794EA0C0F0CEA135599
:100CB00018BF95EA0C0F0CD050EA410618BF52EA53
:100CC0004306D1D181EA030101F000414FF0000059
:100CD00070BD50EA410606BF1046194652EA430667
:100CE00019D094EA0C0F02D150EA013613D195EADB
:100CF0000C0F05D152EA03361CBF104619460AD123
:100D000081EA030101F0004141F0FE4141F470012C
:100D10004FF0000070BD41F0FE4141F4780170BD1C
:100D200070B54FF0FF0C4CF4E06C1CEA11541DBF81
:100D30001CEA135594EA0C0F95EA0C0F00F0A7F883
:100D4000A4EB050481EA030E52EA03354FEA0131B0
:100D500000F088804FEA03334FF0805545EA1313C3
:100D600043EA12634FEA022245EA111545EA10658B
:100D70004FEA00260EF000419D4208BF964244F122
:100D8000FD0404F5407402D25B084FEA3202B61A41
:100D900065EB03055B084FEA32024FF480104FF415
:100DA000002CB6EB020E75EB030E22BFB61A754689
:100DB00040EA0C005B084FEA3202B6EB020E75EB1C
:100DC000030E22BFB61A754640EA5C005B084FEA84
:100DD0003202B6EB020E75EB030E22BFB61A754651
:100DE00040EA9C005B084FEA3202B6EB020E75EB5C
:100DF000030E22BFB61A754640EADC0055EA060E1D
:100E000018D04FEA051545EA16754FEA06164FEA5F
:100E1000C30343EA52734FEAC2025FEA1C1CC0D10B
:100E200011F4801F0BD141EA00014FF000004FF098
:100E3000004CB6E711F4801F04BF01430020B4F159
:100E4000FD0C88BFBCF5E06F3FF6AFAEB5EB030C11
:100E500004BFB6EB020C5FEA500C50F1000041EB0E
:100E6000045170BD0EF0004E4EEA113114EB5C04DB
:100E7000C2BFD4EB0C0541EA045170BD41F48011AE
:100E80004FF0000E013C90E645EA060E8DE60CEAB6
:100E9000135594EA0C0F08BF95EA0C0F3FF43BAFD3
:100EA00094EA0C0F0AD150EA01347FF434AF95EA8A
:100EB0000C0F7FF425AF104619462CE795EA0C0F6E
:100EC00006D152EA03353FF4FDAE1046194622E73B
:100ED00050EA410618BF52EA43067FF4C5AE50EA15
:100EE00041047FF40DAF52EA43057FF4EBAE12E705
:100EF0004FF0FF3C06E000BF4FF0010C02E000BFE6
:100F00004FF0010C4DF804CD4FEA410C7FEA6C5CC8
:100F10004FEA430C18BF7FEA6C5C1BD001B050EA6B
:100F2000410C0CBF52EA430C91EA030F02BF90EA56
:100F3000020F0020704710F1000F91EA030F58BF15
:100F4000994208BF90422CBFD8176FEAE37040F077
:100F5000010070474FEA410C7FEA6C5C02D150EA15
:100F6000013C07D14FEA430C7FEA6C5CD6D152EAD0
:100F7000033CD3D05DF8040B704700BF8446104695
:100F800062468C461946634600E000BF01B5FFF794
:100F9000B7FF002848BF10F1000F01BD4DF808ED64
:100FA000FFF7F4FF0CBF012000205DF808FB00BF35
:100FB0004DF808EDFFF7EAFF34BF012000205DF88F
:100FC00008FB00BF4DF808EDFFF7E0FF94BF0120DC
:100FD00000205DF808FB00BF4DF808EDFFF7CEFFDD
:100FE00094BF012000205DF808FB00BF4DF808ED1C
:100FF000FFF7C4FF34BF012000205DF808FB00BFED
:101000004FEA410C7FEA6C5C02D150EA013C0AD104
:101010004FEA430C7FEA6C5C02D152EA033C02D1F6
:101020004FF0000070474FF0010070474FEA410257
:1010300012F5001215D211D56FF47873B3EB62522A
:1010400012D94FEAC12343F0004343EA505311F051
:10105000004F23FA02F018BF404270474FF00000E3
:10106000704750EA013005D111F0004008BF6FF021
:10107000004070474FF00000704700BF7BB972B965
:101080000029BEBF00204FF0004106E008BF002845
:101090001CBF6FF000414FF0FF3000F057B8ADF1CA
:1010A000080C6DE904CE002909DB002B1ADB00F0E7
:1010B0004FF8DDF804E0DDE9022304B07047404258
:1010C00061EB4101002B1BDB00F042F8DDF804E08E
:1010D000DDE9022304B0404261EB4101524263EB7F
:1010E00043037047524263EB430300F031F8DDF8ED
:1010F00004E0DDE9022304B0404261EB41017047A6
:10110000524263EB430300F023F8DDF804E0DDE92D
:10111000022304B0524263EB4303704753B94AB908
:10112000002908BF00281CBF4FF0FF314FF0FF30EF
:1011300000F00CB8ADF1080C6DE904CE00F008F831
:10114000DDF804E0DDE9022304B07047704700BF1A
:101150002DE9F04786468C460846089E154674469B
:101160001946002B40F0C2808542B2FA82F245D97E
:101170004AB1C2F1200300FA02FC2EFA03F39540B3
:1011800043EA0C0C94404FEA154EA8B2BCFBFEF8A3
:10119000230C0EFB18CC08FB00F943EA0C439945DD
:1011A00028D9EB1808F1FF3704D2994502D9A8F1E4
:1011B00002072B44A3EB0903A4B2B3FBFEFC0EFB16
:1011C0001C330CFB00F044EA0344A04214D92C1950
:1011D0000CF1FF3304D2A04202D9ACF102032C443B
:1011E000241A43EA07401EB1D440002334607360E0
:1011F000BDE8F0874746DDE76346F1E792BB431B56
:1012000001214FEA154EAFB2B3FBFEFC200C0EFBE2
:101210001C330CFB07F840EA0343984562D9EB18EE
:101220000CF1FF3004D2984502D9ACF102002B44F6
:10123000A3EB0803A4B2B3FBFEFC0EFB1C330CFBB8
:1012400007F744EA0344A7424ED92C190CF1FF33A7
:1012500004D2A74202D9ACF102032C44E41B43EAB6
:101260000040C0E7C2F1200320FA03F1954090400E
:101270002EFA03F303434FEA154EAFB2B1FBFEFC67
:101280000EFB1C10190C0CFB07F841EA00418845C5
:1012900004FA02F422D969180CF1FF3004D288450F
:1012A00002D9ACF102002944A1EB08019BB2B1FBC9
:1012B000FEFC0EFB1C110CFB07F743EA01439F42A7
:1012C0000ED9EB180CF1FF3104D29F4202D9ACF1D8
:1012D00002012B44DB1B41EA004192E76046E3E751
:1012E0006146F7E76046A3E76346B7E7834206D95E
:1012F00016B9002108467BE7C6E900E0F9E7B3FA32
:1013000083F78FB9834201D3724508D8BEEB02043C
:1013100060EB030301209C461EB9002168E73846B4
:10132000FAE7C6E9004CF8E7C7F1200CBB4022FA07
:101330000CF41C432EFA0CF120FA0CF3B8400143D4
:101340004FEA14490EFA07F5B3FBF9F81FFA84FEC9
:1013500009FB18300B0C08FB0EFA43EA00439A45D0
:1013600002FA07F240D9E31808F1FF3004D29A4597
:1013700002D9A8F102002344A3EB0A0389B2B3FB0C
:10138000F9F809FB183308FB0EFE41EA03418E45CC
:101390002CD9611808F1FF3304D28E4502D9A8F187
:1013A0000203214443EA0040A0FB0298A1EB0E0196
:1013B0004145CE46434602D306D14D4504D2B9EB52
:1013C000020E68EB04030138002EA6D0B5EB0E0226
:1013D00061EB030101FA0CFC22FA07F34CEA030368
:1013E000F940C6E9003198E74046C5E74346D9E7EA
:1013F0002DE9F047044688B08846174611F013FAE5
:101400000A220023FFF78AFEB8F1010F06460D46B7
:1014100007D102460B46204627490FF0E9FB002082
:1014200011E07F6825483946FEF73EFF70B1244839
:101430003946FEF739FF48B1204622493A460FF0B7
:10144000F3FB6FF0040008B0BDE8F0873046294692
:1014500017A3D3E90023FFF711FE06460D461046F9
:101460001946194A0023FFF709FE80460F46104629
:1014700019464EF660220023FFF700FE8246894699
:10148000104619464FF47A720023FFF7F7FDCDE9B5
:1014900002A9CDE90623CDE90401CDE900870B4976
:1014A00032462B4620460FF0A3FBB8E7AFF300808F
:1014B000005C2605000000002F42010840420108A0
:1014C000434201084C42010880EE360064420108A4
:1014D0002DE9F04F016C9FB016461F46CDE9046719
:1014E0002B9D039049B1426C4A600123934004460E
:1014F0008B600CF0ADFD00232364B7F10009B4BF8D
:10150000012300232B60764BBCBF29F00049CDF8A6
:10151000149033EA090300F0AA80DDE904340022C4
:10152000184621460023CDE90801FFF737FD804624
:1015300068B12A9A012313602C9B13B12C9A694B32
:101540001360694B0A930A981FB0BDE8F08F1CAB7B
:1015500001931DAB00930398DDE908230DF0ACF86F
:101560005FEA1955824640F09880DDE91C854544C4
:1015700005F23243202B40F38383C3F1400309FA81
:1015800003F905F2124326FA03F349EA0300FFF7D1
:1015900023FA0123013DA1F1F8711193534B00226D
:1015A000FFF7DCF848A3D3E90023FFF78FFA48A33D
:1015B000D3E90023FFF7D4F8064628460F46FFF785
:1015C0001BFA45A3D3E90023FFF780FA02460B4636
:1015D00030463946FFF7C4F806460F46FFF726FDAA
:1015E00000228346002330463946FFF7E1FC0028FD
:1015F00040F01A83A8EB0508BBF1160F08F1FF3481
:1016000000F28B813A4D05EBCB05D5E90023DDE9EE
:101610000801FFF7CDFC002870D00023002C0BF14F
:10162000FF3B1093C0F27E8100230B93BBF1000FB0
:101630006ADA0B9BA3EB0B030B93CBF10003CDE911
:101640000EB3289B092B4FF0000B65D8052B40F3F8
:101650001C83043B28930025289B023B032B00F2AC
:101660002386DFE813F060045D04540438042A9AEA
:10167000C9F3130942F20F7359EA060913601CD12A
:101680002C9B002B00F02B861A4B0A9308332C9AC4
:101690000A9813601FB0BDE8F08FDDE90812C2F3AD
:1016A0001303084643F07F51CDF84480A5F2FF357F
:1016B000DDF8708041F4401170E72C9B002B40F066
:1016C000E7830D4B0A933EE761436F63A787D23FE1
:1016D000B3C8608B288AC63FFB799F501344D33F21
:1016E0000000F07F493D0108483D01080000F83F37
:1016F000683301086C3D0108783D0108B8F1000F1E
:1017000040F3608410900B9000230F93289BCDF83A
:1017100038B0092B5C4499D90023CDE92833012541
:101720004FF0FF330C950693039B00215964069BF1
:10173000189303980CF066FC0A90002800F0BD8511
:10174000039B0A9A1A64069B0E2B00F21581002D4A
:1017500000F012810E9A002A40F33B84B24D02F051
:101760000F0305EBC303D3E9008913461511DA050E
:1017700040F1FA83AD4BDDE90801D3E90823FFF717
:10178000CFFACDE9120105F00F0503277DB1A74E71
:10179000EB0708D540464946D6E90023FFF796F9FE
:1017A0000137804689466D1006F10806F0D14246A1
:1017B0004B46DDE91201FFF7B3FA80468946109BDC
:1017C00043B19B4B002240464946FFF7F1FB0028FE
:1017D00040F0F1843846FFF70FF942464B46FFF7D9
:1017E00075F9944B0022FEF7BBFF069B0646A1F15C
:1017F0005077002B00F0A9800E9B1993069B129343
:101800000A9B894D49464046CDE914675E1CFFF7A7
:101810000DFC129905EBC10353E902120746CDE90D
:101820001612FFF7E9F802460B4640464946FEF716
:1018300095FF89460C993037DDE916238046FFB2C3
:10184000002900F053847C490020FFF769FADDE9A4
:101850001423FEF783FF0A9D02460B46CDE91423AD
:101860002F7042464B46FFF7C1FB002840F097849B
:10187000CDE91AB4CDF858A0129DDDE914AB0027CC
:101880002AE00137AF4280F2DE846C4B5046594665
:101890000022FFF71BF9694B002282468B46404627
:1018A0004946FFF713F989468046FFF7BFFB044618
:1018B000FFF7A2F802460B4640464946FEF74EFFA8
:1018C000303406F8014B52465B4680468946FFF7A6
:1018D0006FFB002840F0B48442464B465449002038
:1018E000FEF73CFF52465B46FFF762FB0028C8D07C
:1018F000199BDDF858A00A9A374603F1010802E067
:10190000974200F07C843E4617F8013D392BF7D012
:101910000133DBB23B70454675E10123002C109387
:10192000BFF682AEC8F101030B9300247EE6384671
:10193000FFF762F842464B46FFF7C8F83D4B0022DE
:10194000FEF70EFF0646A1F150773D4B4046494653
:101950000022FEF703FF32463B4680468946FFF7EA
:1019600045FB002840F05A8440464946324607F17C
:101970000043FFF71DFB28BB1D9B002BC0F292808C
:101980000E9A0E2A00F38E80274D0E9B05EBC305A1
:10199000D5E90034CDE90434299B002B19DA069BE4
:1019A000002B16DC0ED1264B0022DDE90401FFF7E7
:1019B0008DF802460B46DDE90801FFF703FB00281E
:1019C00000F02C844FF000090A9E4F46299BDD430E
:1019D00025E2DDE90445DDE9088922462B4640463B
:1019E0004946FFF79DF9FFF721FB0646FFF704F88C
:1019F00022462B46FFF76AF80A9F0B4602464946E5
:101A00004046FEF7ABFE06F1300307F8013B069BAC
:101A1000012B00F012830125CDF818A09946DDE9CD
:101A200004ABA8462CE000BF68330108403301082E
:101A30000000F03F00001C400000E03F0000244098
:101A40000000144052465B4620462946FFF768F9DD
:101A5000FFF7ECFA0646FEF7CFFF52465B46FFF76C
:101A600035F808F101080B46024629462046FEF7E4
:101A700075FE06F13003C84507F8013B00F0DB8234
:101A8000B94B0022FFF722F80022002304460D463E
:101A9000FFF784FA0028D5D00E9DDDF818A0013597
:101AA0003E46B0E00C9A002A40F0D28000230F9D01
:101AB0000B9E0C931F4656B1002C08DDA6420B9AD4
:101AC0003346A8BF2346D21A0B92F61AE41A0F9B8C
:101AD00053B10C9B13B1002D40F0E88251460F9A90
:101AE00003980CF045FC8246039801210CF05CFB46
:101AF0008146BBF1000F40F0B681289B012B40F3DB
:101B0000CC810120204410F01F0000F09A80C0F129
:101B10002003042B40F3DA810B9BC0F11C0003442B
:101B20000B93064404440B9B002B05DD51460398A0
:101B30001A460CF077FC8246002C05DD49460398D6
:101B400022460CF06FFC8146109B002B40F0708108
:101B5000069B002B40F348810C9B002B40F0A48097
:101B60000E9D0135DDF82880069CDDF80CB00126BD
:101B700007E0514600230A2258460CF073FA01365A
:101B80008246494650460BF08FFEA64200F13003D4
:101B900008F8013BEDDB069A002AC8BF16460A9AF0
:101BA000D8BF012602EB060B002451460122039800
:101BB00004930CF037FC494682460CF0ABFC00283D
:101BC00040F3E3810A9A02E05A4500F0E9815E465B
:101BD0000BF1FF3B16F8013C392BF5D001338BF8A4
:101BE0000030DDF80C80494640460CF031FA57B120
:101BF0002CB1BC4203D0214640460CF029FA039890
:101C000039460CF025FA039851460CF021FA0023CE
:101C100033702A9B1D602C9B002B3FF494AC0A98D8
:101C20001E601FB0BDE8F08F5846FEF7E5FE324655
:101C30003B46FFF7B3F900287FF4DCAC0BF1FF3B28
:101C4000D8E41C230B9A1A440B921E441C446AE7E6
:101C5000289A012A40F3A981069A0F9B551EAB4290
:101C6000C0F26B81002AA3EB050580F2DD820B9B9D
:101C7000069A9E1A039801210CF096FA07461AE775
:101C8000C3F1200306FA03F081E40125E4E43946B8
:101C9000002303980A220CF0E5F9189B002B074655
:101CA00040F3EF820E950693002E00F33F81BBF1C7
:101CB000000F40F0DF81B8460A9E069C731E1C444C
:101CC000049B0C9403F00103039C0F934946504678
:101CD0000BF0EAFD3946834650460CF01BFC4246A9
:101CE0004946054620460CF035FCC26801460BF11A
:101CF0003003002A3AD1089050460B930CF00AFCAE
:101D00000899069020460CF0A3F9069A0B9B002A2E
:101D10005AD1289A1AB90F9A002A00F09A82002DF7
:101D200045DB0C9AB346B2420BF8013B00F0B98197
:101D3000514600230A2220460CF094F9474582467A
:101D400039464FF000034FF00A02204636D00CF01F
:101D500089F94146074600230A2220460CF082F901
:101D60005E468046B2E700BF000024400398069319
:101D70000CF06EF9002D069B06DB049A289902F000
:101D800001020D432A432AD15146012203980493AC
:101D90000CF048FB494682460CF0BCFB0028049B33
:101DA00040F3E880392B00F02F820BF131030E9DB8
:101DB00006F8013B3C460135474612E70CF052F964
:101DC0005E460746804681E7002DC0F27D82289955
:101DD0000D430F990D4300F07782002AA1DD392BC6
:101DE00000F012820133E2E7289B022B7FF7B4AEAA
:101DF000069B002B40F01D814946052203980CF0FC
:101E000031F90146814650460CF084FB002840F32E
:101E100010810A9E0E9D312306F8013B013503987F
:101E2000494601350CF014F9002F7FF4E8AEEAE6DC
:101E3000494650460CF06EFB0028BFF689AE51466D
:101E4000002303980A220CF00DF90E9B5D1E0C9BDB
:101E50008246002B7FF41BAF189B002B40F3FF81C1
:101E60000E9D06937EE601465A4603980CF080FAD2
:101E7000289B012B81466CDD4FF0000BD9F8103008
:101E800009EB830318690CF03DF9C0F1200039E635
:101E9000924B0A930333FFF7FABB049B002B7FF4AA
:101EA00030AEDDE90412C2F31303002B7FF429AE38
:101EB0008B4B134023B10B9B01330B930134012354
:101EC000BBF1000F40F0AE819B461AE63FF42BAE0B
:101ED000C0F13C03B6E601230C93299B0E9A1344F0
:101EE00018930133012B1E460693B8BF0126172E07
:101EF00040F3D581012204235B0003F11400B042BA
:101F0000114602F10102F7D9039B596411E4012340
:101F10000C93299B002B33DD189306931E46E6E7AE
:101F200000230C93D9E700230C93F2E7394603987A
:101F300032460CF077FA0746B9E60F9B069A0F95E2
:101F4000EB1A9B440B9B1E46134414440B93002531
:101F500090E6049B002B8FD1DDE90401C1F313034C
:101F60000A46002B88D1A3E7DDE908230227CDE943
:101F700012230BE47FF41BAFDA077FF518AF11E7EC
:101F8000012329930693FFF7CFBB03D1049BDB0703
:101F90003FF518AE5E461BF8013D302BFAD020E627
:101FA0000A9A3123013513701BE6119A002A00F0BA
:101FB000F98003F233430B9A0F9D16461A441C44D2
:101FC0000B9257E6C8F1010304460B931090FFF7FC
:101FD0009BBB00F0EB800E9B424D5E4206F00F0370
:101FE00005EBC303D3E90023DDE90801FEF76EFD2D
:101FF0003511CDE9120100F04D813B4E002302273F
:1020000080468946E80709D5D6E900234046494677
:10201000FEF75CFD01378046894601236D1006F10D
:102020000806EFD1002B7FF4CAABDDE91289FFF778
:10203000C6BB0A9ECAE4DDF818A00E9D02460B46F8
:10204000FEF78EFB02460B46CDE906230135DDE99E
:102050000423A846FEF7CAFF40B9DDE90423DDE901
:102060000601FEF79BFF18B1F10701D50A9A4AE471
:102070003E46C8E5796803980BF0C4FF0546002882
:1020800000F026813B6902339A0007F10C010C3005
:10209000FEF7C6FA0398294601220CF0C3F98046E0
:1020A0000AE60E9D3C46013547467EE5DDF80C808C
:1020B00039462A4640460CF05BF95246014607462F
:1020C00040460CF09FF85146824640460BF0C0FF58
:1020D0000F9B5B1B0F933FF407ADFFE4783D0108B6
:1020E0000000F07F6833010840330108DDE9140186
:1020F000FEF7ECFC0A9B1F70129B012BCDE90C0133
:1021000000F0C680129F0A9BCDF844B01F447C4B60
:10211000002240464946FEF7D9FC89468046FEF734
:1021200085FF8346FEF768FC0BF1300B02460B4639
:1021300040464946FEF712FB06F801BBB74280460F
:102140008946E4D1DDF844B06E4B0022DDE90C0194
:10215000FEF706FB02460B4640464946FEF746FFA1
:10216000002867D1DDE90C2366490020FEF7F6FA66
:1021700002460B4640464946FEF71AFF48B91D9BEA
:10218000002BFFF693AC0E9B0E2B3FF78FACFFF7A7
:10219000FCBB3E46013F16F8013C302BF9D0199D9F
:1021A000013530E51C9BC3F1360304E7DDE90889FE
:1021B0000227FFF704BB069B002B3FF4B8AB189B2C
:1021C000002B7FF7D9AB0E9A1293013A4C4B199220
:1021D000404600224946FEF779FC80468946781C35
:1021E000FEF70AFC42464B46FEF770FC464B0022C7
:1021F000FEF7B6FA0646A1F15077FFF701BB08F1EA
:1022000001083123FFF786BB0E9D0A9AB346392396
:102210003C460BF8013B01354746D8E44FF0000936
:102220004F46F6E59B4629E60B9B1E461344144495
:102230000B931FE5199B0A9A03F10108FFF763BB93
:10224000DDF858A0ABE7DDE91AB4DDF858A0FFF7D8
:1022500093BB392BD8D0002D3FF7A7ADA7E5289B1E
:10226000022B0ADC189B069349460E9D0BF01CFBC3
:102270000A9A00F1300313708DE4189B06930E95B3
:10228000B6E5289B022BF8DC189B0E9506930BE510
:10229000374659E7DDE912890227FFF790BA039B19
:1022A00000215964FFF745BA039B00255D64294668
:1022B00018460BF0A7FE0A90A8B9144B1448002248
:1022C0004FF4D5710DF07CFA002A7FF770AD5BE515
:1022D0000E4B0F482A4640F2EA210DF071FA0D4BE1
:1022E0000A93FFF730B9039B0A9A1A644FF0FF3341
:1022F0000122299518930C920693FFF73DBB00BF6E
:10230000000024400000E03F00001C407C3D01082C
:10231000903D01086C3D0108012938B5044605D8F7
:1023200013490EF081FC6FF0150038BD5568114956
:10233000284609F089F8034650B10F49284609F0AC
:1023400083F878B10D49284609F07EF860B9022378
:102350000B4A0C4902EBC3035A6820460EF048FCB6
:102360000020E2E70123F3E707492A46F5E700BF2B
:10237000C03E0108D73E0108DD3E0108E13E0108EC
:1023800044340108EA430108ED3E010808B5084855
:10239000036803F00703022B03D9064A03210EF05A
:1023A000B7F9002142F2107010F0AFF9F9E700BF61
:1023B000540C0020113F01082DE9F04F91B0840723
:1023C000009302F004030293C2F3C20303F101037A
:1023D000DDF86880039205460E46059340F0BA8109
:1023E000041D30B1072909D86FF01B0011B0BDE8FA
:1023F000F08F01F007063444C6F10806009B4FF049
:102400000009591E4FF0040A4FF0FF330193CDF835
:1024100010904F46CB4653460DB1009A2260059866
:10242000002800F3E8809848009A824203D3974836
:102430008242C0F0E080039AA4EB050E92074FEAB7
:102440009E0000F103810F2F00F2B180002D00F0FB
:10245000058107F140020DEB020C019A0CF8200CEB
:102460000CF8102C049801300490E7E07A285DD82D
:102470004B280ED8472859D829282DD8252852D09E
:1024800054D820287AD02338D0F1000B4BEB000B26
:1024900074E04C382E2849D8DFE800F070484848EE
:1024A00048484848484848484B48484848484848A9
:1024B0004859484B4B595959704B6D487048184B07
:1024C000184848827F4B48484B487F0000204FF017
:1024D000000B4FF0040A38E02A38C0B2012202FA99
:1024E00000F010EA0E0F49D110F0625C2FD110EA13
:1024F000020B43D06046013C5444B4FBFAF40AFB9F
:1025000004F4002D61D0A3EB050CA444B4453FF6C0
:102510006BAF002868D1042B47D158F8043B2360E7
:10252000043404232AE0019A013A01924FF0000B8F
:1025300024E011F8010C6C2834D111F8023C002081
:102540006C2B8346C5D14FF0080A5346D3E708F1F8
:10255000070828F007080734F8E802AB24F007045E
:1025600035B106982044B0423FF63EAFC4E900AB17
:1025700008344FF0000B4FF0080A534611F8010FD2
:10258000002878D0BBF1000F7FF470AF2528F5D17B
:10259000019B013301934FF0010B4FF0040AECE76C
:1025A000584694E700208346A5E7082B02D06FF039
:1025B00015001BE708F1070828F00708F8E80223D0
:1025C000C4E9002308340823D8E768B9042B02D1F2
:1025D00008F10408A4E7082BE9D108F1070828F05E
:1025E000070808F10808EDE7059A013A059258F83E
:1025F000042B009210E7039A900720D5A4EB050E58
:102600004FEA9E004FF0010CBEF5007FCFD20F2F96
:10261000CDD8F5B107F140020DEB020EC0B2019A20
:102620000EF8200C0EF8102CBCF1000F3FF41AAF7E
:1026300060F07F000EF8200C09F101090137C5F1A7
:102640000802043406924FF6DA7E97E74FF0000C4A
:10265000DAE7BCF1000F01D00136EFE7029802364D
:102660000028EBD10098CDE90631FDF7A9FDDDE9A1
:1026700006310644E2E7631BB3F5806F97D23DB99C
:10268000A6F10804E018B1E6E82A01083C5C01085C
:10269000029A28609B082B709DF81030C2B1EB7035
:1026A00085F80290B9F1000F05D008A80022C5F105
:1026B000010C97420ED1C5F101030DF120084FF036
:1026C000000A01930DF1300B574512D1601B8DE6C6
:1026D0006B70E5E710F8013B190608D50CEB040E0A
:1026E000B64503F07F033FF67FAE04F8013B0132AD
:1026F000DFE7B9F1000F03D098F90020002A17DBBB
:10270000029BD3B11AF80B2004F8012B0022019B85
:1027100018191044B0423FF667AE98F8000004F86C
:10272000010B009903922046FDF77AFF039A1444A7
:102730000AF1010A08F10108C6E798F8002055F8E7
:1027400022300093029B45F822300098FDF738FDB7
:10275000421CDCE76FF00D0048E600BF2DE9F04FAA
:1027600097B000AF90F802A0D7F880B03B62CBF3EF
:10277000C0030446FA62BB61894641B945780078D6
:102780000AEB800020444D4517D8A0EB0409E378FC
:10279000FB61BAF1000F02D01BF0010F16D1FB69EB
:1027A00053BBFB6A1BB13A6A4946204698474D46DF
:1027B00028465C37BD46BDE8F08F461C3046FDF725
:1027C000FFFC0130304409F10109DCE7237862683D
:1027D0007A62FA6A9900796104EB8301002A40F079
:1027E00004814D460E4601EB0A094FF000084E45A4
:1027F00050D101EB0A0610E01BF0020FD1D0237874
:102800009A007A6162687A62FA6A04EB8301002AAC
:102810007BD14D4601EB0A0690461BF0050F0CBF1D
:1028200002230123FB62FB6906EB430A0BF0020360
:10283000BB625645BCD016F8021B16F8013C54F892
:1028400023909B4B994502D39A4B99453AD3BB6948
:10285000002B44D0786A0DF0B8FA00283FD0964893
:10286000036813F0060F13D0E9468AB06A46934B0B
:1028700053617B6AC2E906314FF400731384904BB5
:1028800042F8103F00234FF4125101F013FCCD46E3
:10289000023DCEE716F8013BF96254F82300FDF73C
:1028A0008FFCD7F88430F96A01304BB1D7F8883003
:1028B00098453EBFD7F8843023F8180008F1010886
:1028C000054494E7BB6923B1786A0DF07EFA0028CD
:1028D000C5D11BF0010F05D1FB6AED1AA9E7BB6A50
:1028E000002BA6D04846FDF76BFCD7F8843053B1D7
:1028F000D7F8883098453FBFD7F88420431C22F88A
:10290000183008F10108054493E7BAF1000F72D0BE
:102910001BF0040672D0D046002607F1480052464C
:102920003B61B962FDF77CFEB96A3B6901EB0A02C3
:10293000BA62FA69F9695200FA60BA6A02EB4102B6
:102940003A610BF00202BA603A69B96A8A4257D119
:1029500062787A621BF0020F32440CBF4FEA5801D2
:1029600000211BF0010FD2B240F09F801BF0040F3A
:1029700014BF40460020BB616270A070E1703A6AEB
:102980007969FB6A20469847051EFFF611AFBB69BF
:1029900023707B6A6370FB69E37041463A6AFB6AA5
:1029A00084F802A007F148009847B0F10008C0F28F
:1029B000BB807B693A6AA9EB0A01C91AFB68C91A8C
:1029C000D7E90A0398470028C0F2B080A84408EB72
:1029D00000054FF0000B07F1380AB34572D3002110
:1029E0003A6AFB6A08469847E2E656464FF0000806
:1029F00007F1380093E75646D04697E7B04695E78B
:102A0000BA6A12F8021BBA6212F8015C284A54F83A
:102A10002500904202D3274A90421ED3BA6932B1B0
:102A2000786A7B600DF0D1F97B6800288CD1BA6898
:102A300002BB08F1280207F1300C08F101009444B0
:102A400007F1580252FA80F008F102080CF8101C45
:102A50005FFA88F800F8105C76E7BA693AB1786AEC
:102A60007B600DF0B2F97B6800287FF46DAF1BF03E
:102A7000010F09D006F1280207F13000711C161869
:102A800006F8205CCEB25FE71BF0040F3FF45CAFAA
:102A900008F1280207F1300008F1010102EB0008FB
:102AA00008F8105C5FFA81F84EE7002063E700BF8A
:102AB000E82A01083C5C0108400C0020AC3F0108FA
:102AC000040000011BF80A3087F8373054F82390CF
:102AD000D7F884302BB3D7F888309B4521D2D7F86C
:102AE000843033F81B803A6AFB6A012107F1370012
:102AF000984700281ADB0544B8F1000F06D1484674
:102B0000FDF75EFB00F101081FFA88F83A6AFB6ADC
:102B1000414648469847002808DB05440BF1010B65
:102B20005BE74FF00008DEE7454641E605463FE635
:102B300070B5234B82689A4216DDD0E90016012950
:102B400076F1000503F1010392FBF3F34FEAE3741E
:102B500022DAC91844EB0604C0E90014194901FB44
:102B600003238360012070BD002AFBDAB2F1004F1D
:102B70001EBF15499B1AB3FBF1F3D0E9004108BF12
:102B8000032300294FEAE3760FDA01F100459C4266
:102B9000B5410ADA0020E6E7CD439D426FF00045DB
:102BA000A5EB0605A541D4DAF4E7E41A61EB0601CA
:102BB000C0E90041044901FB03228260D2E700BF63
:102BC000FFC99A3B003665C400CA9A3B30B504463B
:102BD000EFF31185102383F31288BFF36F8F044B3B
:102BE0000FCB84E80F0085F31188BFF36F8F30BDE2
:102BF000F00C002001281FB50C4605D004281DD07C
:102C00006FF0150004B010BD0FF00DFE42F210720F
:102C10000023FEF783FA104B5A43C4E90001A26077
:102C20006846FFF7D3FF694620460DF0F3F818B960
:102C30000A4B0FCB84E80F000020E3E70FF0F3FD11
:102C400042F210720023FEF769FA034B5A43C4E9BB
:102C50000001A260F0E700BFA0860100F032010889
:102C600001287FB50D462DD18A68184B9A4229D884
:102C70000FF0D9FD42F210720023FEF74FFA144B09
:102C8000404261EB41016C46CDE9000153432046CF
:102C90000293FFF74DFF294620460DF0BBF8EFF3F6
:102CA0001186102383F31288BFF36F8F94E80F000F
:102CB000084D85E80F0086F31188BFF36F8F002061
:102CC00004B070BD6FF01500FAE700BFFFC99A3B72
:102CD0006079FEFFF00C0020014B1860704700BFC8
:102CE0009806002030B587B00025CDE903010446E1
:102CF000009503A90548059500F0B6F9DDE9043013
:102D00009842B8BF255407B030BD00BF79FE000817
:102D10000F2808B506D90EF040FE092303604FF0D6
:102D2000FF3008BD30235843044BBFF35B8F1B5863
:102D3000BFF35B8F002BEED00020F2E7A40600204B
:102D40000EB42DE9F741302545431B4C05F10C0627
:102D500004EB050826444FF0FF324FF0FF330746DF
:102D600030460DF0DCF8D8F804306059DB680AAA68
:102D700040F2011101929847051E10DBD8F82C3063
:102D800003F47042B2F5E04F05D011D803F450437C
:102D9000B3F5804F03D1302303FB0744A5623046CF
:102DA0000DF0BFF8284603B0BDE8F04103B070470E
:102DB000B2F5004FEEE700BF9C0600202DE9F74F6B
:102DC0000C9E0193054688469146FFF7A1FF002817
:102DD00055DB302101FB05FB2A4C0BF10C07274486
:102DE0004FF0FF334FF0FF3238460DF098F804EB08
:102DF0000B03DB6A03F47043B3F5E04F14D11EBB41
:102E00004FF0010A0BF128012144302068432318B8
:102E1000019A5B68E2B1D3F804B0BBF1000F1AD19C
:102E20000EF0BBFD052303E066B10EF0B6FD862370
:102E300003604FF0FF3838460DF073F8404603B09A
:102E4000BDE8F08FB246DDE731464FF0010ADCE71E
:102E5000D3F800B0E1E70B68205841464A46D8470E
:102E600000288046E7DDBAF1000FE4D0002EE2D161
:102E7000302303FB0544A36A0344A362DBE74FF05E
:102E8000FF38DBE79C06002030B530231049434370
:102E900008330B44BFF35B8F1A68BFF35B8FB2B18B
:102EA000BFF35B8F541E53E8005F954204D143E8A3
:102EB000004CBCF1000FF6D1BFF35B8FEAD1012AC1
:102EC00005D1302358430A1800230B50536030BDFE
:102ED0009C060020F8B50546FFF71AFF002824DB02
:102EE0003024134F6C4304F10C063E444FF0FF3284
:102EF0004FF0FF3330460DF012F83A1953689B68D3
:102F00008BB1D26A385912F4404F0AD029469847FB
:102F1000044630460DF005F82846FFF7B5FF204679
:102F2000F8BD9847F4E71C46F3E74FF0FF34F6E7A7
:102F30009C06002070B504460D46FFF7E9FE002808
:102F40000DDB0849302303FB04F00C182B4609580D
:102F500060684FF48372BDE870400CF0D1BF4FF051
:102F6000FF3070BD9C06002073B504460D46164622
:102F7000FFF7CEFE00280EDB084B302202FB0433A5
:102F800040F201119B6A00932A4633462046FFF720
:102F9000D7FE02B070BD4FF0FF30FAE79C0600206C
:102FA000F0B5094E016802460A2700200B460131A0
:102FB0001C78355D6D0701D41360F0BD07FB00433D
:102FC000A3F13000F2E700BF053C01082DE9F84FFE
:102FD00015469A46D378234A12F803B06F2B8146E0
:102FE0000F460BF0030B2BD026D8582B0CBF102606
:102FF0000A26DDF828803246002348463946FEF787
:103000008DF8092A08F1FF38D4B21ED83034B14502
:10301000E4B277F1000788F8004001D3D04511D819
:103020002B789B0605D5082E15D1AB7843F0080305
:10303000AB704046BDE8F88F03F0F703702BD5E77F
:103040000826D6E781460F46D5E7BBF1010F0CBF36
:1030500037345734DBE7102EEBD1AB7843F0100355
:10306000E6E700BF053C01082DE9F04F97B08A461E
:10307000039016461C460025307808B9284656E3CA
:1030800025280AD0039B514698470028C0F24F8359
:10309000731C01350493049EEEE71822002110A84A
:1030A00007F07CFF7378252B00F0A3800023711CB0
:1030B00098469E469C4618460F4611F8012B2B2A2F
:1030C00000F0C68000F2BD80202A00F0C480232AD0
:1030D00000F0C4802BB19DF8483043F040038DF8D8
:1030E0004830B8F1000F05D09DF8483043F0200378
:1030F0008DF84830BEF1000F05D09DF8483043F000
:1031000010038DF84830BCF1000F05D09DF8483011
:1031100043F008038DF8483028B19DF8483043F05B
:1031200004038DF848309DF8483003F044014429E9
:1031300003D16FF386138DF848309DF84830099716
:1031400043F080032A2A8DF8483040F08C809DF8A7
:10315000493043F001038DF849307B1C1A782E2A40
:103160009DF849200CBF0121002161F341028DF837
:1031700049200CD15A1C09925A782A2A40F083809F
:103180009DF8492042F004028DF8492002331A7854
:103190006C2A00F0A48000F28680682A00F08C80FF
:1031A0006A2A00F0A5804C2A00F0AA801A4612F87C
:1031B000013B0492782B9DF849208DF84B3000F2AA
:1031C00017816D2B00F2A980692B00F21181572B1A
:1031D00000F2BE80412B03D0453B022B00F2088158
:1031E0009DF84A30042262F302038DF84A3001232D
:1031F000CAE08DF84B30B31C04939DF84930D907D1
:1032000040F1FD8054F8048BB8F1000F07DA9DF807
:10321000482042F004028DF84820C8F100085A07FF
:1032200040F1F68054F804BBBBF1000F80F2F5804A
:103230009DF849306FF341038DF849304FF0FF3B63
:10324000EBE02D2A0DD0302A7FF444AF012333E781
:103250004FF0010C30E74FF0010E2DE74FF0010861
:103260002AE7012028E709A8FFF79AFE099BBB423D
:103270003FF474AF9DF848201390C00F60F34102F3
:103280008DF848206AE709A8FFF78AFE9DF84830C4
:103290001490C3F3400242EAD07262F341038DF806
:1032A0004830099B73E7742A26D07A2A7FF47EAFD0
:1032B0009DF8492006210CE05A78682A9DF849209B
:1032C00006D1012161F3C6028DF8492002336DE772
:1032D000022161F3C6028DF84920013366E75A786E
:1032E0006C2A9DF8492001D10421EBE70321F0E786
:1032F0009DF849200521ECE79DF849200721E8E7E2
:10330000BDF8482022F4F04222F0020242F480424A
:1033100042F00202ADF84820DFE76E3BD9B201234C
:103320008B4040F282410B4238D113F0240F52D12E
:10333000DF075DD59DF84A30032161F302038DF864
:103340004A3002F07803A3F14000434243411BE0BE
:10335000A3F15801C9B2012000FA01F111F4624F42
:103360007FF43EAF40F6010739421DD111F4043F0E
:103370003ED09DF84A3060F3020302F07802402A02
:103380008DF84A3034D000239DF84820C2F3400124
:103390000B4363F341028DF848202EE79DF84A3035
:1033A000022161F30203E8E79DF84A10022002F0CF
:1033B000780260F30201402A8DF84A1002BF9DF89E
:1033C000481041F001018DF84810632BDBD1131E2A
:1033D00018BF0123D8E79DF84A30032161F30203A7
:1033E00012F0780F8DF84A3014BF01230023CBE789
:1033F0009DF8483043F001038DF84830C3E79DF94C
:103400004820002AB4BFDDF84C804FF0FF3806E7B3
:103410009F077FF513AFDDF850B09DF849100023EA
:10342000CDE913339DF84A3003F00703012BC1F3B4
:10343000C30132D1CB1E042B04D8DFE803F02045B2
:1034400045202000236801294FEAE372CDE91032BC
:103450001BD19DF94030DA17CDE9103204349DF8C4
:10346000483013F003074FD0049B0398324651466F
:103470000CF069FD0028C0F25A8105440BE654F8AF
:10348000043BDA17CDE91032E9E70229E6D11AB296
:1034900043F3C033CDE91023E0E7022B24D1CB1E48
:1034A000042B04D8DFE803F01810101818000129C5
:1034B00054F8043B4FF0000214D00229CDE9103239
:1034C000CDD19BB21093CAE7073424F00704F4E887
:1034D0000223CDE91023C2E754F8043B10930023E4
:1034E0001193BCE7DBB2CDE7042B08D1073424F0FD
:1034F0000704D4E900230834CDE91023AFE7032BF8
:10350000ADD154F8043BDDE79DF84B0078283FF639
:10351000C2AD62281ED8252850D058287FF4BBADF4
:103520000DF13E030093DDE910010AAB12AAFFF78B
:103530004DFDBBF1000F814680F2C280B9F1000F52
:103540003FF4A9AD0DF13E06A6EB0903002F7BD099
:10355000013379E0633815283FF69DAD01A252F89A
:1035600020F000BF37360008953600089730000875
:10357000973000089730000897300008953600080B
:1035800097300008973000089730000897300008FF
:10359000E3360008BB360008F53500089730000810
:1035A00097300008CD35000897300008BB3600087A
:1035B0009730000897300008BB360008039B51463F
:1035C00098470028C0F2B380013564E5BBF1000FD5
:1035D000DDF840900ADB5946484608F093F8B9F107
:1035E000000F3FF458AD09EB000620E04846FCF719
:1035F000E7FDF8E71098002800F087800DF13E06FF
:103600000AAB009612AA0021FFF7E0FCBDF84A3091
:1036100003F0EF0343F4F04343F01003BBF1000F5A
:103620008146ADF84A304ADA00283FF434ADA6EBC3
:103630000903002708E0109B8DF8283000270DF1C2
:1036400029060DF1280901239DF84A1011F01002F6
:10365000069260D00233139A059213444A0644BF7F
:1036600014995B18B8F1000F6EDDA8EB03089DF804
:1036700048305807C3F3800B66D459065AD53FB17A
:10368000039B514638469847002850DB01355F467A
:10369000302350E01E075CBFC3F300135F01DDE978
:1036A000102348BF2B27002BBFF63AAF524263EBE3
:1036B0004303CDE910232D2732E7002730E7002709
:1036C0009DF848100DF13E03A3EB09036FF386113B
:1036D0009B458DF848107FF631AFABEB0303139396
:1036E0002CE7109B07293FF6D6ACDFE801F00C046D
:1036F000060C08080C0C1D70CDE41D80CBE4EA1705
:10370000C3E90052C7E41D60C5E4314E0746A6F187
:103710000509052398E7080748BF01339BE71846CA
:1037200007935146039B98470028079B04DA17B07C
:10373000BDE8F08F2023C346594600290BF1FF3B1B
:10374000EDDC45446D1AD84637B1039B51463846E7
:1037500098470028EBDB01359DF84A30DA0601D4A2
:103760001B0706D5039B5146302098470028DEDB17
:103770000135069B3BB19DF84B00039B5146984792
:103780000028D4DB0135059F2F4406E0039B5146FA
:10379000302098470028CADB01357B1B002BF5DC65
:1037A000039833464A4651460CF0CDFB0028BEDB59
:1037B0000544A844A8EB0503002B7FF76CAC039BE2
:1037C0005146202098470028B1DB0135F2E700BFC1
:1037D000654001082DE9F84344690569C76840F26E
:1037E0006C73E1170135E41841F10001022D8CBF23
:1037F00000230123E41A61F100010029064607F1C4
:10380000FF3751DA6FF4C77020184FF4C8724FF0C9
:10381000000361F10001FDF731FC264B03FB00447E
:10382000D6E90083B6684FEAE37C4FF03C0E994638
:103830006346C6FB0E93A9FB0EC60EFB0366A308E8
:1038400040F26D1E022D0EFB043302463B448CBF3A
:103850006FF00200092064270544B4FBF7F49920B7
:103860001B1B154C45431CEB080C4FF0050005F1E4
:103870000205B5FBF0F5A2FB04202B4404FB01017B
:1038800046EBE87698180D4A41F1000380180C4A7F
:1038900063F10003A0FB020102FB031110EB0C001B
:1038A00041EB0601BDE8F8834FF4C87200232046BF
:1038B000B1E700BF70FEFFFFB13A02009405F5FFCB
:1038C00080510100034A536823F002035360002033
:1038D000704700BF002004E0EFF31180102383F352
:1038E0001288BFF36F8F094B1A683AB9084A1168FA
:1038F00041F4807111601168C905FCD51A68013264
:103900001A6080F31188BFF36F8F7047501D00203D
:103910000070004038B5EFF31185102383F312884F
:10392000BFF36F8F104B1A6892B9104C237853B9BC
:103930000F48036813F0060F03D00E4A02210CF063
:10394000E7FE0123237085F31188BFF36F8F38BD25
:10395000012A01BF08490A6822F480720A601A68C5
:10396000013A1A60EFE700BF501D0020102400202C
:103970008C0C00206640010800700040084B1A685B
:1039800042F400721A601A6842F480621A601A687F
:1039900042F480721A60034B034A1A60704700BFFA
:1039A00000200240400A002000093D002DE9F047B8
:1039B000DFF85880044607464FF0010914B938462D
:1039C000BDE8F08794FAA4F5B5FA85F509FA05F390
:1039D0002E0108EB05156FEA030A24EA03042B7B8A
:1039E000002BEBD058F806301B694BB94644042233
:1039F00073682846196807EA0A070CF005FEDDE738
:103A0000284698470028D9D1F0E700BF683101085F
:103A100030B51049104889B000220EF006FF0F4D56
:103A20000F4900220023CDE9062300240E23CDE90F
:103A30000334CDE901440B4B00944FF44072284607
:103A400005F062FE0849284605F098FD204609B0B9
:103A500030BD00BF6D3A0008C0110020000D0020ED
:103A600040240020B53D0008A7400108014805F0AA
:103A7000E3BB00BFD40C00202DE9F047804620486E
:103A80000F460CF091FD0646002832D0002528464E
:103A9000BDE8F087237B83B12368DB680BB1204648
:103AA0009847636883F8069023681B69CBB96368FD
:103AB0000422196820460CF0A7FD01361034544545
:103AC000E8D3B8F1000FE2D0002DDFD02846FFF791
:103AD0006DFF0546002FF7D0002164200EF015FE83
:103AE000F2E7204698470028E1D009FA06F31D4383
:103AF000E3E7044CDFF810A005464FF00109DEE7CC
:103B0000641D0020683101087831010808B50346BA
:103B100008462BB1044A136000F072FD002008BD76
:103B20006FF01500FBE700BF9C09002010B5044CA6
:103B3000237813B9034805F07FFB0123237010BDE0
:103B400011240020D40C002010B504460B480CF0C2
:103B50002BFD5CB1BFF35B8F094B53E8001F0139AC
:103B600043E80012002AF8D1BFF35B8F05480EF03E
:103B700068FE0548BDE8104005F05EBB5C1D0020F6
:103B8000601D0020C0110020D40C00200020064B36
:103B9000BFF35B8F014653E8000F43E80012002A91
:103BA000F9D1BFF35B8F70475C1D002070B5FFF744
:103BB000EDFF084C084E0546B44200D370BD636863
:103BC0005B792BB123685B6813B12946204698477F
:103BD0001034F1E7683101087831010810B5044C60
:103BE000044920460CF0C9FA034B1C6010BD00BF0D
:103BF000FC0B00206C340108541D00200E4A0F48B5
:103C0000002310B513700E4A13600E4A4FF47A71F8
:103C10001360FFF77BFFFFF7E1FF00F075F90A4B38
:103C20000A4918468B4200D310BD1A1A5C6812115B
:103C3000013222711033F5E712240020C305010878
:103C40005C1D0020601D00206831010878310108EA
:103C500001460022014800230CF0B0BAFC0B002002
:103C600001480CF049BB00BFFC0B0020024B014691
:103C700018680CF095BB00BF541D002001480CF0E3
:103C8000CABB00BFFC0B00202DE9F041324B187875
:103C900000285FD0FFF7E4FF0446002856D12F4BE1
:103CA0002F4C1B68002B12DD0EF0BDFD0A220023F5
:103CB000FDF734FAD4E90032C01A40F2E93361EB7F
:103CC0000201984271F1000101D3FFF76FFFD4E9BF
:103CD000003213F57A7342F10002C4E90032BDE804
:103CE000F041FFF7CBBF6B685B793BB121784B07A5
:103CF00017D52B6821461B6828469847103545453F
:103D0000F1D32046FFF7B2FFBFF35B8F154B53E8AB
:103D1000001F013943E80012002AF8D1BFF35B8F7E
:103D2000BDE720462688C1F3C20700F0A3FAC6F318
:103D300082160246002EDCD00028DADB0123394649
:103D4000284600F091F9B042D8D3D2E7064DDFF80B
:103D50001C80D4E7BDE8F081112400205C1D002008
:103D6000B8110020601D0020683101087831010879
:103D700070B50D4D297861B90120FFF77DFE0B4C20
:103D80000B4EB44206D3FFF77FFF0028FBD101237F
:103D90002B7070BD63685B791BB1236820469B68FC
:103DA00098471034EDE700BF122400206831010865
:103DB0007831010800212DE9F0470846FFF75CFE45
:103DC000044648B34FF4FA784FF0000905F0F8FFC5
:103DD0001A4B186030B11A4B1B68092B02DD1948C9
:103DE00005F02AFA184FDFF85CA0002544B1204600
:103DF000FFF7DCFD044618B94FF0FF384FF0FF39EC
:103E0000FFF742FF064628B9B5B942464B46504631
:103E100005F04CFA3546E9E74FF0FF384FF0FF392F
:103E2000D4E72B689B691BB10022114628469847AE
:103E30001035BD42F5D3E8E7044DFAE7581D0020E0
:103E4000601D0020D40C0020783101086831010881
:103E500013B518480CF0A8FB174B1B7873B1EFF3A0
:103E60001184102383F31288BFF36F8FFFF70CFFC9
:103E700084F31188BFF36F8F02B010BD0F4B1B6826
:103E8000002BF9D050B900220023CDE900230C48C3
:103E900042F21072002306F007FBEDE70928EBD190
:103EA00007480EF0CEFC074802B0BDE8104005F010
:103EB000C3B900BF601D002012240020581D00203F
:103EC000C0110020D40C002010B5064B1B6804461E
:103ED00098472146A06004480CF0EFF9BDE8104077
:103EE000FFF7B6BF9C090020FC0B0020044A054BDD
:103EF0009B1AB1EBD30F34BF52F83100002070474A
:103F0000B8300108683101080B480C4B30B51B1A5A
:103F10000B4CDB0800210430994200D130BD10F871
:103F20003120256802F0070225F007052A4344F8EE
:103F3000042B0131F0E700BFB830010868310108F7
:103F4000400C0020F8B50B4F0B4DED1B0646ED085D
:103F50000024AC4203D14FF0FF342046F8BD57F89F
:103F6000340020B13146FCF79FF90028F5D0013428
:103F7000EFE700BFB83001086831010800282DE9DB
:103F8000F047884615461F461DDADFF89890264E02
:103F90004FF0000AA6EB090636095446B24509F16E
:103FA000100902D12046BDE8F08759F80C0C3B46B9
:103FB00000792A464146FFF7E1FF844238BF0446B4
:103FC0000AF1010AEAE7194B194AD21AB5EBD20FE6
:103FD00026D203EBC5031C79BC4228BF3C46154ED4
:103FE000C0B200EB400056F825300722824023EA99
:103FF000020304F00702824013430021032223FA44
:1040000002F000F00700814202F1030238BF0146CE
:104010001E2AF4D123F007030B4346F82530C1E7ED
:104020000024DCE76831010878310108B830010864
:1040300068310108400C0020F8B5094D094BED1A14
:1040400006460F46ED080024AC4200D3F8BD00211F
:1040500022B23B46304601340CF0CEFAA4B2F3E76C
:1040600068310108B830010870B14168097973B14D
:10407000002A17DBCBB20C4951F8220003EB4303B3
:10408000D84000F0070070474FF0FF31EFE70749D5
:104090000748401AB2EBD00F3ABF01EBC2010879D2
:1040A0001846704704207047400C0020B8300108C3
:1040B000683101082DE9F04F8FB004AFC1F34A28F1
:1040C000B8600D4691467B600C0DB8F1000F67D0CB
:1040D000002607F114034FF0040B4FF00A0AC7F84B
:1040E0000C80C7E907667E620193CDF808B0CDF871
:1040F00000A007F11C03F96832464846FEF72EFB84
:10410000B0F5006F034620D32A48036813F0060F6A
:1041100017D06C468AB0D9F8041004AB264DC3E919
:10412000055140F2FF71D9611A464FF400711984AC
:10413000224B42F8103F4FF412513346FFF7BAFFBB
:10414000A5462C37BD46BDE8F08FC0F30A0804F140
:104150001700184420F0070080083B60FFF778FD47
:1041600068F35325044690B13B68154AC7E9083601
:1041700000F1100107F11403F961CDE900A3CDF8B6
:1041800008B0F96807F11C034846FEF7E7FA68F340
:1041900053257B68B9682A4620460CF069FAD0E7B7
:1041A00004F1170020F007008008FFF751FD0446D6
:1041B000EDE700BF4C0C0020BC40010804000001EA
:1041C000430601082DE9F04F87B0DDE91279DDE9FA
:1041D000105A0446039193469846DFB1CDF80090FB
:1041E0003B46524610210020CDF81490FEF7E4F82B
:1041F000B0F5006F06460ED31C48036813F0060F97
:1042000030D01B4A40F2FF73022107B0BDE8F04FE7
:104210000CF087BA3E4605F11700304420F0070045
:1042200004F007048008FFF713FD0BF0070BE40010
:1042300044EA8B1444EA462444EA0554054640B156
:104240003FB1CDF800903B46524631461030FEF764
:10425000B3F8039943462246284607B0BDE8F04F1D
:104260000CF006BA07B0BDE8F08F00BF4C0C002080
:10427000FB400108406820B1034BC01A40F38F0097
:1042800070474FF0FF307047400C00200EB403B56C
:1042900003AB014653F8042B044801930CF066FA73
:1042A00002B05DF804EB03B0704700BF7B07010864
:1042B000CA0605D48B064CBF02490349FFF7E6BF87
:1042C000704700BF04450108334101082DE9F04F54
:1042D00089B09A46149B06939DF84CB0159B0593A4
:1042E000169B179E049304460D469046BBF1000FA3
:1042F00000F09D8006F4807307930CF07BF906F0C4
:104300000209024600283ED092492046FFF7BEFF30
:104310000746B9F1000F08D016F0440F35D18E4989
:104320002A462046FFF7B2FF074406F0010353B1C7
:104330008A4B8B4953F82B208A4B2046002A08BF12
:104340001A46FFF7A3FF06F48073002B49D006F04E
:104350000803002B63D1B8F1000F66D082494246B2
:104360002046FFF793FF0546069B3D44002B6DD189
:10437000049B002B73D1F30700F1E5803146204602
:10438000FFF796FFD9E00746C3E7784B1868002887
:10439000CAD0774B4FF47A791B68B5FBF3F54FF42D
:1043A0006163B5FBF0F100FB115509FB05F54FF01A
:1043B0003C0CB1FBF3F203FB1211B5FBF0FEB1FBB9
:1043C000FCF300FB1E550CFB131109FB05F50091D6
:1043D000B5FBF0F56749CDE901E52046FFF756FF4B
:1043E000A2E706F00803EBB1634B644953F82B20B6
:1043F0002046FFF74BFF0546B8F1000F05D05A499C
:1044000042462046FFF742FF0544BAF1000FABD009
:104410005B4952462046FFF739FF0544A4E74FF0B9
:10442000000AE1E706F00805E6E745469CE7BAF131
:10443000010F069B06D1002B65D1049B002B7CD07D
:1044400000250CE0002BF8D04E485DE04E48069B5E
:104450004E4922460BF088FC049B002B69D0DFF804
:104460003081DFF83091049F3146102F204628BF5D
:104470001027FFF71DFF4FF0000A554546DC059B4E
:1044800049461A782046FFF701FF4FF0010A1AF05B
:10449000070F03D141462046FFF7F8FE57453CD9A8
:1044A000059B494613F80A202046FFF7EFFE0AF164
:1044B000010ABAF1100FEAD1374920464FF0000A3D
:1044C000FFF7E4FE5246059B9A5C344B995C11F071
:1044D000970F08BF2E2232492046FFF7D7FE0AF178
:1044E000010ABAF1100F1DD01AF0070F03D141468F
:1044F0002046FFF7CBFE57455246E4D841462046BA
:10450000FFF7C4FEEBE720485D46A0E741462046A2
:10451000FFF7BCFE0AF1010AAFE722492046FFF788
:10452000B5FEC4E7059B3B440593049BDB1B04934A
:1045300099D1BBF1000F7FF41EAF204609B0BDE852
:10454000F04F0CF006B9074A05492046FFF79EFEDA
:1045500014E700BF474E01083B41010880340108C1
:104560002D47010836410108604101086C1D0020FB
:10457000681D002044410108943401086441010889
:104580006A410108B10701087B0701086D070108AE
:10459000774101086F41010879410108053C010894
:1045A0002B4E01087541010873B542F20F738B421F
:1045B00028BF0B4605680F4A0446052168460BF0E4
:1045C0007AFC63680C495B6806460B2228460CF0AF
:1045D000B2F863683246694628465B680CF0ABF86F
:1045E000636806495B681B2228460CF0A4F802B0F9
:1045F00070BD00BFD1540108974101087B410108FB
:10460000074A00210123904206D8064A01B9012336
:104610001360054B1860704740085B000121F2E70A
:1046200040420F00681D00206C1D0020014B0360FC
:1046300000207047A834010810B5044604F094FA2D
:104640000349024620460CF0D3FA002010BD00BFFB
:10465000DA41010837B5134600220192054601AA46
:1046600058680A210CF020FC019C4CB920EAE0704B
:104670000A2180FB01010EF048F8204603B030BD4E
:104680002246034928460CF0CFFA019CF5E700BF0B
:104690000642010808B5034A03490CF0A9FA0020B4
:1046A00008BD00BFF642010800430108F7B51746F0
:1046B0000023054601AA0A21B86801930CF0F4FB17
:1046C0001749C6B228460CF0A1FA019C44B1224613
:1046D000144928460CF0A8FA019C204603B0F0BD0E
:1046E000042E09D91049324628460CF09DFA284676
:1046F0000CF0D6FA0124F0E77868FFF723FC021EDD
:1047000007DA7A68094928460CF08EFA6FF015042A
:10471000E3E7334612B2214620460BF06DFFDCE79B
:104720002B43010891430108B8430108CF43010816
:1047300007B500230090694604488DF8043005F061
:104740009BFC9DF8040003B05DF804FB37080108EA
:1047500010B5044604F0EAF90749024620460CF079
:1047600047FA204605490CF043FA0548214605F072
:104770009DFC002010BD00BF2744010846440108ED
:1047800085470008F0B58FB0D0F8A07004460D46FC
:104790000DF00FFF064605F013FB204B2049214A80
:1047A000002E08BF1E46844218BF0A4623462846EC
:1047B0001D4900960CF01CFAD4E90A23CDE9002328
:1047C000284694F90E30227B18490CF011FA06A9FC
:1047D0002022204604F0E2FE636E15490246284678
:1047E0000CF006FA05A920460DF0F1FE024628B1AC
:1047F000104928460CF0FCF90FB0F0BD059B64226F
:10480000F91A4A430091B2FBF7F20B49CDE9017264
:1048100028463A460CF0ECF9EEE700BF5044010898
:104820007741010810580108534401085F4401080A
:104830008B440108A2440108CF440108F0B50025CB
:1048400091B00446294608AF1C2209A806F0A6FB31
:10485000134E1A222021384606F0A0FB21461148AB
:1048600005F024FC07AA4FF4006130460DF0A3FECA
:10487000079A0097C2F5006164234B43DB0A059356
:104880004FF40063CDE90313CDE901322046064918
:104890002B46A6F140020CF0ABF9284611B0F0BD52
:1048A00000300020AD4800082045010870B50446DE
:1048B000D0F8A06088B00D4607A90DF088FE02462A
:1048C00028B10F4928460CF093F908B070BD204676
:1048D0000DF06FFE079B0096F11ACDE90131094BEF
:1048E00064224A43002818BF0346B2FBF6F2064989
:1048F000CDE90362284622460CF07AF9E5E700BFCD
:10490000A2440108504401086945010838B513461E
:10491000054610225868002107F04EFA0446FFF7BA
:1049200007FF38B90D49224628460CF07DF96FF093
:10493000150038BD05F044FA844204D108492846E0
:104940000CF072F9F3E7204604F0F6FF284605491B
:1049500022460CF04DF90020EBE700BFCD450108E1
:10496000E84501081046010838B5134605461022EF
:104970005868002107F020FA0446FFF7D9FE38B93D
:104980000D49224628460CF04FF96FF0150038BD4E
:1049900005F016FA844204D1084928460CF044F97F
:1049A000F3E7204605F0E6F82846054922460CF0D4
:1049B0001FF90020EBE700BFCD4501084F46010875
:1049C0007546010838B5134605461022586800217F
:1049D00007F0F2F90446FFF7ABFE38B90D4922465D
:1049E00028460CF021F96FF0150038BD05F0E8F904
:1049F000844204D1084928460CF016F9F3E7204612
:104A000002F0ACFD2846054922460CF0F1F80020E2
:104A1000EBE700BFCD450108B0460108D5460108C7
:104A20002DE9F04F87B00446684604F053F9009F23
:104A3000284ADFF8A4A0DFF8A4B0242303FB007702
:104A4000082120460CF0C7F8009DBD4203D300208A
:104A500007B0BDE8F08F2B680BB11A7832B92B463E
:104A60001F4A142101A806F0ABFC01AB52460821F5
:104A700020460CF0B0F828460DF0FAFC194B1A4A03
:104A8000002808BF5B46082120460CF0A4F82B6ADA
:104A9000A3B11E6896B1336883B1144A0821204639
:104AA0000CF099F8B1464FF000083368104A4345BE
:104AB00006D8104A082120460CF08DF82435C4E7AA
:104AC00059F8043F082120460CF085F808F1010848
:104AD000EBE700BF1C4701082B47010813470108FB
:104AE000264701080D4701088E4E0108304701088E
:104AF0002C470108044501081FB50C68D1E90432B0
:104B000003944C6802948C680194C9680091013345
:104B1000034902F26C720CF06BF804B010BD00BFD8
:104B200071470108F7B513783A2B06460F4615462C
:104B300014D1541C23783A2B28D101340A2201A91C
:104B4000204607F093F8019A3860A242034617D036
:104B50001078A8B93C2B15D915490EE00A2201A9F5
:104B6000284607F083F8019CB860AC4208D023784F
:104B70003A2B05D1172807D90E4930460CF054F8C6
:104B80006FF0150003B0F0BD0134D3E70A2201A98C
:104B9000204607F06BF8019B7860A342F0D01A78AA
:104BA0003A2AEDD13B2801D90349E6E75C1CC5E769
:104BB000B047010892470108A04701082DE9F041DC
:104BC00090B00D46044602A9012017460DF02DF8BD
:104BD00007A902A805F084FD032D55D17D680A229E
:104BE00001A9284607F042F8019EB542804615D03B
:104BF00032782D2A12D101360A2201A9304607F057
:104C000035F8019B9E4209D01A782D2A06D1451EFF
:104C10000B2D0CD9284920460CF006F820460CF044
:104C20003FF86FF01505284610B0BDE8F0815E1C16
:104C30000A2201A9304607F019F8019B9E42EDD0E7
:104C40001B78002BEAD1431E1E2B01D91B49E2E73A
:104C5000A8F26C73CDE90B53BA680A9007A92046F5
:104C6000FFF760FF0028D9D107A80BF0EDFBB1F1E9
:104C7000FF3F08BFB0F1FF3FCDE9020108D1104965
:104C800020460BF0D1FFCCE7022DC7D17A68E5E7CB
:104C9000002302A9012004930CF0D5FF054628B19A
:104CA0000246084920460BF0BFFFBAE707A9204695
:104CB000FFF722FFB7E700BFC0470108CF47010851
:104CC000DC470108054801082DE9F04114468846F3
:104CD000074610226068002107F06EF8B8F1020F55
:104CE000064607D8254A2023082138460BF073FFD3
:104CF000336816E00A220021A06807F05DF8C5B20B
:104D00001E4A2B46082138460BF065FFB8F1030F09
:104D10001AD1102D0CD0202DEAD0082D0BD13378CC
:104D2000DBB2174A082138460BF055FF002009E096
:104D300033889BB2F5E73846124A08210BF04BFF47
:104D40006FF01500BDE8F081E0681022002107F047
:104D500033F80D4A03460446082138460BF03BFF62
:104D6000102D06D0202D07D0082DE4D1E4B23470E8
:104D7000DCE7A4B23480D9E73460D7E74A480108B9
:104D8000754801085F480108864801082DE9F04F81
:104D900087B000230193524BDFF848A191460122CE
:104DA000074688461A6002F0CBFE4FF0FF352026FA
:104DB0002C4649465246404602F0E6FE411C06D1CA
:104DC0006A1C41D1484938460BF02EFF17E0732882
:104DD0001AD0772828D0612811D1DFF810B101AAA4
:104DE000DBF8000010210CF05FF8019B0546002B5A
:104DF000DFD0DBF800203E4938460BF015FF6FF09E
:104E0000150007B0BDE8F08FDFF8E0B001AADBF8CD
:104E1000000000210CF048F8019B0446002BC8D08C
:104E2000DBF800203349E7E7DFF8C0B001AADBF880
:104E3000000000210CF038F8019B0646002BB8D08A
:104E4000DBF800202C49D7E7631C01D12B49BAE7D6
:104E50005FFA86F8C6F3C406002C3FD002AB2946A1
:104E60001A46A6EB050C0CE0B8F1100F1DD0B8F1F6
:104E7000200F20D0B8F1080F2AD1087818703144DB
:104E80003344A64203D80CEB01001028ECD9102CB7
:104E9000A14628BF4FF0100929464B46384601F07D
:104EA00023F81035A4EB0904D6E7088880B21870FF
:104EB000000A5870E3E7086818704FEA102E83F86C
:104EC00001E04FEA104E000E83F802E0D870D6E7FA
:104ED0000B4A082138460BF07EFE90E7204690E70B
:104EE000F0090020D4480108DB480108CC2100204B
:104EF0009A480108AD480108C0480108F84801086F
:104F00005F48010870B50F4E044633780D4671B105
:104F100023B1BDE870400C490BF086BE012333700D
:104F20000A4920460BF064FE0123337004E083F04D
:104F300001033370002BF3D129462046BDE87040B1
:104F40000BF0CCBE13240020124901084D49010882
:104F500070B504463B480378182B02D10B78112B0F
:104F600031D0013A0B468D18AB4225D18B5C0A78C3
:104F70000370A2F13003092B334C04D922F0200333
:104F8000413B052B04D823683049CA5401332360C0
:104F90002368022B33D110222C48002106F00CFF8D
:104FA0002B4A136803F8010B13602A4A1368013374
:104FB00013600023236022E013F8016B182ED3D175
:104FC0001E78112ED0D1234D23492A6820460BF09C
:104FD0000FFE20460021FFF795FF204B187870B98F
:104FE0001F4A2B681168042B0ADC08B111602B6082
:104FF00013F003010BD1126813681BBA136070BD64
:10500000086800BA41F8040B043B0120EBE75B425F
:1050100003F0030358BF5942022904D112681388D0
:105020005BBA9BB2EAE70329E9D110680268110470
:10503000C2F3074301F47F010B4302F47F421343A1
:105040000360DCE714240020701D002016240020DB
:105050007C1D0020741D00207749010815240020C4
:10506000781D00202DE9F84F0C462B49DFF8AC8065
:10507000DFF8AC90DFF8ACB000230B602A4988F869
:10508000003006460B601546012C2F4655F804AF3C
:105090001ED902224946504606F0BEFA80B99AF857
:1050A0000220003A18BF01229244204902225046B1
:1050B00006F0B2FA30B9012388F80030013CE3E78A
:1050C0000022F1E749465046FBF7EEF8A8B904374D
:1050D00000221146786806F06FFE154B002211463B
:1050E0001860786806F068FE124B13491860304665
:1050F000FFF708FF0020BDE8F88F9AF800202D2A5E
:10510000E6D19AF80120002AE2D0524659463046AC
:105110000BF06EFDD2E700BF701D002015240020AB
:105120009149010897490108741D0020944901081C
:105130007C1D0020781D0020514F000807B50A484B
:105140000DF096F960B1094A07491268084804232E
:105150000093012300F030FF002003B05DF804FB52
:105160006FF01200F9E700BF682D0108A4350108AF
:105170007831010810B54468C4E90012A3604268A0
:105180001346402153F8404B53625163002302F110
:105190003801C2E90413C2E90A33C2E9063308211F
:1051A00013631162C2F8B830A36823B19B6C13B1CA
:1051B000044920469847A3689B6A0BB1204698474C
:1051C000002010BDC95100082DE9F34705460C46E3
:1051D00083685B6C03B19847AB685B6B73BB4FF044
:1051E000000904F1240704F12808218E238D626B45
:1051F0005B1A9BB2D31A934228BF1346414601AAB9
:1052000038460BF02DF98246002844D0AB6801994E
:105210009B69002B33D0024628469847064688B340
:105220003246414638460BF051F956454FF00109D8
:10523000DBD0D4E901310020984703E028469847A5
:105240000028CCD1AB685B6A002B37D1628BE38A34
:105250009B1A226A9BB2934204F1100704F11A08C8
:1052600028BF1346414601AA38460BF0F9F8064616
:1052700058BB28460BF007FBC4F8B86031E06FF06C
:105280005706CDE70246414638460BF01FF9B9F103
:10529000000FD7D0CDE71748036813F0060F03D0EF
:1052A000154A02210BF034FAAB689B69002BEED053
:1052B00001220DF1030128469847E8E72846984760
:1052C0000028C3D102B0BDE8F087AB6801995B69E3
:1052D00063B10246284698470246414638460BF0DD
:1052E000F5F8D4E9013101209847EBE76FF0570258
:1052F000F3E700BF800C0020FE4A010810B581686A
:105300000446183101F090FBA168034A2046183189
:10531000BDE8104001F010BB404B010801490BF003
:1053200050BB00BF04450108F7B504468068D0F8BB
:1053300078325A070D4605D500210BF090FBE06846
:105340000CF0D9F9E368DB6873B9002D3BD0A6688F
:1053500006F1560738460BF041FB002835D0394698
:1053600006F5AB7006F0FAF8A268E0680DF10603E6
:10537000563229460CF0C2F958B9A06800F5AB7155
:10538000563006F0EBF8A06856300BF027FBADF86E
:10539000060020460BF047FEA368D3F874329B0644
:1053A00003D50B4960690BF00CFB204601F096F821
:1053B000A268BDF80630A2F85230A2682046A2F8D2
:1053C00050300BF0D3FD03B0F0BD86F85601CBE7AB
:1053D000003301082DE9F04FA7B004465422002104
:1053E00011A805F0DBFD0023CDE90533A3682046B5
:1053F000563302930BF01EFE20460BF0A0FD10B9B1
:105400006069FFF78BFFA06814220021183005F0B7
:10541000C5FD204600F0A8FFA168E068B1F8502063
:10542000563100260CF0A1F920460CF030FA4FF06E
:10543000FF37B24603960DF14408B3463546B146F0
:10544000DDE90532012A6DD0132B6ED85FBBBBF1AD
:10545000000F0AD020460CF03BFAA2681423563203
:1054600011A90DEB030000F033FEB9F1000F0CD0D1
:1054700099F81130FE2B08D1059B26AA02EB830276
:1054800052F8542C0AB101330593A068059D436A74
:10549000002B40F0B680CEB1C3699E422DD00D9650
:1054A00000F1180524E0029A0223414606A800F004
:1054B0000FFE0699D8F804200292034631B1012963
:1054C0000AD148B16D4A20460BF066FE6FF0070521
:1054D000284627B0BDE8F08F059B002B34D0D8F8C4
:1054E000000001F0D3FA98B166B1A5680D961835A1
:1054F0000CAE0FCE0FC533682B602046FFF7FEFEC3
:105500000125E5E75E4A012120460BF045FEDDE777
:10551000059BCBB1D8F800202946204601F058FC65
:10552000022809D1059B132B91D9069B022B8ED102
:10553000544B554A0121C6E7032805D0059B01338A
:1055400005934FF0010B7BE7039B33B9D8F80010AC
:1055500007AA48460BF04FFC054608F10408013F36
:105560009DB3EB68BBF1000F08D0F3B120460BF000
:1055700061FD20460BF0FAFC444AC4E7ABB1A368D6
:10558000DDF814A0AE4603F1180CBEE80F00ACE83D
:105590000F00DEF80030CCF80030AB682BB96B7C24
:1055A000FE2B04BF2F7C07F1FF37D5F804C0BCF1F8
:1055B000000F08D0AE46BEE80F000CAE0FC6DEF8F6
:1055C000003033606646A94603E0059B53B10123D2
:1055D0000393069B17B9022B7FF432AF059B01336F
:1055E00005932DE7A368DB6A13B1DB68002BEED1CE
:1055F000274B0093274A119B012120460BF0CCFD3D
:10560000E5E790F82830A5EB0A05BBB190F8291022
:105610004FF6FF72FF2918BF0A469D4202D313447A
:105620009D420BD983691C4A012120460BF0B4FD31
:105630002046FFF763FE6FF0150549E701210BF0E7
:1056400003FAA06800F543700BF022FAA36811AAD0
:10565000294602EB8A025B6A204698470546A06805
:105660004FF0FF324FF0FF3300F543700BF091F92C
:10567000A06800210BF0E8F92AE700BF4E4B0108B3
:10568000624B0108C34B0108EA430108804B010843
:10569000AF4B0108BB4E0108E74B010810B583680A
:1056A00002221A7583689B6C0446BBB90BF048F95B
:1056B0008368D3F87832DB040BD50321084B094A01
:1056C0000BF06AFDA0686FF4805100F51E700BF0BE
:1056D00051F92046BDE8104001F086B810BD00BF6A
:1056E000024C01082D4701082DE9F04F044680685F
:1056F000B1B0012100F51E700BF02DF9A3681B7DE0
:10570000022B20D100230993A36860689E6C036874
:105710001D6909AB0EB310221BA9A847099B93B1C1
:10572000A06801210BF090F9099A1BA92046B04707
:10573000A06800210BF088F9A3689B6C002BE3D1D3
:105740002046FFF7ABFFA0686FF0010100F51E7067
:1057500031B0BDE8F04F0BF00DB901220DF123017E
:10576000A847099B002BEED09DF923109DF823300C
:10577000A2680029C8DB517D032900F21283DFE80B
:1057800011F004009202AA0210030D2B56D00A2B2E
:1057900032D0B2F87812092B6FF3CA01A2F878124E
:1057A00064D013D8002B5DD0082B00F0DE815A1C8A
:1057B0008C49A068D2B28A5C12F0970F00F0E281A7
:1057C00001210BF04CF99DF8231001E11B2BA0687F
:1057D00046D07F2BEBD1D0F874329D0742D5012102
:1057E0000BF03DF9A368D3F87432190700F1C681B4
:1057F00020460BF01AFD35E0D2F87812C1F3C7014C
:1058000029B1D2F87812C1F3C7010A29CFD1B2F871
:10581000781263F3CA01A2F87812A568B5F850109F
:10582000C1B928460BF01BF9E0680BF064FF606912
:10583000FFF774FD2046FFF731FF65E7D2F87812D5
:10584000C1F3C7010029E2D0D2F87812C1F3C70131
:105850000D29DBE72046FFF7BDFDC5F82403E9E786
:105860000123437560690BF03FFA4DE7A068D0F85B
:1058700074329A07F6D501210BF0F1F8A068B0F860
:105880005030FF2BEED0B0F8522000F1560100F559
:10589000AB70FAF7C5FEA368B3F852201344002595
:1058A00083F85651A2681BA9142302F5AB720BA80A
:1058B00000F00EFC0B991429D4D830AB03EB810314
:1058C00043F8545CA368B3F85220002A50D1002951
:1058D00057D100250A950A9B30AA02EB83030026C4
:1058E00053F854AC50460BF079F8B3468146B046B5
:1058F000374616AA3946284600F0C6FC034600285B
:105900004ED1012E72D10A9B30AA02EB830353F8C9
:10591000540C0BF063F8A26806461832414628463C
:1059200000F0B2FC056828460BF058F8864205D016
:10593000821B92B2A91920460BF075FCA0682A4A76
:10594000B0F85230034493F85630D15C11F008019E
:1059500042D1D0F87432DF0739D50BF08AF8202114
:10596000204600F009FFA06801210BF082F879E7DA
:105970000029AED013441C4A93F85530D35C1B0762
:1059800002D40129A5D0013900200CAB009301906D
:105990000AAB1BAA0BF05AFA054600289BD161E717
:1059A0001B6803934A465146184605F035FE60B918
:1059B000039B1846FAF704FC584538BF58461FFAAF
:1059C00080FB002E08BFB8460136013791E7202141
:1059D000204600F0D1FE45E7012120460BF0FAFAFF
:1059E00040E700BF043C0108053C010804907FF635
:1059F00039AF0A9A30AB03EB8202C14652F8543CED
:105A0000039318460AF0EAFFA268049B0590A2F8E7
:105A100040300496A26849461832284600F034FC0B
:105A2000039BD0F800A009F101094BB1BAF1000FB6
:105A300006D0059A1946504605F0EEFD0028E9D13A
:105A4000A168BAF1000F4ED1A1F840A0049B013B20
:105A50000493DFD16069FFF761FC204600F0C4FECB
:105A60000A9B30AA02EB830308F1010A53F8540C95
:105A70000AF0B4FF414611AA8146284600F004FC12
:105A80000746A0683968FF2200F5AB7005F006FEF6
:105A90003B6803934FF6FF77B84616AA514628464F
:105AA0000AF1010B00F0F0FB002852D0A168036856
:105AB00001F25511002211F801EF985C704503D1F5
:105AC00010B101324245F6D1B9F1000F01D04A457B
:105AD00007DBBA4206F1FF36A8BF3A46012E97B25D
:105AE00037D0DA46D9E7B04806910AF077FF069931
:105AF00007914A8F00EB0B07BFB2121A504692FB78
:105B0000F7F292B206920AF069FF0799069A3F1AD5
