:020000040800F2
:10000000401A0020311E0008675300081D1E00081A
:100010001D1E00081D1E00081D1E00080000000017
:10002000000000000000000000000000F11E0008B9
:100030001D1E000800000000911E00086D31000820
:10004000792000087920000879200008792000082C
:10005000792000087920000879200008792000081C
:10006000792000087920000879200008792000080C
:1000700079200008792000087920000879200008FC
:1000800079200008792000087920000879200008EC
:1000900079200008792000087920000879200008DC
:1000A00079200008792000087920000879200008CC
:1000B00079200008792000087920000879200008BC
:1000C00079200008792000087920000879200008AC
:1000D000792000087920000879200008792000089C
:1000E000792000087920000879200008792000088C
:1000F000792000087920000879200008792000087C
:10010000792000087920000879200008792000086B
:10011000792000087920000879200008792000085B
:10012000792000087920000879200008792000084B
:10013000792000087920000879200008792000083B
:10014000792000087920000879200008792000082B
:10015000792000087920000879200008792000081B
:10016000792000087920000879200008792000080B
:1001700079200008792000087920000879200008FB
:08018000792000087920000835
:1001880053B94AB9002908BF00281CBF4FF0FF31F6
:100198004FF0FF3000F00CB8ADF1080C6DE904CE5B
:1001A80000F010F8DDF804E0DDE9022304B0704740
:1001B800704700BF034613F8012B002AFBD1181A19
:1001C800013870472DE9F04786468C460846089E58
:1001D800154674461946002B40F0C2808542B2FA93
:1001E80082F245D94AB1C2F1200300FA02FC2EFA84
:1001F80003F3954043EA0C0C94404FEA154EA8B21D
:10020800BCFBFEF8230C0EFB18CC08FB00F943EAF4
:100218000C43994528D9EB1808F1FF3704D29945C2
:1002280002D9A8F102072B44A3EB0903A4B2B3FB3C
:10023800FEFC0EFB1C330CFB00F044EA0344A04216
:1002480014D92C190CF1FF3304D2A04202D9ACF115
:1002580002032C44241A43EA07401EB1D440002369
:1002680034607360BDE8F0874746DDE76346F1E731
:1002780092BB431B01214FEA154EAFB2B3FBFEFC04
:10028800200C0EFB1C330CFB07F840EA034398458F
:1002980062D9EB180CF1FF3004D2984502D9ACF1C1
:1002A80002002B44A3EB0803A4B2B3FBFEFC0EFB35
:1002B8001C330CFB07F744EA0344A7424ED92C1918
:1002C8000CF1FF3304D2A74202D9ACF102032C444B
:1002D800E41B43EA0040C0E7C2F1200320FA03F11F
:1002E800954090402EFA03F303434FEA154EAFB200
:1002F800B1FBFEFC0EFB1C10190C0CFB07F841EAC5
:100308000041884504FA02F422D969180CF1FF303B
:1003180004D2884502D9ACF102002944A1EB0801B6
:100328009BB2B1FBFEFC0EFB1C110CFB07F743EA6A
:1003380001439F420ED9EB180CF1FF3104D29F42C2
:1003480002D9ACF102012B44DB1B41EA004192E7E0
:100358006046E3E76146F7E76046A3E76346B7E729
:10036800834206D916B9002108467BE7C6E900E0B2
:10037800F9E7B3FA83F78FB9834201D3724508D8F6
:10038800BEEB020460EB030301209C461EB900216A
:1003980068E73846FAE7C6E9004CF8E7C7F1200CE9
:1003A800BB4022FA0CF41C432EFA0CF120FA0CF391
:1003B800B84001434FEA14490EFA07F5B3FBF9F8C0
:1003C8001FFA84FE09FB18300B0C08FB0EFA43EAEF
:1003D80000439A4502FA07F240D9E31808F1FF30C2
:1003E80004D29A4502D9A8F102002344A3EB0A03D8
:1003F80089B2B3FBF9F809FB183308FB0EFE41EA92
:1004080003418E452CD9611808F1FF3304D28E457B
:1004180002D9A8F10203214443EA0040A0FB029854
:10042800A1EB0E014145CE46434602D306D14D45C8
:1004380004D2B9EB020E68EB04030138002EA6D0F3
:10044800B5EB0E0261EB030101FA0CFC22FA07F38B
:100458004CEA0303F940C6E9003198E74046C5E78E
:100468004346D9E72DE9F84300AF274805F0AEFB2E
:10047800002834D1254A2648012104F0A7FEDFF8D8
:100488009490DFF89480254E0024484604F099FAA9
:10049800404604F096FA304604F093FA204A214B7D
:1004A80094F001046D468AB008BF13466A461E4997
:1004B80051611E49C2E9061340F2013313841C4BF3
:1004C80042F8103F124800234FF4145100F01AFF6D
:1004D800AD46002141F2883005F059FCD5E71548B2
:1004E80005F074FB0028C5D0134805F06FFB002801
:1004F800C0D0084804F06DFA074804F06AFA0748C3
:1005080004F067FABBE700BF88610008516800087B
:100518005C650008AC650008A46500089C650008D7
:100528004D6800084A680008736800088168000878
:1005380004000001A8610008686100082DE9F04F77
:1005480091B08407009302F004030293C2F3C2033C
:1005580003F10103DDF86880039205460E46059312
:1005680040F0BA81041D30B1072909D86FF01B008B
:1005780011B0BDE8F08F01F007063444C6F1080653
:10058800009B4FF00009591E4FF0040A4FF0FF334B
:100598000193CDF810904F46CB4653460DB1009AC3
:1005A80022600598002800F3E8809848009A824263
:1005B80003D397488242C0F0E080039AA4EB050E6B
:1005C80092074FEA9E0000F103810F2F00F2B180DD
:1005D800002D00F0058107F140020DEB020C019A95
:1005E8000CF8200C0CF8102C049801300490E7E06B
:1005F8007A285DD84B280ED8472859D829282DD8CD
:10060800252852D054D820287AD02338D0F1000B8E
:100618004BEB000B74E04C382E2849D8DFE800F08B
:100628007048484848484848484848484B48484817
:10063800484848484859484B4B595959704B6D4898
:100648007048184B184848827F4B48484B487F00F1
:1006580000204FF0000B4FF0040A38E02A38C0B2EF
:10066800012202FA00F010EA0E0F49D110F0625C84
:100678002FD110EA020B43D06046013C5444B4FB2E
:10068800FAF40AFB04F4002D61D0A3EB050CA44492
:10069800B4453FF66BAF002868D1042B47D158F812
:1006A800043B2360043404232AE0019A013A0192AE
:1006B8004FF0000B24E011F8010C6C2834D111F82C
:1006C800023C00206C2B8346C5D14FF0080A5346E4
:1006D800D3E708F1070828F007080734F8E802AB61
:1006E80024F0070435B106982044B0423FF63EAFE7
:1006F800C4E900AB08344FF0000B4FF0080A53462A
:1007080011F8010F002878D0BBF1000F7FF470AF0B
:100718002528F5D1019B013301934FF0010B4FF0D0
:10072800040AECE7584694E700208346A5E7082B1F
:1007380002D06FF015001BE708F1070828F007083A
:10074800F8E80223C4E9002308340823D8E768B985
:10075800042B02D108F10408A4E7082BE9D108F119
:10076800070828F0070808F10808EDE7059A013A94
:10077800059258F8042B009210E7039A900720D5A9
:10078800A4EB050E4FEA9E004FF0010CBEF5007F6A
:10079800CFD20F2FCDD8F5B107F140020DEB020EE5
:1007A800C0B2019A0EF8200C0EF8102CBCF1000F04
:1007B8003FF41AAF60F07F000EF8200C09F1010930
:1007C8000137C5F10802043406924FF6DA7E97E73E
:1007D8004FF0000CDAE7BCF1000F01D00136EFE76B
:1007E800029802360028EBD10098CDE90631FFF7D0
:1007F800E1FCDDE906310644E2E7631BB3F5806FEF
:1008080097D23DB9A6F10804E018B1E6D85F000810
:100818004C730008029A28609B082B709DF81030D2
:10082800C2B1EB7085F80290B9F1000F05D008A8A5
:100838000022C5F1010C97420ED1C5F101030DF15B
:1008480020084FF0000A01930DF1300B574512D1E3
:10085800601B8DE66B70E5E710F8013B190608D5BB
:100868000CEB040EB64503F07F033FF67FAE04F8A9
:10087800013B0132DFE7B9F1000F03D098F90020FE
:10088800002A17DB029BD3B11AF80B2004F8012BBE
:100898000022019B18191044B0423FF667AE98F841
:1008A800000004F8010B00990392204605F004FBB0
:1008B800039A14440AF1010A08F10108C6E798F8F6
:1008C800002055F822300093029B45F8223000980A
:1008D800FFF770FC421CDCE76FF00D0048E600BF34
:1008E8002DE9F04F97B000AF90F802A0D7F880B08C
:1008F8003B62CBF3C0030446FA62BB61894641B947
:10090800457800780AEB800020444D4517D8A0EBC5
:100918000409E378FB61BAF1000F02D01BF0010F64
:1009280016D1FB6953BBFB6A1BB13A6A494620469C
:1009380098474D4628465C37BD46BDE8F08F461CB3
:100948003046FFF737FC0130304409F10109DCE794
:10095800237862687A62FA6A9900796104EB830104
:10096800002A40F000814D460E4601EB0A094FF07F
:1009780000084E454CD101EB0A0610E01BF0020FAF
:10098800D1D023789A007A6162687A62FA6A04EBB5
:100998008301002A77D14D4601EB0A0690461BF0E9
:1009A800050F0CBF02230123FB62FB6906EB430A18
:1009B8000BF00203BB625645BCD016F8021B16F8B2
:1009C800013C54F82390994B994502D3984B99458B
:1009D80036D3BB69002B40D0786A04F0AEF8002803
:1009E8003BD0E9468AB06A46924B53617B6AC2E9BA
:1009F80006314FF4007313848F4B42F8103F8F4831
:100A080000234FF4125100F07DFC023DCD46D2E7A1
:100A180016F8013BF96254F82300FFF7CBFBD7F82F
:100A28008430F96A01304BB1D7F8883098453EBF19
:100A3800D7F8843023F8180008F10108054498E72E
:100A4800BB6923B1786A04F078F80028C9D11BF093
:100A5800010F05D1FB6AED1AADE7BB6A002BAAD0DE
:100A68004846FFF7A7FBD7F8843053B1D7F888304A
:100A780098453FBFD7F88420431C22F8183008F166
:100A88000108054497E7BAF1000F72D01BF004067D
:100A980072D0D046002607F1480052463B61B96241
:100AA80005F00AFAB96A3B6901EB0A02BA62FA6907
:100AB800F9695200FA60BA6A02EB41023A610BF036
:100AC8000202BA603A69B96A8A4257D162787A6290
:100AD8001BF0020F32440CBF4FEA580100211BF0F3
:100AE800010FD2B240F09F801BF0040F14BF4046A4
:100AF8000020BB616270A070E1703A6A7969FB6A94
:100B080020469847051EFFF615AFBB6923707B6A20
:100B18006370FB69E37041463A6AFB6A84F802A095
:100B280007F148009847B0F10008C0F2BB807B6924
:100B38003A6AA9EB0A01C91AFB68C91AD7E90A0374
:100B480098470028C0F2B080A84408EB00054FF091
:100B5800000B07F1380AB34572D300213A6AFB6AE1
:100B680008469847E6E656464FF0000807F1380071
:100B780093E75646D04697E7B04695E7BA6A12F823
:100B8800021BBA6212F8015C284A54F82500904208
:100B980002D3274A90421ED3BA6932B1786A7B6081
:100BA80003F0CBFF7B6800288CD1BA6802BB08F140
:100BB800280207F1300C08F10100944407F15802AB
:100BC80052FA80F008F102080CF8101C5FFA88F855
:100BD80000F8105C76E7BA693AB1786A7B6003F08E
:100BE800ACFF7B6800287FF46DAF1BF0010F09D0C4
:100BF80006F1280207F13000711C161806F8205C6F
:100C0800CEB25FE71BF0040F3FF45CAF08F1280297
:100C180007F1300008F1010102EB000808F8105C48
:100C28005FFA81F84EE7002063E700BFD85F00084D
:100C38004C7300089068000804000001346500083F
:100C48001BF80A3087F8373054F82390D7F88430E7
:100C58002BB3D7F888309B4521D2D7F8843033F8A6
:100C68001B803A6AFB6A012107F137009847002880
:100C78001ADB0544B8F1000F06D14846FFF79AFA87
:100C880000F101081FFA88F83A6AFB6A41464846AB
:100C98009847002808DB05440BF1010B5BE74FF090
:100CA8000008DEE7454645E6054643E6014B186081
:100CB800704700BF0000002080B505460E46174665
:100CC800984603F0B7F8034605F078F9DFF818906E
:100CD800044649F80030424630463946A84754F899
:100CE800090001F0BBF800BF08000000034A536880
:100CF80023F0020353600020704700BF002004E087
:100D0800EFF31180102383F31288BFF36F8F094B21
:100D18001A683AB9084A116841F48071116011687B
:100D2800C905FCD51A6801321A6080F31188BFF32F
:100D38006F8F7047480700200070004038B5EFF308
:100D48001185102383F31288BFF36F8F0E4B1A6837
:100D580072B90E4C237833B90D4A0E48022104F0BB
:100D680035FA0123237085F31188BFF36F8F38BDDF
:100D7800012A01BF08490A6822F480720A601A68C9
:100D8800013A1A60EFE700BF480700200009002079
:100D9800446900087C65000800700040084B1A6828
:100DA80042F400721A601A6842F480621A601A6883
:100DB80042F480721A60034B034A1A60704700BFFE
:100DC800002002405000002000093D002DE9F047B6
:100DD800DFF85880044607464FF0010914B9384631
:100DE800BDE8F08794FAA4F5B5FA85F509FA05F394
:100DF8002E0108EB05156FEA030A24EA03042B7B8E
:100E0800002BEBD058F806301B694BB94644042236
:100E180073682846196807EA0A0704F067F9DDE7E6
:100E2800284698470028D9D1F0E700BF8C6500080C
:100E380030B51049104889B0002205F015F80F4D5B
:100E48000F4900220023CDE9062300240E23CDE913
:100E58000334CDE901440B4B00944FF4407228460B
:100E680002F060FD0849284604F0FBFE204609B060
:100E780030BD00BF950E000860050020D800002096
:100E880040090020B111000885690008014802F0F6
:100E98007FBC00BFC80000202DE9F04780462048ED
:100EA8000F4604F0FBF80646002832D000252846F5
:100EB800BDE8F087237B83B12368DB680BB120464C
:100EC8009847636883F8069023681B69CBB9636801
:100ED80004221968204604F009F9013610345445F3
:100EE800E8D3B8F1000FE2D0002DDFD02846FFF795
:100EF8006DFF0546002FF7D00021642004F047FF5E
:100F0800F2E7204698470028E1D009FA06F31D4386
:100F1800E3E7044CDFF810A005464FF00109DEE7CF
:100F28005C0700208C6500089C650008014B53F89D
:100F380020007047C865000808B5034608462BB16D
:100F4800044A136000F074FC002008BD6FF015001F
:100F5800FBE700BF0400002010B5044C237813B948
:100F6800034802F015FC0123237010BD010900207D
:100F7800C800002010B504460B4804F08FF85CB197
:100F8800BFF35B8F094B53E8001F013943E8001298
:100F9800002AF8D1BFF35B8F054804F071FF0548BC
:100FA800BDE8104002F0F4BB5407002058070020A9
:100FB80060050020C80000200020064BBFF35B8FAF
:100FC800014653E8000F43E80012002AF9D1BFF3A5
:100FD8005B8F70475407002070B5FFF7EDFF084C92
:100FE800084E0546B44200D370BD63685B792BB1E7
:100FF80023685B6813B12946204698471034F1E707
:101008008C6500089C65000810B5044C044920460E
:1010180003F0CAFE034B1C6010BD00BF8C0000200B
:10102800B46500084C0700200D4A0E48002310B58F
:1010380013700D4A13600D4A4FF47A711360FFF76D
:101048007BFFFFF7E1FF0A4B0A4918468B4200D3A2
:1010580010BD1A1A5C681211013222711033F5E7BB
:1010680002090020BF50000854070020580700203C
:101078008C6500089C650008014600220148002391
:1010880003F0B3BE8C000020014803F04CBF00BF42
:101098008C000020024B0146186803F098BF00BF7F
:1010A8004C070020014803F0CDBF00BF8C00002092
:1010B80070B5264B1878002846D0FFF7E5FF05469F
:1010C80000283ED1224B234C1B68002B12DD04F074
:1010D800C9FE0A220023FFF753F8D4E90032C01AE8
:1010E80040F2E93361EB0201984271F1000101D34A
:1010F800FFF772FFD4E9003213F57A7342F1000268
:10110800C4E90032BDE87040FFF7CCBF63685B7983
:1011180023B1236829461B68204698471034B442F7
:10112800F4D32846FFF7B6FFBFF35B8F0A4B53E8AB
:10113800001F013943E80012002AF8D1BFF35B8F82
:10114800C0E7064C064EEAE770BD00BF0109002063
:101158005407002058050020580700208C65000817
:101168009C65000870B50D4D297861B90120FFF71D
:1011780093FE0B4C0B4EB44206D3FFF799FF0028A1
:10118800FBD101232B7070BD63685B791BB12368A9
:1011980020469B6898471034EDE700BF02090020FD
:1011A8008C6500089C65000800212DE9F047084679
:1011B800FFF772FE044658B34FF4FA784FF000096F
:1011C80004F0FCFE1B4B1C4A1B58136033B11B4B2D
:1011D8001B68092B02DD1A4802F0DAFA194FDFF80A
:1011E80060A0002544B12046FFF7F0FD044618B979
:1011F8004FF0FF384FF0FF39FFF75AFF064628B97E
:10120800B5B942464B46504602F0F6FA3546E9E78C
:101218004FF0FF384FF0FF39D2E72B689B691BB1BD
:1012280000221146284698471035BD42F5D3E8E715
:10123800054DFAE708000000500700205807002075
:10124800C80000209C6500088C65000813B5184884
:1012580003F024FF174B1B7873B1EFF311841023AD
:1012680083F31288BFF36F8FFFF722FF84F311888F
:10127800BFF36F8F02B010BD0F4B1B68002BF9D066
:1012880050B900220023CDE900230C4842F2107225
:10129800002303F0D1F8EDE70928EBD1074804F063
:1012A800EFFD074802B0BDE8104002F071BA00BF78
:1012B8005807002002090020500700206005002080
:1012C800C800002010B5064B1B6804469847214605
:1012D800A060044803F008FEBDE81040FFF7B6BF61
:1012E800040000208C000020044A054B9B1AB1EB37
:1012F800D30F34BF52F8310000207047346500081E
:101308008C6500082DE9F04F8FB004AFC1F34A286F
:10131800B8600D4691467B600C0DB8F1000F63D0A4
:10132800002607F114034FF0040B4FF00A0AC7F820
:101338000C80C7E907667E620193CDF808B0CDF846
:1013480000A007F11C03F96832464846FFF7C8FABF
:10135800B0F5006F03461CD36C468AB0D9F8041068
:1013680004AB2648C3E9050140F2FF71D9611A466A
:101378004FF400711984224B42F8103F214833463C
:101388004FF41251FFF7BEFFA5462C37BD46BDE806
:10139800F08FC0F30A0804F11700184420F0070082
:1013A80080083B60FFF768FE68F35325044690B158
:1013B8003B68154AC7E9083600F1100107F1140324
:1013C800F961CDE900A3CDF808B0F96807F11C036D
:1013D8004846FFF785FA68F353257B68B9682A46BB
:1013E800204603F0A3FED0E704F1170020F0070021
:1013F8008008FFF741FE0446EDE700BF9A69000840
:10140800040000013C650008075100082DE9F04F71
:1014180087B0DDE91279DDE9105A04460391934655
:101428009846BFB1CDF800903B46524610210020A7
:10143800CDF81490FFF782F8B0F5006F06460AD38E
:10144800184A194840F2FF73022107B0BDE8F04F6F
:1014580003F0C5BE3E4605F11700304420F00700F2
:1014680004F007048008FFF707FE0BF0070BE40001
:1014780044EA8B1444EA462444EA0554054640B13C
:101488003FB1CDF800903B46524631461030FFF749
:1014980055F8039943462246284607B0BDE8F04F61
:1014A80003F044BED96900083C650008406820B1D3
:1014B800034BC01A40F3CF0070474FF0FF3070471E
:1014C800346500080EB403B503AB014653F8042B8A
:1014D8000448019300F0C8FF02B05DF804EB03B0C4
:1014E800704700BF31520008CA0605D48B064CBFAE
:1014F80002490349FFF7E6BF704700BF126A0008B8
:10150800116A00082DE9F04F89B09B46149B069399
:101518009DF84CA0159B0593169B179E04930446B3
:101528000D469046BAF1000F00F09D8006F48073D6
:10153800079303F0D9FD06F00209024600283ED0C1
:1015480091492046FFF7BEFF0746B9F1000F08D0C2
:1015580016F0440F35D18D492A462046FFF7B2FFD1
:10156800074406F0010353B1894B8A4953F82A20EE
:10157800894B2046002A08BF1A46FFF7A3FF06F446
:101588008073002B49D006F00803002B63D1B8F113
:10159800000F66D0814942462046FFF793FF054673
:1015A800069B3D44002B6DD1049B002B73D1F307A0
:1015B80000F1E48031462046FFF796FFD8E0074661
:1015C800C3E7774B18680028CAD0764B4FF47A796E
:1015D8001B68B5FBF3F54FF46163B5FBF0F100FB55
:1015E800115509FB05F54FF03C0CB1FBF3F203FB79
:1015F8001211B5FBF0FEB1FBFCF300FB1E550CFB12
:10160800131109FB05F50091B5FBF0F56649CDE925
:1016180001E52046FFF756FFA2E706F00803EBB105
:10162800624B634953F82A202046FFF74BFF0546D3
:10163800B8F1000F05D0594942462046FFF742FF4E
:101648000544BBF1000FABD05A495A462046FFF774
:1016580039FF0544A4E74FF0000BE1E706F0080561
:10166800E6E745469CE7BBF1010F069B06D1002B38
:1016780064D1049B002B7BD000250CE0002BF8D014
:101688004D485CE04D48069B4D49224603F024FA3C
:10169800049B002B68D0DFF82C81DFF82C91049F85
:1016A8003146102F204628BF1027FFF71DFF4FF0A7
:1016B800000B5D4545DC059B49461A782046FFF737
:1016C80001FF4FF0010B1BF0070F03D141462046E5
:1016D800FFF7F8FE5F453BD9059B494613F80B20F9
:1016E8002046FFF7EFFE0BF1010BBBF1100FEAD11B
:1016F800364920464FF0000BFFF7E4FE5A46059B9B
:101708009A5CA2F120015F2928BF2E223049204689
:10171800FFF7D8FE0BF1010BBBF1100F1DD01BF02A
:10172800070F03D141462046FFF7CCFE5F455A46D6
:10173800E5D841462046FFF7C5FEEBE71F4855466A
:10174800A1E741462046FFF7BDFE0BF1010BB0E7CC
:1017580020492046FFF7B6FEC5E7059B3B440593A5
:10176800049BDB1B04939AD1BAF1000F7FF41FAFDF
:10177800204609B0BDE8F04F03F049BD064A0549C7
:101788002046FFF79FFE15E7196A00081D6A000842
:10179800D86500087E680008146A0008426A0008D4
:1017A8006407002060070020266A0008EC6500082E
:1017B800466A00084C6A000867520008315200085F
:1017C80071240008596A0008516A00085B6A000819
:1017D8005D6A0008576A000873B542F20F738B42BE
:1017E80028BF0B4605680F4A04460521684602F0E3
:1017F80061FE63680C495B6806460B22284603F0C5
:10180800F8FC63683246694628465B6803F0F1FCD9
:10181800636806495B681B22284603F0EAFC02B0AD
:1018280070BD00BF6D6B00087C6A0008606A000824
:10183800074A00210123904206D8064A01B901232C
:101848001360054B1860704740085B000121F2E700
:1018580040420F006007002064070020F8B5074FDA
:101868000D4604464618B44201D12846F8BD14F87E
:10187800011BBB6801485B689847F4E7E86100080A
:10188800014B036000207047346600082DE9F047DB
:10189800064600AF0C46002936D0E9468AB0D1E9A1
:1018A8000012A3686D462148A8464FF0050AC5E90D
:1018B8000501C5E9072348F810AF1D484246002333
:1018C8004FF42151FFF71EFDCD46D4E90312636999
:1018D800AD461848C5F810A0C5E90501C5E90723B4
:1018E8001348002342464FF42151FFF70BFDCD4624
:1018F800E369114A0E48012103F071FCA3690F4AFC
:101908000B48012103F06BFC012E07D1EFF305838F
:101918000B4A0748103B314603F061FC214630462C
:1019280001F09CFDBD46BDE8F08700BFC26A000813
:1019380064650008F16A0008206B00082F6B000836
:101948005D6B000830BFFFF7FDBF00BF2DE9F04118
:101958000B4EDFF8308006EB0807CC1B05463246F5
:101968000949204604F0A8FAA01942460021083C7B
:1019780004F0B0FA2C6707F10800BDE8F08100BF59
:1019880000000000040000009C650008054B5A692F
:101998009B689A421FBF044A536843F080535360C0
:1019A800704700BFD408002000ED00E070B5294C56
:1019B80006460D462848294903F0D8FCA36AD904ED
:1019C8003CD52548264903F0D1FC1720A36A1A05FF
:1019D80004D52148234903F0C9FC18201D4CA36AEB
:1019E8009B0512D51C48204903F0C0FCA36BA26AD2
:1019F800100409D51D4A1848012103F0F0FB1EB157
:101A0800A36A23F40043A3621920124CA36A590560
:101A180004D51148164903F0A9FC1A20A36ADA056F
:101A28000ED50D48134903F0A1FC1B20094A936AFF
:101A380043F47F43936200232B7070BD1620C5E7E3
:101A4800A36A9B04F2D504480B4903F08FFC1C20C1
:101A5800ECE700BF00ED00E064650008706B00086B
:101A6800866B0008976B0008AA6B0008C36B000818
:101A7800D86B0008F36B00080B6C000810B5204CFD
:101A88002049214803F072FCA36A990136D51E4803
:101A98001E4903F06BFC1E20A36ADA0104D51A481C
:101AA8001B4903F063FC1F20154CA36A1B0304D5D4
:101AB8001548184903F05AFC2120A36A590304D594
:101AC8001148154903F052FC22200D4CA36A9A03D1
:101AD80004D50D48114903F049FC2320A36ADB0310
:101AE80004D509480E4903F041FC2420044A936AAE
:101AF8006FEA03436FEA1343936210BD1D20CBE7DF
:101B080000ED00E03A6C000864650008526C0008BB
:101B1800656C00087F6C00089D6C0008C26C0008AA
:101B2800DC6C00082DE9F843364D80468946364876
:101B38003649174603F01AFCAB6ADE0627D5344946
:101B4800314803F013FC1124AB6A1D0704D5314951
:101B58002D4803F00BFC12242A4DAB6A980718D5C0
:101B68002D49294803F002FC6E6BAB6A190646D56D
:101B78002A4A25483346012103F031FBB9F1000F09
:101B880003D0AB6A23F08003AB62132403E0102474
:101B9800DAE76FF015061B4DAB6ADA0704D5204962
:101BA800194803F0E3FB1424AB6A9B0604D51D49CE
:101BB800154803F0DBFB1524124B9A6AD50602D4AC
:101BC8009A6A90070AD55B68190507D541463046D9
:101BD80000F008FA10B180F309880224094B9A6AC8
:101BE800920642BF5A6A22F400525A629A6A42F036
:101BF800FF029A6200233B702046BDE8F8836FF02D
:101C08001506C2E700ED00E064650008076D0008EE
:101C18001D6D0008976B0008506D0008686D00087E
:101C28007E6D00080B6C00082DE9F041664B8AB008
:101C3800D3F8048000AF0446C8F30805002686F3ED
:101C48001188BFF36F8F02F07F43B3F17F4F07D145
:101C580002F00C03082B12D15C495D4803F086FBA7
:101C6800002634460023FB71EB1E092B00F28A8004
:101C7800DFE803F00A80837C8888888888861007D4
:101C88004CBF0C460126EDE7524951484E4D03F032
:101C98006DFB0023FB71EB6A9A0705D54E494C484A
:101CA80003F064FB002332E0EB6A002B01DA4B49B6
:101CB800F5E7EB6A5B00F5D54949454803F056FB63
:101CC8006B69A26943F480736B61BFF34F8FBFF3F5
:101CD8006F8F6B6932F8022C23F480736B61BFF34A
:101CE8004F8FBFF36F8F4DF602739A4208D0AB6ADD
:101CF800DBB273B3FA1D01212046FFF713FF37E06B
:101D08002368384A3248012103F069FA2368FA79CE
:101D1800DAB907F1080504F1200C206861682A4641
:101D280003C2083464451546F7D17A6A002E45D0B7
:101D3800C2F3080121B96FEA52226FEA42227A629D
:101D480007F108011846FFF7A1FD2837BD46BDE891
:101D5800F081AB6A13F47F4F04D0F91D0120FFF71F
:101D680025FE05E0AB6AB3F5803F9BD3FFF786FEFF
:101D78000346CCE7FA1D0021BEE7F91D0020EEE777
:101D880019498CE7194A1A4B18F4F87FE8468AB0C3
:101D980018BF13466A461749C2E905134FF4007382
:101DA8001384103D144BD56142F8103F08480023B6
:101DB8004FF41151FFF7A6FAC54673E722F4FF72F4
:101DC80022F00102BBE700BF00ED00E0CB6D000888
:101DD80064650008F66D00080D6E00082E6E000898
:101DE8003C6E00085B6E0008776E0008B26D000854
:101DF8009D6D00089B6E000804000001044B5A69A1
:101E080042F010025A615A6922F008025A6170477A
:101E180000ED00E0EFF30880EFF3098101B57246A9
:101E2800FFF702FF01BD00BF0A4880F308881020B1
:101E380080F3118808484FF40461401880F309883A
:101E4800EFF314800221084380F31488BFF36F8FE7
:101E580000F090F8401A0020800C0020084B9B6886
:101E680083420BD1EFF3058343B1064B5A6842F026
:101E780080525A605A6A22F400425A6201F0E0BF66
:101E8800D408002000ED00E014498A684FF03000C3
:101E98001044EFF3098C80E8F01F102080F31288BB
:101EA800BFF36F8F0E4F4FF000664A698A603E603D
:101EB800106F0C4C2060506F0023536780F311881B
:101EC80004B5104600F0F2F8BDE8044002F1300015
:101ED80090E8F01F8CF3098870470000D4080020B0
:101EE80004ED00E08C0700201EF0040F0CBFEFF398
:101EF8000880EFF30980816911F8021C0229FFD0DC
:101F080001B5724603F027FA01BD00BF40B20028B0
:101F180007DB044A4109012300F01F00834042F80F
:101F28002130704700E100E040B20028A8BF00F16E
:101F3800604001F10101B8BF064B4FEA0111ACBF87
:101F480000F5614000F00F00C9B2B4BF195480F821
:101F58000013704714ED00E0044B054A23F07F039B
:101F68009360BFF34F8FBFF36F8F70470000000877
:101F780000ED00E008B5FFF7EFFF0B4AD2F8883014
:101F880023F47003C2F88830EFF3148323F00403BA
:101F980083F31488BFF36F8F01F04CFB02F072F8E3
:101FA80000F05AF801F08AFB00ED00E042F8203C0E
:101FB800009B42F81C3C0A49019B42F8183C029BD2
:101FC80042F8143C21F001014FF0807342F8043CC0
:101FD80042F8081C0023203A02654367704700BF97
:101FE800C10C0008094A0346906870B113F1160F36
:101FF800006E05D0A0F140029A4205D8834203D270
:10200800814228BF0020704700207047D408002074
:1020180008B515460B4A0C4B9060026F1A600E46C5
:1020280000F044F82C4686F309880020034B9847B3
:102038002046002100220023014C20478553000838
:10204800C10C0008D40800208C070020014B102286
:102058001A61704700ED00E0044800231021C218FF
:102068000133522B82F80013F9D1704700E100E0E8
:1020780008B5EFF30583064A103B02EBC30152F89B
:10208800330049688847BDE80840FFF77FBC00BFB8
:1020980008620008024B034A0348012100F0ECB82B
:1020A800008001200000002034660008026E054B05
:1020B800403A1A60044A4021C3E901121846012136
:1020C80000F0E4B89007002000000B1598B5134AFB
:1020D800C2F898000B6823F01F03034343F0100372
:1020E800C2F89C308B6843F0010300AFC2F8A030FF
:1020F8008AB00C688B686A46094951610949C2E986
:1021080008430623C2E9061042F8103F0648002398
:102118004FF44451FFF7F6F8BD4698BD00ED00E0D6
:10212800B26E0008886F000854650008F8B5164AB2
:10213800D2F89020C2F30722013A904200AF03463A
:102148000D4609D9114A1248012103F048F86FF0E9
:1021580015042046BD46F8BD6E4688B004466A465A
:102168000C4B53610C4BC2E90630042342F8103F74
:10217800074800234FF40451FFF7C4F82946B54631
:102188002046FFF7A3FFE4E700ED00E0C96E000872
:1021980054650008EF6E0008946F00082DE9F04FB1
:1021A800DFF898A0DFF898B087B0054600AF8846FA
:1021B800994610460026464510DA6B68002B3AD03F
:1021C800B9F1000F13D05A1E13420BD01D4A1E48F6
:1021D8003346012103F003F86FF015001C37BD46A4
:1021E800BDE8F08F1F2BF1D92B681A42EED1C7F842
:1021F80004D088B06A460423C4B2C2E905ABD461EE
:1022080042F8103F104800234FF40451FFF77AF8C2
:102218002B68D7F804D0FB60D5E9010303F0C2F8B6
:1022280007F10C01034320467B61FFF77FFF10F1A4
:10223800160FD1D0013001360C35BCE7376F0008D6
:10224800AD6F0008146F000854650008044B0522A0
:10225800C3F89420BFF34F8FBFF36F8F704700BF51
:1022680000ED00E0BFF35F8F024B0022C3F894201B
:10227800704700BF00ED00E010B5034C0123227841
:10228800FFF78CFF207010BD0409002008B50B4A29
:1022980000231278FFF782FF10F1160F07D0084AC3
:1022A8000021D2F89030C3F30723984200DB08BD21
:1022B800C2F89800C2F8A0100130F2E70409002023
:1022C80000ED00E02DE9F0475E4A5F4E84B0D2F899
:1022D80090303568C3F307239D4200AF00F2AE800B
:1022E8006C4688B0D2F890306A4658495161C3F3B9
:1022F8000723D36156499161042342F8103F002314
:1023080054484FF40451FEF7FDFFA546FFF7AAFF16
:1023180000244FF00C08AC421BD34F4CDFF83C8133
:1023280025703846FFF7ACFADFF83491DFF834A1AE
:1023380006460025AE4214D1237842490020D1F840
:102348009020C2F30722934272DBFFF77FFF002041
:1023580042E07168204608FB0411FFF7B7FE01341C
:10236800D9E7386800EB05114FEA051CCB6803EA8A
:102378000803B3F5000F45D00AD8B3F5001F2FD0D6
:10238800B3F5800F35D0B3F5801F10D00135D1E7F4
:10239800B3F1807F3FD0B3F1007FF7D150F80C3014
:1023A80088684A6802F0FEFF40F4802009E050F88F
:1023B8000C3088684A6802F0F5FF40F0885040F415
:1023C8003020F860391D2078C7E90123FFF7AEFEF9
:1023D800002829DA6FF015001037BD46BDE8F087F0
:1023E80050F80C3088684A6802F0DCFF40EA0900BF
:1023F800E7E750F80C3088684A6802F0D3FF40EAF3
:102408000A00DEE750F80C3088684A6802F0CAFF14
:1024180040F08270D5E750F80C3088684A6802F0BE
:10242800C1FF40F08870CCE7237801332370ADE713
:10243800C1F89830C1F8A000013380E74FF0FF30B1
:10244800CAE700BF00ED00E0406600085E6F0008C4
:10245800796F000854650008040900200000F0FFA7
:102468000000081100000206F0B587B007460E46C6
:1024780014460021102268461D4603F02BFD022356
:102488008DF802302A46054B019321466846CDE96E
:10249800047602F039F807B0F0BD00BFCD5300084C
:1024A80008B5024B1B689847002008BD9C07002010
:1024B800034B044A1860937843F002039370704703
:1024C8009C0700201000002008B50649064821F0A6
:1024D8000701C1F1005202F5C03202F0C0FA002033
:1024E80008BD00BF871A0020A00700202DE9F04191
:1024F8000F4E104F054600244FF001082A78131993
:10250800DBB208FA03F0736930EA030309D152FA1F
:1025180084F3706157F833201AB107EBC303596885
:1025280090476A780134E3B29A42E7D2BDE8F08175
:1025380000040140AC070020044B18440023013379
:10254800994200F8012BFADC704700BF60000020B8
:1025580007B5062201210020FFF7EEFF00221146F1
:102568000620FFF7E1FC012108460722FFF7E4FFF8
:10257800002211460720FFF7D7FC0822012102207C
:10258800FFF7DAFF002211460820FFF7CDFC0922E9
:1025980001210320FFF7D0FF002211460920FFF791
:1025A800C3FC0A2201210420FFF7C6FF00221146BE
:1025B8000A20FFF7B9FC052108461722FFF7BCFFE0
:1025C800002211461720FFF7AFFC282206210A2017
:1025D800FFF7B2FF002211462820FFF7A5FC0123D0
:1025E80007486022CDE9002383681B6823B1694648
:1025F800984703B05DF804FB6FF05700F9E700BF98
:1026080068600008034660B1B0FA80F2C2F11F02A8
:10261800D2B205498856054A11680B431360FFF783
:1026280075BCFF22F5E700BF6000002000040140F0
:10263800024A136823EA000313607047000401404C
:10264800032921D8DFE801F0020C10190F4B9A6812
:1026580022EA00029A60DA6822EA0002DA60704729
:102668000A4B9A680243F5E7084BDA680243DA60D6
:102678009A6822EA00029A607047044B9A680243FB
:102688009A60DA681043D860704700BF00040140C0
:1026980030B5B0B1B0FA80F3C3F11F03DBB20B4819
:1026A80050F833408C4204D100EBC3056D68954265
:1026B80005D044B940F8331000EBC3004260002055
:1026C80030BDFF23EBE76FF00F00F9E7AC07002000
:1026D80060B1B0FA80F3C3F11F03DBB2044A0021F2
:1026E80042F8331002EBC30251607047FF23F5E74D
:1026F800AC07002000F00302043292000F2393403D
:1027080043EA900000F003030233064A52F82320FC
:10271800030C02EA104093FAA3F3B3FA83F3D84008
:10272800704700BF00000140024B1868C0F38020CA
:10273800704700BF0010024038B50888314B144676
:10274800C0F30B02072A1B680D4602D00A2A20D8BC
:1027580012B96FF085002CE0501E0928F9D801A2A3
:1027680052F820F0AF270008F9270008952700083D
:10277800E52700085B270008E92700085B27000811
:10278800BD270008CD270008D92700084FF4FA43D1
:1027980009E002F6B870C0F30B001828D9D81A4A15
:1027A800C240D207D5D523602A68B2F5805F22D20D
:1027B800002038BD00F0F0F8142343430722B3FB90
:1027C800F2F3F0E700F0E8F8142343435B08EAE784
:1027D80000F0E2F8142343439B08E4E70B4BE2E7DD
:1027E8000B4B0C4A1B68C3F3031352F82330DAE788
:1027F8004FF40043D7E7C2F313320132B3FBF2F3CD
:102808002360D5E750000020110111010024F400D5
:1028180000100240E8670008F8B55B4F5B4C00F019
:10282800D1F8384602F084FE00F066FDA368584AE5
:10283800C3F303131578D35C47FA05F520FA03F6BA
:10284800AE4202D2284600F0A5FDFFF76DFF012831
:1028580007D0236843F480732360FFF765FF0128DE
:10286800FBD1236843F008032360236823F0F003B7
:1028780043F0B0032360236843F0040323606368D4
:1028880023F47F43636023689A0706D4236843F0E0
:102898000103236023689B07FCD5D4F8943043F0E8
:1028A8000103C4F89430D4F894309807FBD5FEF7A8
:1028B80027FAD4F8903043F00103C4F89030D4F8E4
:1028C80090309907FBD5FEF739FAA36803F00C039B
:1028D8000C2B1AD1FFF728FF012807D0236843F4EF
:1028E80080732360FFF720FF0128FBD1A36823F042
:1028F800030343F00103A360A36803F00C03042B54
:10290800FAD1A36823F0F003A360236823F080734F
:10291800236023689A01FCD4E36823F40033E3605E
:10292800E36843F48033E360E36823F4C003E360BF
:10293800E36843F48013E36000F032F8236843F05F
:102948008073236023689B01FCD5A36823F0F00300
:10295800A360A36843F00303A360A36803F00C0318
:102968000C2BFAD1AE4202D3284600F013FD094BD6
:102978001F60A36823F4E063A360A36823F4605393
:10298800A3600020F8BD00BF00B4C40400100240DA
:102998006071000850000020004870470024F400CF
:1029A800054B0649DA681140054A0A43DA60DA68D5
:1029B80042F08072DA607047001002408C80FFF9A4
:1029C80002140002064B9A6D42F080529A659B6D84
:1029D80082B003F080530193019B02B0704700BF9F
:1029E8000010024008B5074803F0F0F838B106486F
:1029F800FFF75EFD0448FEF759F9002008BD6FF0A7
:102A08001200FBE7E8610008152A00080A2838B513
:102A1800074D044604D1AB680D215B6828469847EA
:102A2800AB6803485B68E1B29847204638BD00BFF1
:102A3800E86100082DE9F843D0F80480D0F8109038
:102A4800D8F8080017460D461E4602F0C6FCB7F532
:102A5800001F044616D12846D8F80840FFF74AFE5A
:102A680084420CD1294602F0B8FC0446FFF7E0FD89
:102A78002046FFF72DFE00212046FFF7E1FD00204C
:102A8800BDE8F883B7F5800F20D0B6F1806F19D074
:102A9800B6F1C06F18D0B6F1007F1AD102261049DE
:102AA8004A462046FFF7F4FDB0B9D8F80810284682
:102AB80002F096FC20463146FFF7C2FD2046FFF79C
:102AC800A1FDDCE70126EAE70326E8E76FF08500C9
:102AD800D6E76FF01500D3E76FF00F00D0E700BF1F
:102AE800B757000838B50369044658600C4D2846A6
:102AF80003F06CF888B10B4A536843F400735360D1
:102B0800AB6861681B680C3123B12846984700EA16
:102B1800E07038BD6FF05700F9E76FF01200F8E782
:102B280068600008007000402DE9F0471E4F044619
:102B380000EBC1060025B44201D1002014E0206852
:102B4800C30600F01F0911D4656845F02005C0F3DD
:102B5800481AC0F34420102823D857F82080B8F129
:102B6800000F0DD16FF01200BDE8F087B9F1100F1A
:102B780004D0B9F1110FEAD16568E8E73025E6E736
:102B8800404603F023F80028ECD04B462A460AF0CA
:102B98000F01404602F021FE002804F10804CADAB9
:102BA800E2E76FF01500DFE70067000843681B687D
:102BB80003F1080252E8002F42F0010203F1080075
:102BC80040E800210029F3D10F4A93420FD0A2F523
:102BD800744293420BD002F58062934207D002F50B
:102BE8008062934203D002F58062934203D15A680F
:102BF80042F040025A6053E8002F42F4807243E8E2
:102C080000210029F7D170470038014043681B684C
:102C180003F1080252E8002F22F0010203F1080034
:102C280040E800210029F3D10F4A93420FD0A2F5C2
:102C3800744293420BD002F58062934207D002F5AA
:102C48008062934203D002F58062934203D15A68AE
:102C580022F040025A6053E8002F22F4807243E8C1
:102C680000210029F7D1704700380140024A034883
:102C7800012102F0ABBA00BF8B7000088465000820
:102C8800F8B503690C465D6823794168012B16D0B5
:102C98009F1E7E427E41B6026279022A9CBF454F42
:102CA80037F81270A27988BF4FF40057022A09D06A
:102CB800042A2FD0003B18BF01231B0306E04FF462
:102CC800C066E9E7B3FA83F35B091B07E279096891
:102CD800012A14BF4FF0000C4FF4407CA5421CD1D0
:102CE8000A6822F0805222F4B05232431A430A6032
:102CF8004B6823F440533B434B6043681A6893681E
:102D080023F4407343EA0C0393602968BDE8F84054
:102D180002F0B2BE4FF48053D8E7D1F800E00EF4C9
:102D2800C06E76451FBFD1F800E02EF4C06E4EEAA3
:102D380006060E6041680E68716801F440518F42C2
:102D48001FBF716821F440513943716041680E68B2
:102D5800316801F010218B421FBF316821F010212A
:102D68000B433360436819688B6803F440739C45D0
:102D78001FBF8B6823F4407343EA0C038B604368DE
:102D88001B689968490405D5032A09D09A6822F472
:102D9800804204E0032A03D19A6842F480429A6090
:102DA80021682B68994203D002F066FE23682B60E5
:102DB800F8BD00BF446800082DE9F04383B00469FA
:102DC800466805466B48206000AF02F0FFFE58B920
:102DD800694A6A48012102F0F9F96FF012042046A5
:102DE8000C37BD46BDE8F0832068F16883681B682E
:102DF8003BB9634A6148012102F0E8F96FF05704D2
:102E0800EDE79847044600BB306A3A1D002102F0FE
:102E1800F9FC041EE3DB7B68002219791868FFF7C8
:102E280083FE041EDBDBD5F804802B69D8F800404C
:102E3800D3F80490236823F001032360D8F8040032
:102E480002F0C4FE48B94F4AC3E74D4A4B48012136
:102E580002F0BCF9002CC2DBD6E7D8E9010183688F
:102E6800DB6803B1984754E8003F43F00C0344E89B
:102E78000032002AF7D149462846FFF701FF98F8A3
:102E880014301BB1A36843F00803A36098F8153009
:102E98001BB1636843F40043636098F816301BB1B4
:102EA800636843F48033636098F817301BB1636834
:102EB80043F40033636098F81830002B4AD0324B43
:102EC8009C422AD0A3F574439C4226D003F5806324
:102ED8009C4222D003F580639C421ED003F5806398
:102EE8009C421AD003F540539C4216D06C4688B0D9
:102EF8002B686A462549C2E905134FF4007393838A
:102F0800234B42F8103F1D4800234FF4E251FEF7CF
:102F1800F9F9A5466FF0150461E76B681A689368BC
:102F280043F480439360236898F8192023F078735A
:102F380043EA42532360236898F81A2023F4F813CD
:102F480043EA0243236098F81B301BB1A36843F49B
:102F58000043A360236843F001032360E3699A02F6
:102F6800FCD5E3695B02FCD5736A284698470024C0
:102F780035E700BF68600008B9700008846500087C
:102F8800D8700008F8700008003801401371000874
:102F980003000001F8B5436891F805E01C6803696F
:102FA800024608795D688B7901280E461CD1BEF16E
:102FB800020F68D9022B1F464FF4C0614FF4005C22
:102FC80079D0042B72D020B1C31E012B70D94FF4D5
:102FD8008050BCF5805F78D0BCF5405F77D0BCF1FD
:102FE800000F1CD101231BE002280AD1BEF1020FF9
:102FF80055D9022B1F464FF480610BD04FF4005C6B
:10300800DFE7BEF1020F4DD9022B1F464CD1002835
:1030180057D00021C31E012B4AD9002002270323C1
:10302800734545D102F039FCB84241D1F379C3B1B7
:10303800012B4ED1284B9C4213D0A3F574439C42DC
:103048000FD003F580639C420BD003F580639C424C
:1030580007D003F580639C4203D003F540539C429C
:1030680026D1236823F00103236031461046FFF779
:1030780007FE236843F00103236096E8030085E810
:1030880003000020F8BD4FF4C061144F022B37F83D
:103098001EC01F4695D170B94FF0805099E74FF484
:1030A8008061F2E70021F0E70021A7E700288ED031
:1030B8006FF08500E6E7C31E012BF9D9022700202F
:1030C80087E701464FF08050A9E70023A8E70223CD
:1030D800A6E7032BAED0EBE70038014044680008B0
:1030E80010B54FF0E0230F499C691A6908689B697D
:1030F8000D4902F4803234B993B903464AB90A68D3
:103108001044C01A10BD002B08BF03460AB9A342D9
:10311800F5D90A6802440A604FF0E0221269EEE726
:103128000446F3E7D0080020CC0800200A4B102200
:1031380083F82320094B4FF4FA521A60084B0020F9
:1031480018604FF0E02341F63F725A6198611A699E
:1031580042F007021A61704700ED00E0D008002035
:10316800CC080020684620F007018D4619B5FFF706
:10317800B7FF114B1149D3E900420868001942F121
:103188000002C3E900020E4A00230B60D2E90041A5
:103198004FF4FA53001BB0FBF3F043431B1941F102
:1031A8000001C2E9003101F047F8FEF7EFFBBDE886
:1031B80019408546704700BFA0050020CC080020B4
:1031C800980500202DE9F041DFF8DC8099B1421C18
:1031D8000BD14FF0E022136923F0010313614FF084
:1031E8007F43C8F80030BDE8F081D8F800600128B6
:1031F80007DC00270BE0431CD8F80060F7D14FF438
:10320800036040F631039842A8BF1846471EEFF303
:103218001185102383F31288BFF36F8FFFF760FFC8
:10322800224C4FF0E0239969D4E90023801843F138
:103238000003C4E900031E4B00221A601D4B1A68E4
:10324800831A2ED44FF4FA5C0CFB073303F5F953B9
:103258001F33B3FBFCF7131A0CFB0733B3F5806F6E
:10326800154A38BF4FF48063934228BF13464FF086
:10327800E022C8F80030013B906953610023936154
:103288008142A1EB0003D4E9001238BF9B195B18F7
:1032980042F10002C4E9003285F31188BFF36F8F51
:1032A800A1E74FF48063E2E7D0080020A0050020E2
:1032B800CC0800209805002000DCFF0038B5EFF3AB
:1032C8001185102383F31288BFF36F8F084B1C6896
:1032D800084B1B68E41AFFF703FF85F31188BFF357
:1032E8006F8F4FF4FA532044B0FBF3F038BD00BFA2
:1032F800A005002098050020224B9A68D96812F092
:103308000C0205D00C2A15D101F00301012918D1AE
:1033180019681D48090755BFD3F894101968C1F3F7
:103328000321C1F3031150F8210012B10C2A09D06E
:1033380000207047042A22D0082A144818BF002009
:1033480070470020DA6802F00302022A15D00F49FC
:10335800032A08BF0846D968DA68C2F3062242433E
:10336800D868C0F34160C1F3021101300131400057
:10337800B2FBF1F2B2FBF0F070470548EBE7044806
:10338800704700BF00100240E867000800127A008A
:103398000024F4001F4B421E9A4201D901207047B5
:1033A8001D4B1B6803F4C063B3F5007F0FD11B4BA3
:1033B80098421AD81A4B984227D81A4B984226D8BE
:1033C800194B984294BF00230123002011E0174BAA
:1033D80098420CD8A3F5F403A3F59053984214D857
:1033E800134B984213D8134BEBE70423EDE7002364
:1033F800012011490A6822F007021A430A600A6884
:1034080002F007029342C9D170470323DDE7022384
:10341800DBE700BFFFB3C404007000400090D00396
:10342800006CDC020048E8010024F40080BA8C013A
:10343800001BB700808D5B000020024010B50446D9
:10344800FDF790FE0348044A012101F0BFFE204623
:1034580002F0C7FB64650008707100082DE9F843A5
:10346800044600AF0D46EFF31188102383F312884A
:10347800BFF36F8F0428294A98BF294B9668117C9F
:1034880094BF53F82030274BE9468AB06A4626484D
:10349800C2E9073140F201339384244BC2E90504A1
:1034A80042F8103F224800234FF43151FDF72AFF1C
:1034B800CD4645B1EB69C3F3080323B11D4A1C4847
:1034C800012101F083FE2EB1304602F0CDFB08B198
:1034D800037803B91848E9468AB06A46174BD061A1
:1034E800C2E9053640F201331384154B42F8103F08
:1034F80000230F484FF41151FDF704FF2946CD462C
:103508002046FFF79BFF88F31188BFF36F8F304683
:10351800FEF7A4FCBD46BDE8F88300BFD408002030
:10352800186800087F7100089571000805000001FF
:1035380064650008BD7100088D710008DE7100081F
:103548000400000138B50A4B53F82040013053F805
:103558002050A54200D838BD606830B1037FDB0732
:1035680001D402F046FB0834F3E723689847FAE7EA
:103578002C68000870B52A4B2A4C2B4D012286B0C6
:1035880003201A70FFF7DEFF00F08EFF0420FFF71C
:10359800D9FF2646AE4204F1300410D300F01CFBDC
:1035A800204C224EAC4226D300F02AFBFCF75AFFEF
:1035B8001F4A137B23F00103137306B070BD54F840
:1035C8000C3C059354F8103C049354F8143C0393B2
:1035D80054F8183C029354F81C3C019354F8203CCE
:1035E800009354E90A2354E90C0100F02BF954F82C
:1035F800303C5E65CDE7D4E90A23B3F1FF3F08BF4D
:10360800B2F1FF3F05D052EA0301206803D100F070
:10361800EDFB3034C6E73146183000F07DFDF8E7A1
:10362800050900209864000898640008635D000894
:103638002806002008B50348034A0021121A02F0A0
:10364800EFFA08BDD80000200809002070B5002353
:1036580086B00122CDE90423134E144D01930F22A5
:10366800CDE902321249142303FB005506EBC016BC
:1036780004464FF4C07000FB04110E4B00954FF444
:10368800A072304600F0DEF8737B0B4AEE6023F040
:10369800040373734FF4046304FB033313442C745F
:1036A8006B6006B070BD00BFA8050020D4080020DC
:1036B800C0140020315C0008800C0020BFB5002039
:1036C800FFF740FF2A4B83F308882A4C2A4F636987
:1036D80043F4007363610025F02384F82230E57712
:1036E80025766576A57684F82050636A43F4E0234E
:1036F8006362FEF783FBFEF7A9FC4FF0FF33A3627A
:10370800E362FEF7DFFDFEF7C5FCFDF78DFC1B4805
:103718001B4C00F033F902F058FAFDF73FFB01208B
:10372800FFF710FF0220FFF70DFF00F0B9FA154B65
:1037380015495C61154B05930123CDE903534FF4FB
:1037480080623B46CDE901550095204600F07AF8A5
:10375800627B064622F004022046627302F0C0FA39
:103768002846FFF773FF3A4631462046FEF750FCDD
:10377800C014002000ED00E07D350008A8060020F8
:1037880028060020D4080020401600207C69000884
:1037980070B5EFF31186102383F31288BFF36F8F90
:1037A8000468A0421AD0CCB1D4E9003213605A6040
:1037B800637B002523F002036373C4E90055A56009
:1037C80004F1180002F022FB2046A56702F088FAEF
:1037D80031460848BDE8704000F0D8B9D0E9023257
:1037E8009A4218BF0133836086F31188BFF36F8F45
:1037F80070BD00BF0609002013B5EFF31181102436
:1038080084F31288BFF36F8F846844B1013C8460ED
:1038180081F31188BFF36F8F002002B010BD52EA08
:10382800030406D181F31188BFF36F8F6FF00F0087
:10383800F3E7CDE900230246014800F085F9ECE7FB
:10384800060900202DE9F04F85B004AF1E4600F1AF
:103858005803C0E91633BB6B03737B6B8373D31DAB
:1038680023F007037F3323F03F030D464FF0040C8A
:1038780000213F2BC0E906110446816080F80DC085
:10388800C17305F1400AA3F1400905D881F31188F5
:10389800BFF36F8F604602DFEB468EB005EB03087F
:1038A80004AA1C4951611C49C2F83080C2E9084386
:1038B8000923C2E90615C2E90AA942F8103F002304
:1038C80016484FF49241FDF71DFD4146DD4620465E
:1038D800FEF73CF807303B6B20F00700A066C4E910
:1038E80018A90293FB6A0193BB6A0093A8EB00082E
:1038F8003346424629462046FEF758FB00236365B7
:10390800074B9B6803B1DB6EE36640460437BD4650
:10391800BDE8F08F437200089472000864650008DF
:10392800D4080020F0B587B000250595109D0495B2
:103938000F9D03950E9D0295DDE912760D9D01956B
:103948000C9D00950446FFF77DFFB6F1FF3F08BFC9
:10395800B7F1FF3F05D056EA070305D1204600F02E
:1039680045FA204607B0F0BD3A46334604F1180040
:10397800014900F0D1FBF4E7635D000840F2011350
:1039880083810023C0E91833C366014B98607047F0
:10399800D4080020094A93686FF00A01996708491A
:1039A80058674B6843F080534B60002383F31188BA
:1039B800BFF36F8F9368986F704700BFD4080020DB
:1039C80000ED00E070B590F90D20437B002A36DB4E
:1039D800D90634D11B4C63F07F032246437352F857
:1039E800183FE169934207D1C0E900210860E0610E
:1039F80011E09942F8D01B68002BF5D090F90E50D1
:103A080093F90E60B542F4D0AE42F2DD5968C0E9D0
:103A1800003108605860A569954200D005B9E5688D
:103A2800A3685A7BD20604D1DA897F2A01D9AA6908
:103A380032B1AB4202D0284600F0CCFA656170BDC5
:103A48006361FCE7D408002038B590F90D20437B6A
:103A5800002A014604DA03F07F03437302F006F9F3
:103A68000D4D2A46AB6852F8184F944200D004B95D
:103A7800EC688B4207D05A7BD20604D1DA897F2AB8
:103A880001D9A2692AB1A34202D0204600F0A2FAC5
:103A980023466B6138BD00BFD4080020B3F1FF3F57
:103AA80008BFB2F1FF3F03D00249183000F034BB21
:103AB800704700BF635D000870B590F90D20437B27
:103AC800002A014604DA03F07F03437302F0CEF8BC
:103AD8004B7B1C4C63F07F0322464B7352F8183F14
:103AE800E069934207D1C1E900200160E16111E07A
:103AF8009842F8D01B68002BF5D091F90E5093F935
:103B08000E60B542F4D0AE42F2DD5868C1E900302B
:103B180001605960A569A368954200D005B9E568B8
:103B28008B4207D05A7BD20604D1DA897F2A01D981
:103B3800AA692AB1AB4202D0284600F04BFA2B46BC
:103B4800636170BDD4080020F8B50E4B0C461146D1
:103B58000D4A98681060DDE90667EFF311821022BC
:103B680082F31288BFF36F8F9D68284602F090F8A1
:103B7800284632463B46FFF791FF2046BDE8F8400D
:103B8800FFF708BFD4080020F408002049B9EFF374
:103B9800058030B9054B5A699B689A4201D0FFF7F6
:103BA800F9BE81F31188BFF36F8F7047D4080020E6
:103BB800034648B9EFF3058232B9064A516992685B
:103BC800914201D0FFF7E6BE83F31188BFF36F8FF0
:103BD800704700BFD4080020EFF31181102383F34E
:103BE8001288BFF36F8F054B9A68D37B013BD37361
:103BF80081F31188BFF36F8F704700BFD40800208E
:103C0800F8B500AFEFF31186102383F31288BFF3E2
:103C18006F8F1F4DAB68DA7B0132DA732A4652F890
:103C2800184F944200D004B9EC685A7BD20604D1EC
:103C3800DA897F2A01D9A2692AB1A34202D0204693
:103C480000F0C8F923466B6186F31188BFF36F8FC4
:103C5800AB686C468AB0D97B6A460E4850610E48FC
:103C68001162C2E90603052342F8103F0B480023FE
:103C78004FF42451FDF746FBA546EFF311801023BE
:103C880083F31288BFF36F8FFFF792FFBD46F8BD2D
:103C9800D4080020A7720008EF72000864650008C5
:103CA800024B03F11802C3E906227047D40800202A
:103CB80070B5EFF31186102383F31288BFF36F8F6B
:103CC8001B4CA168E0690B68814214BF1A460022A8
:103CD80049680B605960A368E1692AB9154AC3E9C4
:103CE80000210B60E3610CE093F90E0092F90E508D
:103CF800A84218D0854216DD5168C3E900210B603F
:103D08005360A5690B4B9D4200D005B9E568A368CF
:103D18009D4202D0284600F05DF965613046BDE855
:103D28007040FFF737BE8A42D8D01268D5E700BF87
:103D3800D4080020EC0800202DE9F041254D00AF03
:103D4800E8468AB0AB6804460E466A462249516185
:103D580022491062C2E90613052342F8103F0023E6
:103D68001F484FF42451FDF7CDFA56EA0403C5461F
:103D780005D1FFF79DFF0020BD46BDE8F081EFF3B8
:103D88001188102383F31288BFF36F8F154BA8682F
:103D98001860FFF759FEA8681349224633461830C1
:103DA80000F0BAF9AA68537B43F00403537304463E
:103DB8004046FFF7EFFDAB68D3E90A23B3F1004FA4
:103DC80008BF002AD7D102F049F8201A20EAE0708B
:103DD800D2E700BFD4080020C6720008E2720008CB
:103DE80064650008F4080020635D000838B50446DF
:103DF800EFF31185102383F31288BFF36F8F437B92
:103E08005B070FD5183002F001F8637B23F0040339
:103E180020466373FFF7D6FD29460548BDE83840BC
:103E2800FFF7B4BE85F31188BFF36F8F38BD00BFAD
:103E380006090020014B9868704700BFD40800208D
:103E48002DE9F8430446077BEFF31185102383F32C
:103E58001288BFF36F8F437B190705D585F3118847
:103E6800BFF36F8FBDE8F883D90943F008025AD130
:103E78004273A36813B1204601F000FF04F1180053
:103E880001F0C4FFA66D04F15808B04511D04FF0F9
:103E9800000976B1304601F0F1FE06F1180001F094
:103EA800B5FFC6F878903046FFF78CFDA66DB04593
:103EB800EFD1DFF8B880D8F808309C423BD1EFF357
:103EC8000589B9F1000918BF4FF00109D8F8186041
:103ED800274A964200D00EB9D8F80C60B34202D0F7
:103EE800304600F077F8C8F81460B9F1000F02D036
:103EF8002048FFF743FDD8F808309C4231D1EFF352
:103F0800058373BB227BD20718D42846FFF742FDEE
:103F1800FB07A7D5002383F31188BFF36F8F042312
:103F2800184602DF9EE703F07F0343F0080343735C
:103F380001F09CFE9DE74FF00009C7E785F3118863
:103F4800BFF36F8F83F31188BFF36F8F0423184675
:103F580002DFEFF31180102383F31288BFF36F8F12
:103F6800D4E785F31188BFF36F8FD1E7D408002019
:103F7800EC080020A8060020044BC01A044BC0100F
:103F88005843044B01221A54704700BF28070020E9
:103F9800ABAAAAAA06090020C3897F2B12D80A4B0C
:103FA8001B6863B1094B90F90E201B689A4209DB24
:103FB800437BDB0606D1064BC31A18BF012303F067
:103FC800010070470023FAE754000020F808002099
:103FD800A805002070B50E4B0E4C1E7C06EB460360
:103FE80004EBC3040546204601F010FF0A4B0022EB
:103FF80028469A55FFF7D0FF48B1084B08491A6878
:10400800013A2046D317BDE8704000F085B870BD6E
:10401800D4080020280700200609002054000020AA
:10402800813F000838B5EFF31185102383F3128818
:10403800BFF36F8F104B114A9C681068A04206D1DD
:10404800FFF7C8FF85F31188BFF36F8F38BD0021D4
:104058001B7C11600A4AD35C002BF3D02046FFF783
:104068009BFF0028EED0637BDB0602D12046FFF7DA
:1040780023FD2046E4E700BFD4080020F408002010
:10408800060900200748084A084908B5121A01F02D
:10409800C9FD0748074A0849BDE80840121A01F057
:1040A800C1BD00BF00000020D80000204C730008EC
:1040B80000000020000000204C730008024B186824
:1040C800984208BF0020704758000020034B1B6827
:1040D8000BB9FFF7F3B80020704700BFFC080020B9
:1040E80030B570B10B4B5B6898420AD0036843B196
:1040F800D3E90421D0E90445121941EB0501C3E9CC
:104108000421D0E9003213605A600023C0E900336B
:1041180030BD00BF58000020B3F1FF3F08BFB2F127
:10412800FF3F2DE9F84F0446994615461F467AD0B9
:104138008160EFF31188102383F31288BFF36F8F28
:10414800B9F1000FDFF8E4A020DBFFF7BFFFDAE9E1
:104158000027013549F100092D1849EBE073C4E93E
:104168000453AD18064643EB07074FF00109FFF764
:10417800A5FFDFF8BCE0DEF804A00346EBB9C4E90C
:1041880000EACAF80040CEF8044028E0DAE9001254
:104198006FF001035B1A4FF0FF3161EB02025B1B0A
:1041A80062EB0902012B72F10001BCBF012300225E
:1041B800C0E904324FF00009D9E7D3E9041CD4E977
:1041C80004208A4270EB0C0B24DA891A5A686CEBCB
:1041D8000000C3E90410C4E9003214605C60FFF712
:1041E8006DFF84420ED1134B1B685BB9B9F1000F08
:1041F80002D1FFF76BFF0646304601F0F0FD0021C3
:10420800FEF7E0FF88F31188BFF36F8F2846394621
:10421800BDE8F88F521A60EB0C009A45C4E90420F7
:10422800ADD01B68AAE700252F46EFE7400700201E
:1042380058000020FC0800202DE9F047EFF3118515
:10424800102383F31288BFF36F8FDFF8A490DFF891
:10425800A480C9F80000FFF731FF00260027D9F82D
:104268000030D8E900ECD91750B1D0E90442A34294
:1042780071EB020A1CDAE41A62EB0102C0E904429B
:1042880013EB0E034FF000044CEB01012046C8E984
:104298000031C9F8004001F0A2FD2146FEF792FF67
:1042A80085F31188BFF36F8FBDE8F047FFF7BABEFB
:1042B80014EB0E024CEBE473C0E90467C8E9002371
:1042C800FFF70EFF85F31188BFF36F8F8368984758
:1042D800EFF31185102383F31288BFF36F8FD9F89A
:1042E80000301B1BC9F80030FFF7E8FEB7E700BF36
:1042F800FC0800204007002010B5EFF311841023BC
:1043080083F31288BFF36F8FFFF7E0FE054A034679
:10431800D2E90001181841EBE37184F31188BFF367
:104328006F8F10BD40070020F8B50546EFF31187E1
:10433800102383F31288BFF36F8F036823B187F3C9
:104348001188BFF36F8FF8BDD0E90A46611C46F1AA
:104358000002022972F1000236D3012C76F1000224
:10436800BCBF01241E46013C46F1FF3601F07AFD30
:10437800013041F10001001946EB0101012871F1FA
:10438800000130DB01F06EFD013041F100016FF0FA
:104398000203001946EB010183426FF000438B4191
:1043A80026DB01F05FFD013041F100016FF00102F1
:1043B800001946EB0103121A4FF0FF3161EB0303BA
:1043C8001C492846FFF7A8FE2B6B01332B632B6A89
:1043D80093B93C462B4653F8185F9D4200D0D5B997
:1043E80084F31188ADE76FF001024FF0FF33E7E780
:1043F80000224FF00043E3E787F31188BFF36F8F84
:104408002B6A28469847EFF31184102383F3128808
:10441800BFF36F8FDEE7284601F071FC0023AB671E
:1044280084F31188BFF36F8F2846BDE8F84001F088
:1044380057BC00BF314300082DE9F04105461C4632
:1044480090461F46EFF31186102383F31288BFF3BB
:104458006F8FB4F1FF3F08BFB2F1FF3F05D186F37C
:104468001188BFF36F8FBDE8F081002C09DB012AAA
:1044780074F10003BCBF0122002412F1FF3844F19B
:10448800FF37284601F0C2FCDDE906010023C5E933
:104498000A012B6342463B4628460249FFF73CFE89
:1044A800DDE700BF31430008014800F06DBB00BFE5
:1044B800FE7200080CB430B58BB004460D462022BD
:1044C800002102A801F006FD02238DF80A30002D14
:1044D8000C4B0393069412DB01D06B1E1C440FAAED
:1044E8000E99079402A8019200F00EF815B1069BE8
:1044F80000221A700BB0BDE8304002B070470024AB
:10450800EDE700BFB35F00082DE9F04F8DB04368B9
:104518000293837815469A07804640F10D8100245E
:104528000E78002E00F00A81252E0BD04B1C039329
:104538000134029B4146304698470028C0F2F68075
:104548000399EDE74E788B1C252E0393F0D00027B6
:10455800B946BB46BBF11F0F38D8A6F12003102B74
:104568000AD8DFE803F02A090930090909210909ED
:104578000928092D09091F00A6F13003092B33D991
:104588002A2E37D11BF0400F55F8043B40F08280AB
:10459800002BA7BF4BF0200B9946C3F100094BF045
:1045A800280B01E04BF0010B039B13F8016B0393FD
:1045B800002ECFD130E04BF0020B4BF0040BF3E7A9
:1045C8004BF0080BF0E74BF0100BEDE7BBF17F0F5A
:1045D80019D8A6F13003092BD2D81BF0400F03D00D
:1045E8000A2101FB0737DFE70A2101FB09394BF0F4
:1045F800200BD9E72E2E06D11BF0400F40F09E80ED
:104608004BF0400BD0E76C2E31D02BD8682E36D02B
:104618006A2E3CD04C2E3AD0002F46F02003B8BF6B
:104628002BF04002A3F16501BCBF1FFA82FB0027F3
:10463800022901D9612B2FD1073525F00705DFF8AD
:10464800ACA2083507271BF0080F66D00AEB070B4A
:1046580056465E4563D1A4EB0A0A06EB0A02A9EBAB
:1046680007096FE1742E9FD07A2E9DD0D4E71BF0F6
:10467800800F18BF4BF4007B4BF0800B94E71BF4C2
:10468800807F18BF4BF4007B4BF4807B8CE74BF4A6
:10469800207B89E71F4687E7A6F16301122900F20C
:1046A800F080DFE811F013004F00EE00EE00EE009E
:1046B800EE004F00EE00EE00EE00EE00EE00FE0011
:1046C800E900EE00EE001B00EE00AF0055F8043BD9
:1046D8008DF8183001270DF1180AB4E755F804AB26
:1046E800834BBAF1000F08BF9A461BF0400F14BF66
:1046F80039464FF0FF31504601F0F4FB0746A2E778
:10470800029B41462020984700280FDB013EB74214
:10471800F6D34C44A41BB14698E74E46F7E716F883
:10472800010B029B41469847002892DA98F802301C
:1047380043F0040388F802304FF0FF3420460DB0F0
:10474800BDE8F08F1BF0800F34D01BF4007F2CD015
:10475800073525F00705AA4669685AF8080B2BF0B3
:1047680010050029ADB237DA404261EB410145F44A
:1047780080650DF1180B0A235A4601F0BFFBA0EB28
:104788000B0301936B0662D5019B25F001019F4243
:1047980089B240F3A180002E00F0998015F0100234
:1047A80040F09C80BB460D4623E0AA465AF8040B0D
:1047B800C117D4E7AA461BF4807F5AF8041B01D11D
:1047C8000846F5E71BF4007F15BF48B208B241F36D
:1047D800C01141F3C031C2E750EA0103C9D11BF04F
:1047E800400FC6D0002FC4D12BF0110295B2BB46A2
:1047F800019740F2064115EA01021CBF0BF1010BBB
:1048080000222CE02BF010021FFA82FB0A231BF077
:10481800800C49D01BF400711DBF073525F0070532
:10482800AA46AA461ABF5AF8080B69685AF8040B30
:1048380050EA010545D12BF016051BF0400FADB22B
:1048480042D0002F40D12BF0170295B2019715F0F6
:10485800100248D0019B002E42D103F1010B290719
:104868005AD4EB0706D5D9456FDD0199A9EB0B039F
:104878005F18CB465B4649E04BF0100B10237826B7
:10488800C5E7782B04D1C6F1780343F01003BEE7DF
:10489800029B4146252098470028FFF647AF02347F
:1048A80047E608230026B2E7AA461BF480715AF8A7
:1048B800040BBDD01BF400711ABFC0B2614680B2B0
:1048C800B6E72BF0060295B20DF1180B54E725F068
:1048D8001105ADB2BB468CE70D46B8E73B460D4621
:1048E80003F1020BBBE7DDF804B082E7427300086E
:1048F8003B730008CDE904324146029B20209847CB
:104908000028FFF613AF049B059A01339945F1DCA3
:10491800A4EB0B01CC189B460AB3029B41463020FE
:1049280098470028FFF602AF8EB901342744019B4F
:10493800391B994224DC1D465DBB019AA9EB0B0982
:10494800224455461446914435E0019F92E70234CB
:1049580041463046029B98470028E7DAE6E640F2EF
:1049680006410D42E2D015F0020F14BF2B20202083
:1049780015F4806F04F10104414618BF2D20E9E7C2
:10498800029B414630209847002804F10104CEDA02
:10499800CCE606AB013D4146585D029B984700288E
:1049A800CADAC3E6029B414620209847002804F152
:1049B8000104FFF6BBAEA9EB0403002BF2DCBFE554
:1049C8007047034601211B790068994083685B6939
:1049D8001847F0B4034600681979DB8806698768C8
:1049E8003468DA0754BF43F4B01383F4D0130125B5
:1049F8008D4023F48012DB074CBF2C43AC4334605A
:104A08003B68F0BC184700EBC1004088400870477D
:104A1800F8B50346FFF7F7FFB0FA80F0C0F11F00C2
:104A280003EB800CCA00DCF81060171D0C46063238
:104A38008DB256B9012101FA00F0D9680143D96055
:104A4800CCF81040DD539D52F8BDF1000431585A9E
:104A5800D85303EBC0009E52C5805D52F4E7043A78
:104A68002DE9F041CC1D114424F0070421F0070181
:104A78000E1BF708B7FA87F2C2F12405AD004FF014
:104A880000080735C2F12002ED0804604146A7601E
:104A9800C4F80C80920004F1100001F01BFA6B00BE
:104AA80043F00103638004EBC5027B1B5900A4F8A3
:104AB80000805180A21924F83550A2F80280A3532F
:104AC80004EBC70329465A8842F001025A8020465F
:104AD800BDE8F041FFF79CBF2DE9F04706460D46BB
:104AE800174698462BB398F8004093F80190DB7866
:104AF800A40004EB430498F802301C4444444FF0EB
:104B0800000ACA4509D3D8F8042008F10803394631
:104B18003046AC46BDE8F047604714F8013B48F81A
:104B280023402046FBF746FB013004440AF1010A02
:104B3800E7E76FF01500BDE8F08770B5002502467D
:104B48002846144614F8013B0BB9184609E098B1F9
:104B58008D4207D1702B04D0A3F140023A2A0BD81A
:104B6800002070BDA3F140063A2E05D853780135D0
:104B7800941C002BE9D00020252B08BF80F00100F1
:104B88002246DEE7002070470FB407B504A951F8A4
:104B9800040B019100F097FA03B05DF804EB04B040
:104BA800704710B50369024613F0080009D113686D
:104BB800D4689C4297BF126AE31AD31A01200B608B
:104BC80010BD00231846FAE713B501A90446FFF7FC
:104BD800E8FF20B1019BE268013B13440193206A7E
:104BE800019BC01A013802B010BD10B50446501818
:104BF8002269236AD20702D5013B184010BD9842AA
:104C080028BFC01AFAE710B504460A46C168FFF77C
:104C1800ECFF2369E06023F00803236110BD38B579
:104C28000D46C2698B00016843F0020342F8213047
:104C3800044601682A46FFF7D8FFE36861682060E8
:104C4800984202BF236943F0080323612A4620469D
:104C5800FFF7CBFF606038BD2DE9F74FC768C6691D
:104C68009B4606EB8703009316F8273003F00303EF
:104C7800022B0446884691464FF000030BD0136080
:104C8800CBF8003023699B0713D44FF0000A504635
:104C980003B0BDE8F08F56F8271013608908CBF8E9
:104CA8000030EFD0FFF7AFFFE368A3604FF0010AD1
:104CB800EDE7A36906EB8700984716F8272012F05E
:104CC800010A0546E1D012F002021FD0B8F1000F28
:104CD80003D041462046FFF7A2FF61682A462046D6
:104CE800FFF783FFD4E902219142606006D12A468A
:104CF8002046FFF77AFF4FF0000AA060A268226002
:104D0800E260226942F008022261C0E701462046BB
:104D18000192FFF778FFE368A360B8F1000F04D0B1
:104D28002168E369019A43F8212005EB0802CBF8D2
:104D3800002021682046FFF758FF2369206043F0D0
:104D48000803236116F827306FF3000306F82730AD
:104D5800009BC9F80030A9E770B504461546FFF76F
:104D680044FF2368834205D12369216023F00803A7
:104D7800236170BDE269AB0043F0020342F82130C1
:104D8800204661682A46FFF730FF6060F1E738B5D2
:104D980003695B07044606D5456AFFF715FF854298
:104DA8002CBF6562606238BD38B50D4604461C22CA
:104DB800002101F08FF8EB68A361AB6863612B6891
:104DC800E3616B682362002262622A6923B1591E7B
:104DD800194208BF42F001022261012204F12800B1
:104DE8000021BDE8384000F02ABF2DE9F04F87B018
:104DF80000250093036A03958B4204460E469246AB
:104E08000595A94639D3EFF3118B102383F3128844
:104E1800BFF36F8F059AD8462AB129462046FFF777
:104E28009BFF0023059304A92046FFF7BAFE0499C7
:104E3800B14207462AD32268E36913F8221021F009
:104E4800030103F8221003EB820921683246204649
:104E5800FFF7CBFEE3682060984212D0002788F362
:104E68001188BFF36F8F039929B162690AB120468F
:104E7800904700230393002FC5D1484607B0BDE8EB
:104E8800F08F236943F008032361E7E718B1204650
:104E9800FFF7C5FEE3E7009B5AEA03021CD0019125
:104EA80000F0D9FE0199B8B9BBF1000F14D187F30E
:104EB8001188BFF36F8F009B524604F12800FEF75C
:104EC8009BFCEFF31188102383F31288BFF36F8FD5
:104ED800B0FA80F77F09C2E705AB03AA2046256828
:104EE800FFF7BAFE0746BAE770B504468369084675
:104EF8000D4698470246EFF31186102383F3128874
:104F0800BFF36F8F2B7843F001032B706168204645
:104F1800FFF76BFE60602046FFF739FF86F31188C4
:104F2800BFF36F8F70BD2DE9F04104461027EFF3F2
:104F3800118687F31288BFF36F8F236913F0080F68
:104F4800A36802D16268934200D9226AE169D21A41
:104F580032B986F31188BFF36F8F4FF0000833E042
:104F680011F8232012F0030001EB8308F1D0022886
:104F780003D151F82350AD0805D1D00712D4A36945
:104F8800404698470546A1682A462046FFF72DFE69
:104F98002946A0602046FFF736FE86F31188BFF346
:104FA8006F8FC4E742F0020201F823204046A3694C
:104FB800A5689847294602462046FFF716FEA060D6
:104FC80086F31188BFF36F8F4046BDE8F081F8B5CE
:104FD8000446836908460D4698470646EFF311874D
:104FE800102383F31288BFF36F8F2B786FF30003BE
:104FF8002B7023699B0705D5E268E36903EB8203FD
:105008009D421AD12B786FF341032B70D4E90231FA
:10501800994204D132462046FFF7E7FDA0603146A9
:105028002046FFF7F0FD87F31188BFF36F8F04F177
:105038002800BDE8F840FEF7ABBB2B6860F39F0380
:105048002B60F0E7EFF31181102383F31288BFF38D
:105058006F8F036913F0080F836802D14268934287
:1050680000D9026AD31A81F31188BFF36F8F181E13
:1050780018BF01207047704703785B075FBF03685C
:105088004288C3F34A2303EB12105DBF173020F0A8
:105098000700800800207047002070470346BFF3D0
:1050A8005B8F53E8000F421C43E800210029F8D128
:1050B800BFF35B8F704708B500F0D4FE0A220023C7
:1050C800FBF75EF808BD1FB50023CDE90201CDE965
:1050D80000331A4619461846FCF798F905B05DF8EA
:1050E80004FB0120FBF746BF002070474368DA71D4
:1050F80043681960436801225A71FBF72DBF70B5E8
:1051080015460C4669B1D2E901369B1B99420AD86B
:1051180013680A460146981900F0CEFEAB6823448E
:10512800AB60204670BD6FF01B00FBE770B50E4604
:1051380015461946044618B9BDE87040FBF71ABF72
:1051480033B1C2F34A231030120D184400F0B4FEF4
:10515800C4E900562046BDE87040FCF7B3B82DE915
:10516800F3415F1C4FEA8708064608F1170020F054
:10517800070080080C461546FBF77EFF0023ADF8B4
:1051880005308DF807308DF8047068B10346019A30
:1051980043F8102FA8F104012A46294452F8045B69
:1051A80043F8045F8A42F9D1A20102F4E07242EAAC
:1051B800482222F07F4222F47002002322F03F02AC
:1051C800314602B0BDE8F041FFF7B0BF07B5012393
:1051D800019201AAFFF7C3FF03B05DF804FB07B50E
:1051E800CDE9002302236A46FFF7B9FF03B05DF853
:1051F80004FBF8B506460D4614461F4604B9F8BD2B
:10520800214628463A46B047241A0544F6E710B521
:10521800426881680446D2E900230068FFF7E9FF85
:10522800636800221A6010BD38B54B681A68CB68ED
:105238009A4205460C4602D10846FFF7E8FF636824
:10524800BFF35B8F53E8002F511C43E80010002880
:10525800F8D1BFF35B8FA3689D54002038BD0A289E
:1052680038B504460D4602D10D20FFF7DDFF29466B
:105278002046FFF7D9FF002038BD2DE9F043054649
:1052880087B008460E8891F80090D1F808800C463F
:105298001746FCF70BF9011EC6F38216C9F3C209BB
:1052A8001EDB4846FCF720F803462146608851F883
:1052B800102B0196C2F34A22002A01EB0204C0F324
:1052C8000B1008BF00210022CDE90407CDE9021424
:1052D800009241462846FCF715F907B0BDE8F0836F
:1052E8000023E2E743681B685B6800201961704788
:1052F80043681B681A685268536070472DE9F0418B
:1053080043681B685A68012111751D68D5E9013683
:10531800D3E900482F681CB96B681C60BDE8F081B0
:10532800214630464246B847241A0644F3E7436804
:105338001B681868FCF750BA70B543681D686B683D
:1053480018690C46FBF7F2FD214603460F22286830
:10535800BDE87040184701460068FCF797BA08B5E1
:10536800FCF7F0FABDE80840FCF710BB0A4601213B
:10537800FFF72CBF00210120FCF788BA61B662B69E
:1053880080F31188BFF36F8F704772B6002383F3E1
:105398001188BFF36F8FBFF34F8F30BF62B6BFF373
:1053A8006F8F7047202809D9B0F1004F08D801380D
:1053B800B0FA80F0C0F11F00400070470820704725
:1053C8003E20704708B5D1E904319847002008BD50
:1053D80008B5FDF765F8002008BD01208840704732
:1053E80000F00302043292000F23934043EA900036
:1053F80010B500F003039B0003F1804303F58033ED
:10540800020C9C6892FAA2F2B2FA82F224EA1040E4
:1054180091400143996010BD0B88C3F30B0303F659
:10542800B872C2F30B02182A82B014D803F1804371
:1054380003F5043348681A6802431A600B88C3F3FB
:105448000B0303F1804303F5043300201B68019329
:10545800019B02B070476FF08500FAE70B88C3F331
:105468000B0303F6B872C2F30B02182A9FBF03F1AD
:10547800804303F5043349681A689DBF8A430020B6
:105488001A606FF085007047042805D8002814BFFB
:1054980000206FF085007047063804288CBF6FF035
:1054A80085000020704710B50888C0F30B00FFF78F
:1054B800EBFF00281FDB4A68FF2A1BD093B203F1D9
:1054C800804303F50433C2F384541868C2F30542D9
:1054D80004FA02F220EA02021A6049688BB203F168
:1054E800804303F50433CA0E1868C1F305418A40A6
:1054F80002431A60002010BD0888C0F30B0008B5ED
:1055080000F6B873C3F30B03182B0AD800F18040D8
:1055180000F504304B680268934314BF0120022051
:1055280008BDFFF7B1FF002814BF01200220F7E7EC
:10553800704743685B681B690B60002070474368CD
:105548005B68586942400A4042405A6100207047EF
:1055580043685B6800209961704743685B68002076
:105568009962704743685A6853694B4053610020F9
:10557800704710B503699868F8B1884219D1DC689A
:1055880008689860A14200D1D860002008602AB15C
:105598009A680A60DA68996002B9D960002010E058
:1055A800814206D108682060D8688142EDD1DC606C
:1055B800EBE7044600680028F2D1002AE8D16FF032
:1055C800150010BDF0B502F030054468302D1E46B8
:1055D8004FF0010008BFE36A00FA01F004BF03437B
:1055E800E3626768C2F3801327EA00078B403B43F6
:1055F800636090FAA0F7B7FA87F7D4F808C04FF0BD
:10560800030E7F000EFA07F72CEA070C90FAA0F7B2
:10561800B7FA87F7C2F3C1137F00BB4043EA0C0314
:10562800A36090FAA0F3B3FA83F3E7685B000EFA7D
:1056380003F327EA030790FAA0F3B3FA83F3C2F35C
:1056480041225B009A403A43202DE26016D1072997
:105658002BD890FAA0F3226A2BB3B3FA83F39B00FA
:105668000F2101FA03F322EA030290FAA0F3B3FA36
:1056780083F39B0006FA03F31343236290FAA0F323
:10568800B3FA83F3226890FAA0F05B000321B0FA22
:1056980080F02D0901FA03F3400022EA0303854054
:1056A8001D432560F0BD2B46D9E7030A616A93FACA
:1056B800A3F282B1B2FA82F292000F2793FAA3F30F
:1056C800B3FA83F307FA02F29B0021EA02029E4032
:1056D80016436662D2E72A46EEE712F4003CF8B5B4
:1056E8000C4613461DD0960714D555075CD5502295
:1056F800D90611D542F4007203F4C061B1F5806F88
:1057080042D0B1F5C06F19D0B1F5007F18D142F081
:10571800800215E01022EBE79F06EDD542F4806287
:10572800EAE7D60305D5D50605D4C2F3401292029E
:10573800E2E73022E0E74FF40072DDE742F4C0729E
:1057480013F44036056908D02F6927FA04F1C90710
:105758005FBF0121A14039432961BCF1000F06D088
:105768001F03416813D549680123A3408B61406832
:1057780000232146FFF726FF26B92B6923FA04F2F6
:10578800D2070BD40020F8BD42F48072D8E75F033B
:1057980041BF01234968A3408B62E8E70122A24088
:1057A80023EA02032B61EDE76FF08500EBE770B5A4
:1057B8000B468968054611B15E680C6801B970BD71
:1057C8008A682A4002D04B68304698471CB1236843
:1057D80021461C46F2E72346FAE7F8B51F46044679
:1057E80040680E461546FFF7EDFE112F08D101233C
:1057F80003FA06F663685B682A054CBF9E619E62E1
:105808000020F8BD30B5036813600579046804EB1F
:10581800C504A34202D36FF0010030BD5C798C420D
:1058280001D00833F0E70020F7E74368C1F34B10D5
:105838001B6801F01F01C05801238B40034214BFAD
:105848000123002313700020704710B54368C1F38B
:105858004B101A6801F01F01845801238B40234321
:105868008350002010BD10B54368C1F34B1418686D
:1058780001F01F01235801228A4023EA0203235022
:10588800002010BD38B504460D46FFF7DEFF294657
:105898002046FFF7E8FF002038BDB0F5805F07D04D
:1058A800B0F1805F09D1002914BF012002207047A0
:1058B800002914BF032004207047002914BF0220C8
:1058C8000320704743681B68D869DA69D107DA6929
:1058D800C0F3C00048BF40F002009207DA6948BF31
:1058E80040F004005107DA6948BF40F02000D205B3
:1058F80042BF4FF4807240F008001A62C10744BFEB
:1059080008221A62820744BF01221A62410744BF73
:1059180002221A62820644BF04221A627047436850
:105928001A6852E8003F43F0400342E8003100297A
:10593800F7D1704743681A6852E8003F23F04003E4
:1059480042E800310029F7D1704743681A6852E8E5
:10595800003F43F0200342E800310029F7D17047A7
:1059680043681A6852E8003F23F0200342E80031F8
:105978000029F7D1704743681B68D869C0F3401005
:105988007047012070470369C3E902127047026932
:1059980093680BB1D1681847704708B500222520D5
:1059A8001146FCF7C1FABDE808402520FCF7AEBA5D
:1059B80008B5002234201146FCF7B6FABDE80840C5
:1059C8003420FCF7A3BA43681B68D869C0F3801079
:1059D800704743681B68D86910F080001CBF1868BE
:1059E800C0F38010704710B50269526812680A60E7
:1059F80042681268126802F4C062B2F5806F044609
:105A08000B4633D0A2F5C060424242411A71626827
:105A18001268526802F44052B2F5805F28D0B2F59D
:105A2800405F27D0002A0CBF012203225A71626806
:105A380012681068116800F0102001F4C061FFF7C7
:105A48002CFF987162681268926802F44072A2F59D
:105A580040714A424A41DA7161680968896811F4FB
:105A6800804F18BF0322DA71002010BD0222CDE753
:105A78000022DBE70222D9E737B5026943681068DC
:105A88001D680C46D9688368DB681BB9FDF7EEF81A
:105A980003B030BD01AA98470028F7DB2B6823F430
:105AA80000432B60019B03EB5403B3FBF4F39BB25D
:105AB800EB60EDE738B543681B680C461868196851
:105AC80000F0102001F4C061FFF7E7FE04281AD0A7
