:020000040800F2
:1000000080110020AD090008493000089909000856
:1000100099090008990900089909000800000000E2
:100020000000000000000000000000006D0A000851
:1000300099090008000000000D0A0008F11A0008E4
:10004000F50B0008F50B0008F50B0008F50B000890
:10005000F50B0008F50B0008F50B0008F50B000880
:10006000F50B0008F50B0008F50B0008F50B000870
:10007000F50B0008F50B0008F50B0008F50B000860
:10008000F50B0008F50B0008F50B0008F50B000850
:10009000F50B0008F50B0008F50B0008F50B000840
:1000A000F50B0008F50B0008F50B0008F50B000830
:1000B000F50B0008F50B0008F50B0008F50B000820
:1000C000F50B0008F50B0008F50B0008F50B000810
:1000D000F50B0008F50B0008F50B0008F50B000800
:1000E000F50B0008F50B0008F50B0008F50B0008F0
:1000F000F50B0008F50B0008F50B0008F50B0008E0
:10010000F50B0008F50B0008F50B0008F50B0008CF
:10011000F50B0008F50B0008F50B0008F50B0008BF
:10012000F50B0008F50B0008F50B0008F50B0008AF
:10013000F50B0008F50B0008F50B0008F50B00089F
:10014000F50B0008F50B0008F50B0008F50B00088F
:10015000F50B0008F50B0008F50B0008F50B00087F
:10016000F50B0008F50B0008F50B0008F50B00086F
:10017000F50B0008F50B0008F50B0008F50B00085F
:08018000F50B0008F50B000867
:1001880053B94AB9002908BF00281CBF4FF0FF31F6
:100198004FF0FF3000F00CB8ADF1080C6DE904CE5B
:1001A80000F008F8DDF804E0DDE9022304B0704748
:1001B800704700BF2DE9F04786468C460846089EE2
:1001C800154674461946002B40F0C2808542B2FAA3
:1001D80082F245D94AB1C2F1200300FA02FC2EFA94
:1001E80003F3954043EA0C0C94404FEA154EA8B22D
:1001F800BCFBFEF8230C0EFB18CC08FB00F943EA05
:100208000C43994528D9EB1808F1FF3704D29945D2
:1002180002D9A8F102072B44A3EB0903A4B2B3FB4C
:10022800FEFC0EFB1C330CFB00F044EA0344A04226
:1002380014D92C190CF1FF3304D2A04202D9ACF125
:1002480002032C44241A43EA07401EB1D440002379
:1002580034607360BDE8F0874746DDE76346F1E741
:1002680092BB431B01214FEA154EAFB2B3FBFEFC14
:10027800200C0EFB1C330CFB07F840EA034398459F
:1002880062D9EB180CF1FF3004D2984502D9ACF1D1
:1002980002002B44A3EB0803A4B2B3FBFEFC0EFB45
:1002A8001C330CFB07F744EA0344A7424ED92C1928
:1002B8000CF1FF3304D2A74202D9ACF102032C445B
:1002C800E41B43EA0040C0E7C2F1200320FA03F12F
:1002D800954090402EFA03F303434FEA154EAFB210
:1002E800B1FBFEFC0EFB1C10190C0CFB07F841EAD5
:1002F8000041884504FA02F422D969180CF1FF304C
:1003080004D2884502D9ACF102002944A1EB0801C6
:100318009BB2B1FBFEFC0EFB1C110CFB07F743EA7A
:1003280001439F420ED9EB180CF1FF3104D29F42D2
:1003380002D9ACF102012B44DB1B41EA004192E7F0
:100348006046E3E76146F7E76046A3E76346B7E739
:10035800834206D916B9002108467BE7C6E900E0C2
:10036800F9E7B3FA83F78FB9834201D3724508D806
:10037800BEEB020460EB030301209C461EB900217A
:1003880068E73846FAE7C6E9004CF8E7C7F1200CF9
:10039800BB4022FA0CF41C432EFA0CF120FA0CF3A1
:1003A800B84001434FEA14490EFA07F5B3FBF9F8D0
:1003B8001FFA84FE09FB18300B0C08FB0EFA43EAFF
:1003C80000439A4502FA07F240D9E31808F1FF30D2
:1003D80004D29A4502D9A8F102002344A3EB0A03E8
:1003E80089B2B3FBF9F809FB183308FB0EFE41EAA2
:1003F80003418E452CD9611808F1FF3304D28E458C
:1004080002D9A8F10203214443EA0040A0FB029864
:10041800A1EB0E014145CE46434602D306D14D45D8
:1004280004D2B9EB020E68EB04030138002EA6D003
:10043800B5EB0E0261EB030101FA0CFC22FA07F39B
:100448004CEA0303F940C6E9003198E74046C5E79E
:100458004346D9E7F0B585B02D4803F01BFA28B913
:100468002C4802F0B9FA002005B0F0BD2A482A4C01
:1004780003F010FA0028F3D0204603F00BFA002806
:10048800EED026484FF4B01102F023FD0028EADB35
:1004980023484FF4B01102F01CFD0028E3DB21488B
:1004A8004FF4803102F015FD0028DCDB1B4E1C4F99
:1004B800002523690193A36803A95B682046984730
:1004C80028B9019B03981B685840C0F340300028A6
:1004D800304617DD02F01CFD0028C4DB384602F068
:1004E80017FD0028BFDB104B1049114895F0010596
:1004F80008BF194602F05EFA002142F2107003F0BC
:1005080047FAD6E702F00CFD384602F009FDD0E7BD
:100518001C3D0008ED420008FC3C0008D8400008DB
:10052800D0400008C8400008E9420008E642000838
:1005380014430008014B1B68184700BF0000002047
:10054800014B1860704700BF0000002030B585B02F
:1005580004460D4610220021684603F092FA022351
:100568008DF802302A46044B01932146684602F072
:1005780053FA05B030BD00BF3D05000880B50546FB
:100588000E461746984601F095FF034603F0E4FA35
:10059800DFF81890044649F800304246304639469C
:1005A800A84754F8090000F017FA00BF0800000037
:1005B800034A536823F0020353600020704700BFCA
:1005C800002004E0EFF31180102383F31288BFF3B7
:1005D8006F8F094B1A683AB9084A116841F480715B
:1005E80011601168C905FCD51A6801321A6080F3D8
:1005F8001188BFF36F8F70473002002000700040F1
:10060800EFF31180102383F31288BFF36F8F0C4B25
:100618001A684AB90B4B1A780AB901221A7080F382
:100628001188BFF36F8F7047012A01BF06490A6816
:1006380022F480720A601A68013A1A60EFE700BF74
:1006480030020020A803002000700040084B1A6800
:1006580042F400721A601A6842F480621A601A68DA
:1006680042F480721A60034B034A1A60704700BF55
:10067800002002404400002000093D00014B0360B7
:1006880000207047E040000830BFFFF7FDBF00BF03
:100698002DE9F0410B4EDFF8308006EB0807CC1B44
:1006A800054632460949204603F0DDF9A0194246BD
:1006B8000021083C03F0E5F92C6707F10800BDE8C4
:1006C800F08100BF0000000004000000C8400008DE
:1006D800054B5A699B689A421FBF044A536843F006
:1006E80080535360704700BF7C03002000ED00E09A
:1006F80070B5264B15469A6A12F0100F9A6A14BF05
:100708001124102412F0080F9A6A18BF12249207B5
:1007180006460AD5586B9A6A140634D519B19A6AEE
:1007280022F080029A62132401E06FF01500174B43
:100738009A6A12F0010F9A6A18BF142412F0200F57
:100748009A6A18BF1524D20602D49B6A9B070AD559
:100758000E4B5B68190506D5314600F001FA10B159
:1007680080F309880224094B9A6A920642BF5A6AA2
:1007780022F400525A629A6A42F0FF029A620023F7
:100788002B70204670BD6FF01500CCE700ED00E03F
:10079800134B9A6A12F0007F9A6A14BF1E201D201C
:1007A80012F0807F9A6A18BF1F2012F4002F9A6AED
:1007B80018BF212012F4802F9A6A18BF222012F441
:1007C800003F9A6A18BF232012F4803F9A6A6FEAA2
:1007D80002426FEA12429A6218BF2420704700BF93
:1007E80000ED00E010B5194B0246986A9C6A10F4B7
:1007F800805F14BF1720162014F4006F9C6A18BF7E
:100808001820A40509D5986B986A000404D51AB174
:100818009A6A22F400429A6219200C4B9A6A12F4DE
:10082800806F9A6A18BF1A20D2050CD49B6A13F4F9
:10083800005F18BF1C20054A936A43F47F43936204
:1008480000230B7010BD1B20F5E700BF00ED00E092
:10085800F0B5484B5B688BB00446C3F3080300252A
:1008680085F31188BFF36F8F02F07F40B0F17F4F9F
:1008780011D102F00C0008280DD010074CBF0C460F
:1008880001250022033B8DF80720032B05D8DFE85C
:1008980003F0246367602C46F3E700239DF80720E4
:1008A800CAB902AE04F1200720686168324603C263
:1008B8000834BC421646F7D1099A002D54D0C2F329
:1008C800080121B96FEA52226FEA4222099202A96D
:1008D800184602F0ABFB0BB0F0BD264BDA6A910765
:1008E800DBD4DA6A002AD8DBDA6A5200D5D55A692D
:1008F800A16942F480725A61BFF34F8FBFF36F8FC3
:100908005A6931F8021C22F480725A61BFF34F8F82
:10091800BFF36F8F4DF6027291420AD09A6AD2B233
:100928004AB10DF1070201212046FFF7E1FE034617
:10093800B4E72368B2E79A6A12F47F4F05D00DF145
:1009480007010120FFF74EFFF1E79B6AB3F5803FEF
:10095800A3D3FFF71DFFEAE70DF107020021E3E744
:100968000DF107010020EDE722F4FF7222F00102E9
:10097800ACE700BF00ED00E0044B5A6942F01002FA
:100988005A615A6922F008025A61704700ED00E086
:10099800EFF30880EFF3098101B57246FFF758FFBE
:1009A80001BD00BF0A4880F30888102080F3118831
:1009B80008484FF40461401880F30988EFF3148065
:1009C8000221084380F31488BFF36F8F00F090F87A
:1009D80080110020C0030020084B9B6883420BD184
:1009E800EFF3058343B1064B5A6842F080525A60D0
:1009F8005A6A22F400425A6201F062BD7C03002068
:100A080000ED00E014498A684FF030001044EFF31D
:100A1800098C80E8F01F102080F31288BFF36F8FD5
:100A28000E4F4FF000664A698A603E60106F0C4CAA
:100A38002060506F0023536780F3118804B5104677
:100A480000F0F2F8BDE8044002F1300090E8F01F31
:100A58008CF30988704700007C03002004ED00E057
:100A6800340200201EF0040F0CBFEFF30880EFF3F0
:100A78000980816911F8021C0229FFD001B572466C
:100A880002F0DAFA01BD00BF40B2002807DB044AD1
:100A98004109012300F01F00834042F821307047CC
:100AA80000E100E040B20028A8BF00F1604001F179
:100AB8000101B8BF064B4FEA0111ACBF00F5614018
:100AC80000F00F00C9B2B4BF195480F80013704782
:100AD80014ED00E0044B054A23F07F039360BFF355
:100AE8004F8FBFF36F8F70470000000800ED00E0E4
:100AF80008B5FFF7EFFF0B4AD2F8883023F47003EC
:100B0800C2F88830EFF3148323F0040383F31488C6
:100B1800BFF36F8F01F0E4F901F0F4FD00F05AF82B
:100B280001F022FA00ED00E042F8203C009B42F878
:100B38001C3C0A49019B42F8183C029B42F8143CB1
:100B480021F001014FF0807342F8043C42F8081C80
:100B58000023203A02654367704700BF85050008F7
:100B6800094A0346906870B113F1160F006E05D05C
:100B7800A0F140029A4205D8834203D2814228BF9D
:100B880000207047002070477C03002008B51546F8
:100B98000B4A0C4B9060026F1A600E4600F044F846
:100BA8002C4686F309880020034B984720460021ED
:100BB80000220023014C20475F300008850500080B
:100BC8007C03002034020020014B10221A61704778
:100BD80000ED00E0044800231021C2180133522B15
:100BE80082F80013F9D1704700E100E008B5EFF38F
:100BF8000583064A103B02EBC30152F833004968EB
:100C08008847BDE80840FFF763BD00BF9C3D00086A
:100C1800024B034A0348012100F076B80080012006
:100C280000000020E0400008026E054B403A1A60C0
:100C3800044A4021C3E901121846012100F06EB8A8
:100C48003802002000000B15084AC2F898000B680B
:100C580023F01F03034343F01003C2F89C308B6852
:100C680043F00103C2F8A030704700BF00ED00E078
:100C78002DE9F043DFF8608085B00E461F46044634
:100C88004FF00009B14523DA6068D8B13FB1411E81
:100C980008421BD11F2819D92368194216D1236885
:100CA800019302F0ECF9A36803430393D8F890503A
:100CB800C5F30725D0B2013DA84207D801A9FFF71F
:100CC800C3FF421C09F101090C34DBE76FF0150280
:100CD800104605B0BDE8F08300ED00E0044B0522A6
:100CE800C3F89420BFF34F8FBFF36F8F704700BFD7
:100CF80000ED00E0BFF35F8F024B0022C3F89420A1
:100D0800704700BF00ED00E010B5034C01232278C6
:100D1800FFF7AEFF207010BDA903002008B50B4AED
:100D280000231278FFF7A4FF10F1160F07D0084A26
:100D38000021D2F89030C3F30723984200DB08BDA6
:100D4800C2F89800C2F8A0100130F2E7A903002009
:100D580000ED00E02DE9F043534B544CD3F89030AC
:100D68002568C3F307239D4285B000F29A80FFF7F8
:100D7800C1FF00200C2685421AD14D4C4D4F2570DD
:100D88006846FFF77BFCDFF82081DFF82C910646E8
:100D98000025AE4213D1237843490020D1F8902092
:100DA800C2F30722934276DBFFF798FF002042E068
:100DB800616806FB0011FFF747FF0130DBE7009889
:100DC80000EB05114FEA051CCB683B40B3F5000F5B
:100DD80048D00AD8B3F5001F30D0B3F5800F36D00D
:100DE800B3F5801F10D00135D3E7B3F1807F42D02F
:100DF800B3F1007FF7D150F80C3088684A6802F0E8
:100E08003EF940F4802009E050F80C3088684A68C0
:100E180002F035F940F0885040F43020CDE9012344
:100E28000390D8F890302078C3F30723013B984209
:100E38002AD96FF0150005B0BDE8F08350F80C30E2
:100E480088684A6802F01BF940EA0900E6E750F8AA
:100E58000C3088684A6802F012F940F0C06040F42B
:100E68000030DBE750F80C3088684A6802F007F970
:100E780040F08270D2E750F80C3088684A6802F077
:100E8800FEF840F08870C9E701A9FFF7DDFE237876
:100E980001332370A7E7C1F89830C1F8A0000133E7
:100EA8007CE74FF0FF30C6E700ED00E0EC400008BB
:100EB800A90300200000F0FF0000081108B5024B4C
:100EC8001B689847002008BD44020020034B044AD1
:100ED8001860937843F0020393707047440200202F
:100EE8000400002008B50649064821F00701C1F1B1
:100EF800005202F5C03202F04CF8002008BD00BFD5
:100F0800C7110020480200202DE9F0410F4E104F74
:100F1800054600244FF001082A781319DBB208FAB5
:100F280003F0736930EA030309D152FA84F370615C
:100F380057F833201AB107EBC303596890476A780A
:100F48000134E3B29A42E7D2BDE8F08100040140DF
:100F580054020020044B184400230133994200F83E
:100F6800012BFADC704700BF5400002007B50622A9
:100F780001210020FFF7EEFF002211460620FFF7AF
:100F880091FD012108460722FFF7E4FF00221146E0
:100F98000720FFF787FD082201210220FFF7DAFF6B
:100FA800002211460820FFF77DFD092201210320B8
:100FB800FFF7D0FF002211460920FFF773FD0A2230
:100FC80001210420FFF7C6FF002211460A20FFF77F
:100FD80069FD052108461722FFF7BCFF00221146CC
:100FE8001720FFF75FFD282206210A20FFF7B2FF2E
:100FF800002211462820FFF755FD012307486022EB
:10100800CDE9002383681B6823B16946984703B07C
:101018005DF804FB6FF05700F9E700BFFC3B0008E0
:10102800034660B1B0FA80F2C2F11F02D2B205499C
:101038008856054A11680B431360FFF725BDFF2248
:10104800F5E700BF5400002000040140024A13687D
:1010580023EA00031360704700040140032921D8E4
:10106800DFE801F0020C10190F4B9A6822EA00021F
:101078009A60DA6822EA0002DA6070470A4B9A68D6
:101088000243F5E7084BDA680243DA609A6822EA15
:1010980000029A607047044B9A6802439A60DA68C3
:1010A8001043D860704700BF0004014030B5B0B1AC
:1010B800B0FA80F3C3F11F03DBB20B4850F833409A
:1010C8008C4204D100EBC3056D68954205D044B944
:1010D80040F8331000EBC3004260002030BDFF230E
:1010E800EBE76FF00F00F9E75402002060B1B0FAA7
:1010F80080F3C3F11F03DBB2044A002142F8331026
:1011080002EBC30251607047FF23F5E75402002049
:1011180000F00302043292000F23934043EA900048
:1011280000F003030233064A52F82320030C02EAB4
:10113800104093FAA3F3B3FA83F3D840704700BF83
:1011480000000140024B1868C0F38020704700BFC0
:101158000010024038B50888314B1446C0F30B0222
:10116800072A1B680D4602D00A2A20D812B96FF048
:1011780085002CE0501E0928F9D801A252F820F069
:10118800CB11000815120008B1110008011200085F
:10119800771100080512000877110008D911000816
:1011A800E9110008F51100084FF4FA4309E002F6C6
:1011B800B870C0F30B001828D9D81A4AC240D20711
:1011C800D5D523602A68B2F5805F22D2002038BDC9
:1011D80000F0F0F8142343430722B3FBF2F3F0E7DF
:1011E80000F0E8F8142343435B08EAE700F0E2F86C
:1011F800142343439B08E4E70B4BE2E70B4B0C4AF1
:101208001B68C3F3031352F82330DAE74FF40043A3
:10121800D7E7C2F313320132B3FBF2F32360D5E709
:1012280044000020110111010024F40000100240C4
:1012380098420008F8B55B4F5B4C00F0D1F838468F
:1012480001F0DDFF00F01AFDA368584AC3F3031349
:101258001578D35C47FA05F520FA03F6AE4202D2B8
:10126800284600F059FDFFF76DFF012807D02368D5
:1012780043F480732360FFF765FF0128FBD12368DF
:1012880043F008032360236823F0F00343F0B0031E
:101298002360236843F004032360636823F47F43D7
:1012A800636023689A0706D4236843F00103236028
:1012B80023689B07FCD5D4F8943043F00103C4F8A5
:1012C8009430D4F894309807FBD5FFF77BF9D4F81D
:1012D800903043F00103C4F89030D4F89030990767
:1012E800FBD5FFF78DF9A36803F00C030C2B1AD17B
:1012F800FFF728FF012807D0236843F48073236091
:10130800FFF720FF0128FBD1A36823F0030343F074
:101318000103A360A36803F00C03042BFAD1A368AC
:1013280023F0F003A360236823F08073236023680D
:101338009A01FCD4E36823F40033E360E36843F4E0
:101348008033E360E36823F4C003E360E36843F4B5
:101358008013E36000F032F8236843F08073236061
:1013680023689B01FCD5A36823F0F003A360A3685E
:1013780043F00303A360A36803F00C030C2BFAD11A
:10138800AE4202D3284600F0C7FC094B1F60A36891
:1013980023F4E063A360A36823F46053A3600020F0
:1013A800F8BD00BF00B4C404001002400C4400089B
:1013B80044000020004870470024F400054B06490B
:1013C800DA681140054A0A43DA60DA6842F0807246
:1013D800DA607047001002408C80FFF902140002A6
:1013E800064B9A6D42F080529A659B6D82B003F06D
:1013F80080530193019B02B0704700BF0010024068
:1014080008B5074802F046FA38B10648FFF75EFD0E
:101418000448FFF795F8002008BD6FF01200FBE7BD
:101428007C3D0008311400080A2838B5074D0446E9
:1014380004D1AB680D215B6828469847AB68034820
:101448005B68E1B29847204638BD00BF7C3D000884
:101458002DE9F843D0F80480D0F81090D8F80800A7
:1014680017460D461E4601F01FFEB7F5001F04463D
:1014780016D12846D8F80840FFF74AFE84420CD116
:10148800294601F011FE0446FFF7E0FD2046FFF76C
:101498002DFE00212046FFF7E1FD0020BDE8F8837E
:1014A800B7F5800F20D0B6F1806F19D0B6F1C06FB4
:1014B80018D0B6F1007F1AD1022610494A462046B4
:1014C800FFF7F4FDB0B9D8F80810284601F0EFFD91
:1014D80020463146FFF7C2FD2046FFF7A1FDDCE7B5
:1014E8000126EAE70326E8E76FF08500D6E76FF004
:1014F8001500D3E76FF00F00D0E700BF8534000870
:1015080038B50369044658600C4D284602F0C2F904
:1015180088B10B4A536843F400735360AB68616841
:101528001B680C3123B12846984700EAE07038BDA3
:101538006FF05700F9E76FF01200F8E7FC3B00087E
:10154800007000402DE9F0471E4F044600EBC1062D
:101558000025B44201D1002014E02068C30600F041
:101568001F0911D4656845F02005C0F3481AC0F377
:101578004420102823D857F82080B8F1000F0DD147
:101588006FF01200BDE8F087B9F1100F04D0B9F17F
:10159800110FEAD16568E8E73025E6E7404602F032
:1015A80079F90028ECD04B462A460AF00F0140464C
:1015B80001F07AFF002804F10804CADAE2E76FF0C4
:1015C8001500DFE7B041000843681B6803F1080213
:1015D80052E8002F42F0010203F1080040E8002120
:1015E8000029F3D10F4A93420FD0A2F574429342D7
:1015F8000BD002F58062934207D002F580629342D5
:1016080003D002F58062934203D15A6842F0400247
:101618005A6053E8002F42F4807243E80021002901
:10162800F7D170470038014043681B6803F108028E
:1016380052E8002F22F0010203F1080040E80021DF
:101648000029F3D10F4A93420FD0A2F57442934276
:101658000BD002F58062934207D002F58062934274
:1016680003D002F58062934203D15A6822F0400207
:101678005A6053E8002F22F4807243E800210029C1
:10168800F7D1704700380140F8B503690C465D682A
:1016980023794168012B16D09F1E7E427E41B602F7
:1016A8006279022A9CBF454F37F81270A27988BF29
:1016B8004FF40057022A09D0042A2FD0003B18BF44
:1016C80001231B0306E04FF4C066E9E7B3FA83F38E
:1016D8005B091B07E2790968012A14BF4FF0000C67
:1016E8004FF4407CA5421CD10A6822F0805222F4B3
:1016F800B05232431A430A604B6823F440533B43C9
:101708004B6043681A68936823F4407343EA0C03F8
:1017180093602968BDE8F84001F026BF4FF4805374
:10172800D8E7D1F800E00EF4C06E76451FBFD1F8B7
:1017380000E02EF4C06E4EEA06060E6041680E68A0
:10174800716801F440518F421FBF716821F4405104
:101758003943716041680E68316801F010218B428D
:101768001FBF316821F010210B43336043681968AB
:101778008B6803F440739C451FBF8B6823F4407348
:1017880043EA0C038B6043681B689968490405D5D4
:10179800032A09D09A6822F4804204E0032A03D17C
:1017A8009A6842F480429A6021682B68994203D073
:1017B80001F0DAFE23682B60F8BD00BFE0420008A4
:1017C8002DE9F3410469476806465148206002F054
:1017D80061F820B96FF0120002B0BDE8F08120680E
:1017E800F96883681B68002B00F08C8098470028F4
:1017F800F2DB386A01AA002101F06BFE0028EBDB5E
:10180800019B002219791868FFF79CFE0028E3DB8A
:10181800756833692C68D3F80480236823F00103C2
:101828002360686802F036F80028D3D0D5E90101B2
:101838008368DB6803B1984754E8003F43F00C0322
:1018480044E80032002AF7D141463046FFF71CFF32
:101858002B7D1BB1A36843F00803A3606B7D1BB10C
:10186800636843F400436360AB7D1BB1636843F472
:1018780080336360EB7D1BB1636843F400336360BE
:101888002B7E83B3234B9C4213D0A3F574439C4215
:101898000FD003F580639C420BD003F580639C4214
:1018A80007D003F580639C4203D003F540539C4264
:1018B8002BD173681A68936843F480439360236854
:1018C8006A7E23F0787343EA425323602368AA7E32
:1018D80023F4F81343EA02432360EB7E1BB1A368A9
:1018E80043F40043A360236843F001032360E369E2
:1018F8009A02FCD5E3695B02FCD530467B6A9847BF
:10190800002069E76FF0570066E76FF0150063E79E
:10191800FC3B000800380140F8B5436891F805E041
:101928001C680369024608795D688B7901280E46B0
:101938001CD1BEF1020F68D9022B1F464FF4C061BB
:101948004FF4005C79D0042B72D020B1C31E012B58
:1019580070D94FF48050BCF5805F78D0BCF5405FFB
:1019680077D0BCF1000F1CD101231BE002280AD15B
:10197800BEF1020F55D9022B1F464FF480610BD0E0
:101988004FF4005CDFE7BEF1020F4DD9022B1F4672
:101998004CD1002857D00021C31E012B4AD9002062
:1019A80002270323734545D101F0F9FDB84241D11F
:1019B800F379C3B1012B4ED1284B9C4213D0A3F528
:1019C80074439C420FD003F580639C420BD003F50F
:1019D80080639C4207D003F580639C4203D003F5E3
:1019E80040539C4226D1236823F0010323603146EB
:1019F8001046FFF749FE236843F00103236096E889
:101A0800030085E803000020F8BD4FF4C061144FBF
:101A1800022B37F81EC01F4695D170B94FF0805081
:101A280099E74FF48061F2E70021F0E70021A7E78A
:101A380000288ED06FF08500E6E7C31E012BF9D988
:101A48000227002087E701464FF08050A9E70023CE
:101A5800A8E70223A6E7032BAED0EBE70038014046
:101A6800E042000810B54FF0E0230F499C691A695D
:101A780008689B690D4902F4803234B993B903466A
:101A88004AB90A681044C01A10BD002B08BF0346A3
:101A98000AB9A342F5D90A6802440A604FF0E02265
:101AA8001269EEE70446F3E7780300207403002088
:101AB8000A4B102283F82320094B4FF4FA521A607C
:101AC800084B002018604FF0E02341F63F725A613E
:101AD80098611A6942F007021A61704700ED00E048
:101AE8007803002074030020684620F007018D4623
:101AF80019B5FFF7B7FF114B1149D3E90042086840
:101B0800001942F10002C3E900020E4A00230B60EB
:101B1800D2E900414FF4FA53001BB0FBF3F0434302
:101B28001B1941F10001C2E9003100F0C5FEFEF7C2
:101B3800CFFDBDE819408546704700BF88000020EA
:101B480074030020800000202DE9F041DFF8DC80DC
:101B580099B1421C0BD14FF0E022136923F0010325
:101B680013614FF07F43C8F80030BDE8F081D8F822
:101B78000060012807DC00270BE0431CD8F8006050
:101B8800F7D14FF4036040F631039842A8BF1846D6
:101B9800471EEFF31185102383F31288BFF36F8F6D
:101BA800FFF760FF224C4FF0E0239969D4E9002346
:101BB800801843F10003C4E900031E4B00221A6099
:101BC8001D4B1A68831A2ED44FF4FA5C0CFB0733AA
:101BD80003F5F9531F33B3FBFCF7131A0CFB073358
:101BE800B3F5806F154A38BF4FF48063934228BF1E
:101BF80013464FF0E022C8F80030013B906953616A
:101C0800002393618142A1EB0003D4E9001238BF9D
:101C18009B195B1842F10002C4E9003285F3118870
:101C2800BFF36F8FA1E74FF48063E2E778030020EA
:101C380088000020740300208000002000DCFF00E2
:101C480038B5EFF31185102383F31288BFF36F8F34
:101C5800084B1C68084B1B68E41AFFF703FF85F361
:101C68001188BFF36F8F4FF4FA532044B0FBF3F0A1
:101C780038BD00BF8800002080000020224B9A68F1
:101C8800D96812F00C0205D00C2A15D101F0030115
:101C9800012918D119681D48090755BFD3F89410B0
:101CA8001968C1F30321C1F3031150F8210012B1DF
:101CB8000C2A09D000207047042A22D0082A144888
:101CC80018BF002070470020DA6802F00302022AD9
:101CD80015D00F49032A08BF0846D968DA68C2F345
:101CE80006224243D868C0F34160C1F302110130B3
:101CF80001314000B2FBF1F2B2FBF0F07047054849
:101D0800EBE70448704700BF001002409842000803
:101D180000127A000024F4001F4B421E9A4201D997
:101D2800012070471D4B1B6803F4C063B3F5007FA7
:101D38000FD11B4B98421AD81A4B984227D81A4BE6
:101D4800984226D8194B984294BF002301230020BB
:101D580011E0174B98420CD8A3F5F403A3F5905360
:101D6800984214D8134B984213D8134BEBE704232B
:101D7800EDE70023012011490A6822F007021A43FF
:101D88000A600A6802F007029342C9D17047032328
:101D9800DDE70223DBE700BFFFB3C40400700040A7
:101DA8000090D003006CDC020048E8010024F40035
:101DB80080BA8C01001BB700808D5B0000200240B8
:101DC80038B5EFF31185102383F31288BFF36F8FB3
:101DD800064B9C6801F071FD85F31188BFF36F8F86
:101DE8002046BDE83840FEF7F7BD00BF7C03002061
:101DF80038B50A4B53F82040013053F82050A5421B
:101E080000D838BD606830B1037FDB0701D401F02A
:101E180057FD0834F3E723689847FAE7C8420008F3
:101E280070B52A4B2A4C2B4D012286B003201A701C
:101E3800FFF7DEFF00F0B8FD0420FFF7D9FF2646C4
:101E4800AE4204F1300410D300F040FA204C224E88
:101E5800AC4226D300F04EFAFEF7FCFA1F4A137B79
:101E680023F00103137306B070BD54F80C3C0593BE
:101E780054F8103C049354F8143C039354F8183C59
:101E8800029354F81C3C019354F8203C009354E905
:101E98000A2354E90C0100F0CFF854F8303C5E6591
:101EA800CDE7D4E90A23B3F1FF3F08BFB2F1FF3F02
:101EB80005D052EA0301206803D100F0D7FA303484
:101EC800C6E73146183000F067FCF8E7AA0300209F
:101ED8002C4000082C40000891390008100100200F
:101EE80008B50348034A0021121A01F000FD08BD95
:101EF80080000020AC03002070B5002386B00122CA
:101F0800CDE90423134E144D01930F22CDE902327B
:101F18001249142303FB005506EBC01604464FF480
:101F2800C07000FB04110E4B00954FF4A0723046B0
:101F380000F082F8737B0B4AEE6023F0040373739E
:101F48004FF4046304FB033313442C746B6006B032
:101F580070BD00BF900000207C030020000C002012
:101F6800FF380008C0030020BFB50020FFF740FF7E
:101F7800294B83F30888294C294F636943F400737C
:101F880063610025F02384F82230E57725766576AD
:101F9800A57684F82050636A43F4E0236362FEF771
:101FA800EBFCFEF711FE4FF0FF33A362E362FEF78E
:101FB800D1FEFEF72DFE1B481B4C00F089F801F0FE
:101FC80068FCFEF743FB0120FFF712FF0220FFF732
:101FD8000FFF00F0C3F9154B15495C61154B0593CC
:101FE8000123CDE903534FF480623B46CDE9015507
:101FF8000095204600F020F8627B064622F0040295
:102008002046627301F094FC2846FFF775FF3A46B4
:1020180031462046FEF7BAFD000C002000ED00E036
:10202800291E000890010020100100207C030020D8
:10203800800D00201C4400082DE9F043073285B0CC
:1020480022F007020E461F461099017300F158034B
:102058007F32C0E916330446002322F03F020421F0
:10206800836041733F2A0F98A073C4E90633E37372
:1020780006F14009A2F1400805D883F31188BFF39F
:102088006F8F084602DFB51829462046FEF700FB89
:1020980007300E9B20F00700A066C4E91898029349
:1020A8000D9B01932D1A0C9B00932A463B46314603
:1020B8002046FEF739FD00236365044B9B6803B196
:1020C800DB6EE366284605B0BDE8F0837C0300209C
:1020D80040F2011383810023C0E91833C366014B22
:1020E800986070477C030020094A93686FF00A01E2
:1020F8009967084958674B6843F080534B60002341
:1021080083F31188BFF36F8F9368986F704700BF90
:102118007C03002000ED00E070B590F90D20437BB2
:10212800002A36DBD90634D11B4C63F07F032246E4
:10213800437352F8183FE169934207D1C0E900217F
:102148000860E06111E09942F8D01B68002BF5D0D7
:1021580090F90E5093F90E60B542F4D0AE42F2DD1C
:102168005968C0E9003108605860A569954200D0F7
:1021780005B9E568A3685A7BD20604D1DA897F2AB3
:1021880001D9AA6932B1AB4202D0284600F062FAFE
:10219800656170BD6361FCE77C03002038B590F988
:1021A8000D20437B002A014604DA03F07F034373C2
:1021B80001F0ACFB0D4D2A46AB6852F8184F94421B
:1021C80000D004B9EC688B4207D05A7BD20604D100
:1021D800DA897F2A01D9A2692AB1A34202D020460E
:1021E80000F038FA23466B6138BD00BF7C0300203D
:1021F80070B590F90D20437B002A014604DA03F0FC
:102208007F03437301F082FB4B7B1C4C63F07F031D
:1022180022464B7352F8183FE069934207D1C1E94F
:1022280000200160E16111E09842F8D01B68002BA2
:10223800F5D091F90E5093F90E60B542F4D0AE4244
:10224800F2DD5868C1E9003001605960A569A368EA
:10225800954200D005B9E5688B4207D05A7BD20673
:1022680004D1DA897F2A01D9AA692AB1AB4202D0FE
:10227800284600F0EFF92B46636170BD7C0300200F
:1022880049B9EFF3058030B9054B5A699B689A4202
:1022980001D0FFF729BF81F31188BFF36F8F704713
:1022A8007C030020034648B9EFF3058232B9064A99
:1022B80051699268914201D0FFF716BF83F31188E4
:1022C800BFF36F8F704700BF7C030020EFF31181CD
:1022D800102383F31288BFF36F8F054B9A68D37B63
:1022E800013BD37381F31188BFF36F8F704700BF31
:1022F8007C03002070B5EFF31186102383F3128856
:10230800BFF36F8F144DAB68DA7B0132DA732A465C
:1023180052F8184F944200D004B9EC685A7BD206A0
:1023280004D1DA897F2A01D9A2692AB1A34202D04D
:10233800204600F08FF923466B6186F31188BFF3BE
:102348006F8FEFF31180102383F31288BFF36F8F21
:10235800BDE87040FFF7A6BF7C030020024B03F1E5
:102368001802C3E9062270477C03002070B5EFF31A
:102378001186102383F31288BFF36F8F1B4CA1685B
:10238800E0690B68814214BF1A46002249680B6055
:102398005960A368E1692AB9154AC3E900210B60AD
:1023A800E3610CE093F90E0092F90E50A84218D0A0
:1023B800854216DD5168C3E900210B605360A569A9
:1023C8000B4B9D4200D005B9E568A3689D4202D039
:1023D800284600F03FF965613046BDE87040FFF7D8
:1023E80083BE8A42D8D01268D5E700BF7C0300209C
:1023F80094030020F8B550EA010306460C4603D1C1
:10240800FFF7B4FF0020F8BDEFF31187102383F323
:102418001288BFF36F8F124D124BA8681860FFF730
:10242800BDFEA868104923463246183000F0B4F9BA
:10243800AA68537B43F00403537304463846FFF7F6
:1024480053FEAB68D3E90A23B3F1004F08BF002A53
:10245800D8D101F004FB201A20EAE070D3E700BFCE
:102468007C0300209C0300209139000838B50446FD
:10247800EFF31185102383F31288BFF36F8F437B2B
:102488005B070FD5183001F0C2FA637B23F0040311
:1024980020466373FFF740FE29460548BDE83840EB
:1024A800FFF7EEBE85F31188BFF36F8F38BD00BF0D
:1024B800AB030020014B9868704700BF7C030020E5
:1024C8002DE9F8430446077BEFF31185102383F3C6
:1024D8001288BFF36F8F437B190705D585F31188E1
:1024E800BFF36F8FBDE8F883D90943F008025AD1CA
:1024F8004273A36813B1204601F010FA04F11800E2
:1025080001F085FAA66D04F15808B04511D04FF0D6
:10251800000976B1304601F001FA06F1180001F021
:1025280076FAC6F878903046FFF7F6FDA66DB04506
:10253800EFD1DFF8B880D8F808309C423BD1EFF3F0
:102548000589B9F1000918BF4FF00109D8F81860DA
:10255800274A964200D00EB9D8F80C60B34202D090
:10256800304600F077F8C8F81460B9F1000F02D0CF
:102578002048FFF7ADFDD8F808309C4231D1EFF381
:10258800058373BB227BD20718D42846FFF7ACFD1E
:10259800FB07A7D5002383F31188BFF36F8F0423AC
:1025A800184602DF9EE703F07F0343F008034373F6
:1025B80001F0ACF99DE74FF00009C7E785F31188F2
:1025C800BFF36F8F83F31188BFF36F8F042318460F
:1025D80002DFEFF31180102383F31288BFF36F8FAC
:1025E800D4E785F31188BFF36F8FD1E77C03002010
:1025F8009403002090010020044BC01A044BC01023
:102608005843044B01221A54704700BF100200209F
:10261800ABAAAAAAAB030020C3897F2B12D80A4B06
:102628001B6863B1094B90F90E201B689A4209DBBD
:10263800437BDB0606D1064BC31A18BF012303F000
:10264800010070470023FAE748000020A00300209B
:102658009000002070B50E4B0E4C1E7C06EB460316
:1026680004EBC3040546204601F0D1F90A4B0022C9
:1026780028469A55FFF7D0FF48B1084B08491A6811
:10268800013A2046D317BDE8704000F085B870BD08
:102698007C03002010020020AB030020480000202B
:1026A8000126000838B5EFF31185102383F312884B
:1026B800BFF36F8F104B114A9C681068A04206D177
:1026C800FFF7C8FF85F31188BFF36F8F38BD00216E
:1026D8001B7C11600A4AD35C002BF3D02046FFF71D
:1026E8009BFF0028EED0637BDB0602D12046FFF774
:1026F8007FFD2046E4E700BF7C0300209C03002008
:10270800AB0300200748084A084908B5121A01F027
:10271800F0F80748074A0849BDE80840121A01F0CE
:10272800E8B800BF000000208000002070440008C6
:10273800000000200000002070440008024B1868C8
:10274800984208BF002070474C000020034B1B68CC
:102758000BB9FFF775BA0020704700BFA40300202B
:1027680030B570B10B4B5B6898420AD0036843B12F
:10277800D3E90421D0E90445121941EB0501C3E965
:102788000421D0E9003213605A600023C0E9003305
:1027980030BD00BF4C000020B3F1FF3F08BFB2F1CD
:1027A800FF3F2DE9F84F0446994615461F467AD053
:1027B8008160EFF31188102383F31288BFF36F8FC2
:1027C800B9F1000FDFF8E4A020DBFFF7BFFFDAE97B
:1027D8000027013549F100092D1849EBE073C4E9D8
:1027E8000453AD18064643EB07074FF00109FFF7FE
:1027F800A5FFDFF8BCE0DEF804A00346EBB9C4E9A6
:1028080000EACAF80040CEF8044028E0DAE90012ED
:102818006FF001035B1A4FF0FF3161EB02025B1BA3
:1028280062EB0902012B72F10001BCBF01230022F7
:10283800C0E904324FF00009D9E7D3E9041CD4E910
:1028480004208A4270EB0C0B24DA891A5A686CEB64
:102858000000C3E90410C4E9003214605C60FFF7AB
:102868006DFF84420ED1134B1B685BB9B9F1000FA1
:1028780002D1FFF76BFF0646304601F0B1F80021A0
:10288800FFF762F988F31188BFF36F8F284639463E
:10289800BDE8F88F521A60EB0C009A45C4E9042091
:1028A800ADD01B68AAE700252F46EFE728020020D5
:1028B8004C000020A40300202DE9F047EFF3118518
:1028C800102383F31288BFF36F8FDFF8A490DFF82B
:1028D800A480C9F80000FFF731FF00260027D9F8C7
:1028E8000030D8E900ECD91750B1D0E90442A3422E
:1028F80071EB020A1CDAE41A62EB0102C0E9044235
:1029080013EB0E034FF000044CEB01012046C8E91D
:102918000031C9F8004001F063F82146FFF714F9C7
:1029280085F31188BFF36F8FBDE8F047FFF7BABE94
:1029380014EB0E024CEBE473C0E90467C8E900230A
:10294800FFF70EFF85F31188BFF36F8F83689847F1
:10295800EFF31185102383F31288BFF36F8FD9F833
:1029680000301B1BC9F80030FFF7E8FEB7E700BFCF
:10297800A40300202802002010B5EFF311841023CF
:1029880083F31288BFF36F8FFFF7E0FE054A034613
:10299800D2E90001181841EBE37184F31188BFF301
:1029A8006F8F10BD28020020014800F031BB00BF26
:1029B800214400080FB407B5064B04AA186852F85A
:1029C800041B019200F028F803B05DF804EB04B092
:1029D800704700BF0C410008F8B50E4B1D68AB7876
:1029E8009B07064612D56F6816F8014B29462CB985
:1029F8000A20B847002805DB204609E02046B847EA
:102A08000028F1DAAB7843F00403AB704FF0FF30E5
:102A1800F8BD00BF0C4100082DE9F04F8DB04368A8
:102A28000293837815469A07804640F10D81002469
:102A38000E78002E00F00A81252E0BD04B1C039334
:102A48000134029B4146304698470028C0F2F68080
:102A58000399EDE74E788B1C252E0393F0D00027C1
:102A6800B946BB46BBF11F0F38D8A6F12003102B7F
:102A78000AD8DFE803F02A090930090909210909F8
:102A88000928092D09091F00A6F13003092B33D99C
:102A98002A2E37D11BF0400F55F8043B40F08280B6
:102AA800002BA7BF4BF0200B9946C3F100094BF050
:102AB800280B01E04BF0010B039B13F8016B039308
:102AC800002ECFD130E04BF0020B4BF0040BF3E7B4
:102AD8004BF0080BF0E74BF0100BEDE7BBF17F0F65
:102AE80019D8A6F13003092BD2D81BF0400F03D018
:102AF8000A2101FB0737DFE70A2101FB09394BF0FF
:102B0800200BD9E72E2E06D11BF0400F40F09E80F7
:102B18004BF0400BD0E76C2E31D02BD8682E36D036
:102B28006A2E3CD04C2E3AD0002F46F02003B8BF76
:102B38002BF04002A3F16501BCBF1FFA82FB0027FE
:102B4800022901D9612B2FD1073525F00705DFF8B8
:102B5800ACA2083507271BF0080F66D00AEB070B55
:102B680056465E4563D1A4EB0A0A06EB0A02A9EBB6
:102B780007096FE1742E9FD07A2E9DD0D4E71BF001
:102B8800800F18BF4BF4007B4BF0800B94E71BF4CD
:102B9800807F18BF4BF4007B4BF4807B8CE74BF4B1
:102BA800207B89E71F4687E7A6F16301122900F217
:102BB800F080DFE811F013004F00EE00EE00EE00A9
:102BC800EE004F00EE00EE00EE00EE00EE00FE001C
:102BD800E900EE00EE001B00EE00AF0055F8043BE4
:102BE8008DF8183001270DF1180AB4E755F804AB31
:102BF800834BBAF1000F08BF9A461BF0400F14BF71
:102C080039464FF0FF31504600F043FF0746A2E730
:102C1800029B41462020984700280FDB013EB7421F
:102C2800F6D34C44A41BB14698E74E46F7E716F88E
:102C3800010B029B41469847002892DA98F8023027
:102C480043F0040388F802304FF0FF3420460DB0FB
:102C5800BDE8F08F1BF0800F34D01BF4007F2CD020
:102C6800073525F00705AA4669685AF8080B2BF0BE
:102C780010050029ADB237DA404261EB410145F455
:102C880080650DF1180B0A235A4600F00EFFA0EBE1
:102C98000B0301936B0662D5019B25F001019F424E
:102CA80089B240F3A180002E00F0998015F010023F
:102CB80040F09C80BB460D4623E0AA465AF8040B18
:102CC800C117D4E7AA461BF4807F5AF8041B01D128
:102CD8000846F5E71BF4007F15BF48B208B241F378
:102CE800C01141F3C031C2E750EA0103C9D11BF05A
:102CF800400FC6D0002FC4D12BF0110295B2BB46AD
:102D0800019740F2064115EA01021CBF0BF1010BC5
:102D180000222CE02BF010021FFA82FB0A231BF082
:102D2800800C49D01BF400711DBF073525F007053D
:102D3800AA46AA461ABF5AF8080B69685AF8040B3B
:102D480050EA010545D12BF016051BF0400FADB236
:102D580042D0002F40D12BF0170295B2019715F001
:102D6800100248D0019B002E42D103F1010B290724
:102D78005AD4EB0706D5D9456FDD0199A9EB0B03AA
:102D88005F18CB465B4649E04BF0100B10237826C2
:102D9800C5E7782B04D1C6F1780343F01003BEE7EA
:102DA800029B4146252098470028FFF647AF02348A
:102DB80047E608230026B2E7AA461BF480715AF8B2
:102DC800040BBDD01BF400711ABFC0B2614680B2BB
:102DD800B6E72BF0060295B20DF1180B54E725F073
:102DE8001105ADB2BB468CE70D46B8E73B460D462C
:102DF80003F1020BBBE7DDF804B082E76544000885
:102E08005E440008CDE904324146029B20209847E1
:102E18000028FFF613AF049B059A01339945F1DCAE
:102E2800A4EB0B01CC189B460AB3029B4146302009
:102E380098470028FFF602AF8EB901342744019B5A
:102E4800391B994224DC1D465DBB019AA9EB0B098D
:102E5800224455461446914435E0019F92E70234D6
:102E680041463046029B98470028E7DAE6E640F2FA
:102E780006410D42E2D015F0020F14BF2B2020208E
:102E880015F4806F04F10104414618BF2D20E9E7CD
:102E9800029B414630209847002804F10104CEDA0D
:102EA800CCE606AB013D4146585D029B9847002899
:102EB800CADAC3E6029B414620209847002804F15D
:102EC8000104FFF6BBAEA9EB0403002BF2DCBFE55F
:102ED8007047F0B403460A461979DB880068134343
:102EE800DC028768066906D513F4402F03D0DA0799
:102EF80048BF83F44023346801258D4023F48012B1
:102F0800DB074CBF2C43AC4334603B68F0BC18472C
:102F1800034601211B790068994083685B6918475B
:102F2800034600681B790121994003691B6819420F
:102F380083680CBF1B69DB68184700EBC100408839
:102F480040087047F8B50346FFF7F7FFB0FA80F07E
:102F5800C0F11F0003EB800CCA00DCF81060171DDD
:102F68000C4606328DB256B9012101FA00F0D96833
:102F78000143D960CCF81040DD539D52F8BDF100F3
:102F88000431585AD85303EBC0009E52C5805D5295
:102F9800F4E7043A2DE9F041CC1D114424F007046C
:102FA80021F007010E1BF708B7FA87F2C2F12405D2
:102FB800AD004FF000080735C2F12002ED080460AB
:102FC8004146A760C4F80C80920004F1100000F09C
:102FD80058FD6B0043F00103638004EBC5027B1BC3
:102FE8005900A4F800805180A21924F83550A2F89D
:102FF8000280A35304EBC70329465A8842F0010212
:103008005A802046BDE8F041FFF79CBF002070477A
:103018000FB407B504A951F8040B0191FDF796FA0E
:1030280003B05DF804EB04B070477047012801D184
:10303800EFF30583FEF7C4BE01460068FFF7F6BF4D
:1030480008B5FDF721FBBDE80840FDF741BB0021AD
:103058000120FFF7EBBF61B662B680F31188BFF3BA
:103068006F8F704772B6002383F31188BFF36F8F99
:10307800BFF34F8F30BF62B6BFF36F8F7047202802
:1030880009D9B0F1004F08D80138B0FA80F0C0F182
:103098001F0040007047082070473E20704708B561
:1030A800FDF70CFF002008BD01208840704700F0A4
:1030B8000302043292000F23934043EA900010B5B4
:1030C80000F003039B0003F1804303F58033020CF7
:1030D8009C6892FAA2F2B2FA82F224EA1040914075
:1030E8000143996010BD0B88C3F30B0303F6B87254
:1030F800C2F30B02182A82B014D803F1804303F5F7
:10310800043348681A6802431A600B88C3F30B0338
:1031180003F1804303F5043300201B680193019BEE
:1031280002B070476FF08500FAE70B88C3F30B0312
:1031380003F6B872C2F30B02182A9FBF03F180434B
:1031480003F5043349681A689DBF8A4300201A6052
:103158006FF085007047042805D8002814BF0020A8
:103168006FF085007047063804288CBF6FF0850023
:103178000020704710B50888C0F30B00FFF7EBFF7D
:1031880000281FDB4A68FF2A1BD093B203F1804353
:1031980003F50433C2F384541868C2F3054204FAF1
:1031A80002F220EA02021A6049688BB203F18043F6
:1031B80003F50433CA0E1868C1F305418A40024377
:1031C8001A60002010BD0888C0F30B0008B500F68F
:1031D800B873C3F30B03182B0AD800F1804000F52D
:1031E80004304B680268934314BF0120022008BDD5
:1031F800FFF7B1FF002814BF01200220F7E770474E
:1032080043685B681B690B600020704743685B6814
:10321800586942400A4042405A610020704743685A
:103228005B6800209961704743685B680020996279
:10323800704743685A6853694B4053610020704790
:1032480010B503699868F8B1884219D1DC68086834
:103258009860A14200D1D860002008602AB19A681D
:103268000A60DA68996002B9D960002010E08142EA
:1032780006D108682060D8688142EDD1DC60EBE7B0
:10328800044600680028F2D1002AE8D16FF0150042
:1032980010BDF0B502F030054468302D1E464FF0E1
:1032A800010008BFE36A00FA01F004BF0343E362C8
:1032B8006768C2F3801327EA00078B403B436360CB
:1032C80090FAA0F7B7FA87F7D4F808C04FF0030EC2
:1032D8007F000EFA07F72CEA070C90FAA0F7B7FA66
:1032E80087F7C2F3C1137F00BB4043EA0C03A36016
:1032F80090FAA0F3B3FA83F3E7685B000EFA03F3DE
:1033080027EA030790FAA0F3B3FA83F3C2F3412242
:103318005B009A403A43202DE26016D107292BD84A
:1033280090FAA0F3226A2BB3B3FA83F39B000F2120
:1033380001FA03F322EA030290FAA0F3B3FA83F343
:103348009B0006FA03F31343236290FAA0F3B3FA3F
:1033580083F3226890FAA0F05B000321B0FA80F0B2
:103368002D0901FA03F3400022EA030385401D43B7
:103378002560F0BD2B46D9E7030A616A93FAA3F2E8
:1033880082B1B2FA82F292000F2793FAA3F3B3FA4A
:1033980083F307FA02F29B0021EA02029E401643D9
:1033A8006662D2E72A46EEE712F4003CF8B50C460E
:1033B80013461DD0960714D555075CD55022D9065B
:1033C80011D542F4007203F4C061B1F5806F42D0A8
:1033D800B1F5C06F19D0B1F5007F18D142F0800265
:1033E80015E01022EBE79F06EDD542F48062EAE78C
:1033F800D60305D5D50605D4C2F340129202E2E7FA
:103408003022E0E74FF40072DDE742F4C07213F4B3
:103418004036056908D02F6927FA04F1C9075FBF4C
:103428000121A14039432961BCF1000F06D01F03D7
:10343800416813D549680123A3408B614068002384
:103448002146FFF726FF26B92B6923FA04F2D20793
:103458000BD40020F8BD42F48072D8E75F0341BF67
:1034680001234968A3408B62E8E70122A24023EACE
:1034780002032B61EDE76FF08500EBE770B50B46B3
:103488008968054611B15E680C6801B970BD8A6823
:103498002A4002D04B68304698471CB12368214621
:1034A8001C46F2E72346FAE7F8B51F46044640688B
:1034B8000E461546FFF7EDFE112F08D1012303FA3A
:1034C80006F663685B682A054CBF9E619E62002011
:1034D800F8BD30B5036813600579046804EBC504CA
:1034E800A34202D36FF0010030BD5C798C4201D059
:1034F8000833F0E70020F7E74368C1F34B101B6877
:1035080001F01F01C05801238B40034214BF01235F
:10351800002313700020704710B54368C1F34B10A7
:103528001A6801F01F01845801238B4023438350FC
:10353800002010BD10B54368C1F34B14186801F0A2
:103548001F01235801228A4023EA02032350002046
:1035580010BD38B504460D46FFF7DEFF2946204664
:10356800FFF7E8FF002038BD37B5026943681068E7
:103578001D680C46D9688368DB6873B101AA98474F
:1035880000280ADB2B6823F400432B60019B03EB24
:103598005403B3FBF4F39BB2EB6003B030BDB0F55A
:1035A800805F07D0B0F1805F09D1002914BF0120E6
:1035B80002207047002914BF032004207047002907
:1035C80014BF02200320704743681B68D869DA6972
:1035D800D107DA69C0F3C00048BF40F00200920783
:1035E800DA6948BF40F004005107DA6948BF40F083
:1035F8002000D20542BF4FF4807240F008001A62E2
:10360800C10744BF08221A62820744BF01221A6216
:10361800410744BF02221A62820644BF04221A628A
:10362800704743681A6852E8003F43F0400342E895
:1036380000310029F7D1704743681A6852E8003F03
:1036480023F0400342E800310029F7D1704743686E
:103658001A6852E8003F43F0200342E8003100298D
:10366800F7D1704743681A6852E8003F23F02003F7
:1036780042E800310029F7D1704743681B68D869D0
:10368800C0F340107047012070470369C3E9021274
:103698007047026993680BB1D1681847704708B53D
:1036A800002225201146FDF7FDF9BDE80840252038
:1036B800FDF7EAB908B5002234201146FDF7F2F902
:1036C800BDE808403420FDF7DFB943681B68D869B6
:1036D800C0F38010704743681B68D86910F08000F9
:1036E8001CBF1868C0F38010704710B50269526893
:1036F80012680A6042681268126802F4C062B2F581
:10370800806F04460B4633D0A2F5C0604242424166
:103718001A7162681268526802F44052B2F5805F0A
:1037280028D0B2F5405F27D0002A0CBF012203221F
:103738005A71626812681068116800F0102001F46C
:10374800C061FFF72CFF987162681268926802F4F2
:103758004072A2F540714A424A41DA7161680968CB
:10376800896811F4804F18BF0322DA71002010BD58
:103778000222CDE70022DBE70222D9E738B5436809
:103788001B680C461868196800F0102001F4C06125
:10379800FFF705FF04281AD0D86910F0800015D06B
:1037A800EFF31181102080F31288BFF36F8F002090
:1037B800151A002D06DDDD692D0603D5255C1D854E
:1037C8000130F5E781F31188BFF36F8F38BD6FF0D3
:1037D8008500FBE710B543681B681020DA691206FC
:1037E800FCD5EFF3118280F31288BFF36F8FDC6989
:1037F800240604D482F31188BFF36F8FEEE719858E
:1038080082F31188BFF36F8F10BD43681B68DA69B4
:10381800910602D51A68920607D4D86910F04000BC
:1038280004D01868C0F3801070470120704738B57D
:1038380043681B680C461868196800F0102001F4EA
:10384800C061FFF7ACFE042810D000200821151A2B
:10385800002D0DDDDD69AD060AD59D8C2554DD6989
:103868002D0700F10100F2D51962F0E76FF085002D
:1038780038BD43681B68DA69100744BF08221A621A
:10388800DA69920643BF9B8C0B7000204FF0FF3023
:103898007047704740B1C368587810F001001EBFE8
:1038A8001878B0FA80F040097047EFF311831023BD
:1038B80083F31288BFF36F8FFEE708B5FFF7F5FFB4
:1038C80010B54369044633B90020E268537843F0E1
:1038D8000103537010BD98470028F5D00028B8BFE1
:1038E8004042E368FF28A8BFFF201870EDE700F00A
:1038F800C8B800F0B8B808B51024EFF3118384F302
:103908001288BFF36F8FFFF7ADFBF6E7D0E90032FF
:1039180013605A600023C0E90033704708B5FFF709
:10392800F5FF437B23F0020343730023836008BD44
:1039380010B5EFF31184102383F31288BFF36F8F50
:10394800FEF7EAFB84F31188BFF36F8F10BD10B543
:103958000146EFF31184102383F31288BFF36F8FAE
:10396800437B13F0280F0AD183680BB1FFF7D6FF0A
:103978004B7B23F004034B730846FEF7CDFB84F31F
:103988001188BFF36F8F10BD01211838FFF7DFBF13
:1039980038B504460D46FEF72DFDB5F1FF3F08BFCB
:1039A800B4F1FF3F0346204614D013F109004FEA53
:1039B800E37141F100010A2871F100030BD36FF0A4
:1039C8000A0383424FF004038B4106D30A220023E3
:1039D800FCF7D6FB38BD0020FCE76FF00040F9E7A4
:1039E80008B50246FEF7AAFE70B1D0E904319B1A69
:1039F80061EBE272B3F1004F72F1000104DA002AC0
:103A0800ACBF1846002008BD6FF00040FBE738B592
:103A18000246EFF31185102383F31288BFF36F8FEB
:103A28000368CBB1FEF78AFE04461046FEF798FEFF
:103A380000224FF000438442C0E9042306D1FEF778
:103A480085FEFFF7CDFF0021FEF77EF8002085F305
:103A58001188BFF36F8F38BD6FF01500F7E708B511
:103A6800FEF78AFF08BD0A44914200F1FF3300D1F6
:103A7800704710B511F8014B03F8014F9142F9D185
:103A880010BD02440346934200D1704703F8011B5E
:103A9800F9E710B5024601448A42134603D01C7860
:103AA8000132002CF8D1181A10BDF0B5C3F1370750
:103AB8000446FFB203F01F031046082BE6B233D0CA
:103AC800102B3ED06508A40844EA817445EAC17504
:103AD8002D194FEA910242EB5102290941EA02717C
:103AE8006D1842EB1212290A41EA02616D1842EB85
:103AF8001222290C41EA02416D1842EB1242AD181C
:103B080042F10002EC0844EA4274D10804EB840252
:103B1800A6EB4205EDB2092D0CD90134A5F10A0531
:103B280041F10001EDB212E0E40844EA417406F004
:103B38000705C908303554EA010200F8015BBCD119
:103B4800F0BD240944EA017406F00F050909092D9E
:103B580084BFED19EDB2EDE7014800687047000039
:043B68003402002003
:083B6C0050C6FF7F01000000BC
:103B740000000000FC3B0008B9050008000000003C
:103B8400000000001C3C000800000000FC3C000891
:103B9400000000003C3D0008000000001C3D00083F
:103BA400000000003C3C000800000000DC3C000871
:103BB400000000009C3C0008000000007C3C000861
:103BC400000000005C3C000800000000BC3C000851
:103BD400000000005C3D0008000000007C3D00087F
:103BE4000914000800000000B91A000800000000D1
:083BF400ED0E000800000000C6
:103BFC005E430008000000006040000866000020E2
:103C0C00000000003D120008000000000000000051
:103C1C00DB430008F4410008504000087800002005
:103C2C000000000000000000000000000000000088
:103C3C004043000800000000000000006400002069
:103C4C0054020020750F0008000000000000000066
:103C5C006B430008104100082C400008680000204D
:103C6C00D40200200915000800000000000000002C
:103C7C0079430008244100082C4000086A00002009
:103C8C00E8020020091500080000000000000000F8
:103C9C0087430008384100082C4000086C000020C5
:103CAC00FC020020091500080000000000000000C4
:103CBC00954300084C4100082C4000086E00002081
:103CCC00100300200915000800000000000000008F
:103CDC00A3430008604100082C400008700000203D
:103CEC00240300200915000800000000000000005B
:103CFC00B1430008744100082C40000872000020F9
:103D0C003803002009150008000000000000000026
:103D1C00BF430008884100082C40000874000020B4
:103D2C004C030020091500080000000000000000F2
:103D3C00CD4300089C4100082C4000087600002070
:103D4C0060030020091500080000000000000000BE
:103D5C00EC430008F84100087C4000087A00002081
:103D6C0014000020C917000800000000000000002B
:103D7C00FC430008484200087C4000087C000020FE
:103D8C002C000020C91700080000000000000000F3
:103D9C0000000000573000080000000057300008F9
:103DAC0000000000573000080000000057300008E9
:103DBC0000000000573000080000000057300008D9
:103DCC003E430008110F00083C430008110F000887
:103DDC003A430008110F000838430008110F00087F
:103DEC0036430008110F000800000000573000088F
:103DFC000000000057300008000000005730000899
:103E0C000000000057300008000000005730000888
:103E1C000000000057300008000000005730000878
:103E2C000000000057300008000000005730000868
:103E3C000000000057300008000000005730000858
:103E4C00000000005730000834430008110F000830
:103E5C000000000057300008000000005730000838
:103E6C000000000057300008000000005730000828
:103E7C000000000057300008000000005730000818
:103E8C000000000057300008000000005730000808
:103E9C0000000000573000080000000057300008F8
:103EAC0000000000573000080000000057300008E8
:103EBC0000000000573000087C3D00089B360008CD
:103ECC0000000000573000080000000057300008C8
:103EDC0032430008110F00080000000057300008A2
:103EEC0000000000573000080000000057300008A8
:103EFC000000000057300008000000005730000898
:103F0C000000000057300008000000005730000887
:103F1C000000000057300008000000005730000877
:103F2C000000000057300008000000005730000867
:103F3C005C3D00089B36000800000000573000086C
:103F4C000000000057300008000000005730000847
:103F5C000000000057300008000000005730000837
:103F6C000000000057300008000000005730000827
:103F7C000000000057300008000000005730000817
:103F8C000000000057300008000000005730000807
:103F9C0000000000573000080000000057300008F7
:103FAC0000000000573000080000000057300008E7
:103FBC0000000000573000080000000057300008D7
:103FCC0000000000573000080000000057300008C7
:103FDC0000000000573000080000000057300008B7
:103FEC0000000000573000080000000057300008A7
:103FFC000000000057300008000000005730000897
:10400C000000000057300008000000005730000886
:10401C000000000057300008000000005730000876
:10402C00B1330008093200081532000827320008A5
:10403C00313200083B32000859140008493200089C
:04404C000000000070
:1040500001350008213500083D3500085B350008B2
:10406000EF30000833310008000000005D11000847
:0C407000CF310008000000007D31000886
:10407C007B380008DD370008D1350008211900080D
:10408C00F336000885370008373800082B3600084F
:10409C0041360008DF360008573600086D36000838
:1040AC00D336000883360008D115000831160008F5
:0C40BC00133800088F3600089336000807
:1040C800FC3C00080D000100FC3C00080900000051
:1040D8001C3D00080E000000000000200000000049
:1040E80000000B0602000000F44000080000000871
:1040F8002343000826000206000000202B43000886
:1041080020000B1104000020FFFF0000001C0048E5
:10411800070000004C00000080000000FFFF0000C6
:1041280000180048060000004C0000004000000095
:10413800FFFF000000140048050000004C000000CC
:1041480020000000FFFF00000010004804000000ED
:104158004C00000010000000FFFF0000000C0048A9
:10416800030000004C00000008000000FFFF0000F2
:1041780000080048020000004C0000000400000095
:10418800FFFF000000040048010000004C00000090
:1041980002000000FFFF00000000004800000000CF
:1041A8004C000000010000003C3D00081C3D0008D8
:1041B800FC3C0008DC3C0008BC3C00089C3C0008B7
:1041C8007C3C00085C3C0008000000000000000087
:1041D80000000000000000000000000000000000D7
:1041E8000000000000000000000000000010024075
:1041F800004C00401C3C0008130700002042000847
:1042080001000000000000000000000000000000A5
:1042180028420008BD3600085800000000000800C9
:104228003042000801000000384200080200000087
:104238000800000000020000280000000000000044
:10424800003801401C3C00080E08000070420008BD
:104258000100000000000000000000000000000055
:1042680078420008A73600086000000000400000FF
:104278008042000801000000884200080200000097
:10428800C702000000020000E70200000000000072
:10429800A0860100400D0300801A060000350C00BE
:1042A80040420F0080841E0000093D0000127A0081
:1042B8000024F40000366E010048E801006CDC02BE
:1042C800743B0008743B0008EC3B0008F43B000812
:1042D800FC3B0008FC3B00080010000000304F4E7B
:1042E800004F4646004572726F723A204C45442092
:1042F8006F7220627574746F6E2064657669636589
:10430800206E6F742072656164792E004C454420DC
:1043180073746174653A2025730A00464C4153480A
:104328005F30005352414D5F30000A060505040115
:104338000301020101010001696E746572727570F2
:10434800742D636F6E74726F6C6C657240343030AC
:1043580031303430300072636340343030323130C1
:104368003030006770696F40343830303163303036
:10437800006770696F40343830303138303000674A
:1043880070696F40343830303134303000677069CC
:104398006F403438303031303030006770696F40EA
:1043A8003438303030633030006770696F403438EB
:1043B800303030383030006770696F403438303012
:1043C80030343030006770696F4034383030303006
:1043D80030300072657365742D636F6E74726F6C24
:1043E8006C65720073657269616C403430303034CA
:1043F8006330300073657269616C4034303031333A
:104408003830300000000000000000000102030402
:10441800060708096D61696E002A2A2A20426F6F13
:1044280074696E67205A6570687972204F532062EC
:1044380075696C642076342E322E302D7263332DDC
:1044480034342D6733363664343566643334666500
:10445800202A2A2A0A00286E756C6C29002A666CA4
:084468006F61742A00000000DE
:104470001530000800000000A73000080000000010
:1044800000000000000000002400002000000000E8
:104490000000000000C20100000103000000000055
:1044A0003C000020000000000000000000C20100ED
:1044B0000001030000093D00C80000004C0000207E
:1044C0004C000020FFFFFFFFFFFFFFFFFFFFFFFF8C
:0444D000FFFFFFFFEC
:1044D40000000000000000000000000000000000D8
:0C44E400000000000000000000000000CC
:0444F00015E015E0DE
:04000005080009AD39
:00000001FF
